:020000040007F3
:1020000000000120B5220700DD220700DF220700C3
:10201000E1220700E3220700E5220700000000009C
:10202000000000000000000000000000E947070079
:10203000E922070000000000EB220700ED22070064
:10204000EF220700EF220700EF220700EF22070030
:10205000EF220700EF220700EF220700EF22070020
:10206000EF220700EF220700EF220700EF22070010
:10207000EF220700EF220700EF220700EF22070000
:10208000F5590700EF220700EF220700EF220700B3
:10209000EF220700EF220700558F0700EF2207000D
:1020A000EF220700EF220700EF220700EF220700D0
:1020B000EF220700EF2207000000000000000000F0
:1020C000EF220700EF220700EF220700EF220700B0
:1020D0005D530700EF220700EF2207000000000019
:1020E00000000000000000000000000000000000F0
:1020F00000000000000000000000000000000000E0
:1021000000000000000000000000000000000000CF
:1021100000000000000000000000000000000000BF
:1021200000000000000000000000000000000000AF
:10213000000000000000000000000000000000009F
:10214000000000000000000000000000000000008F
:10215000000000000000000000000000000000007F
:10216000000000000000000000000000000000006F
:10217000000000000000000000000000000000005F
:10218000000000000000000000000000000000004F
:10219000000000000000000000000000000000003F
:1021A000000000000000000000000000000000002F
:1021B000000000000000000000000000000000001F
:1021C000000000000000000000000000000000000F
:1021D00000000000000000000000000000000000FF
:1021E00000000000000000000000000000000000EF
:1021F00000000000000000000000000000000000DF
:1022000010B5054C237833B9044B13B10448AFF330
:1022100000800123237010BD245A0020000000001C
:10222000F0D7070008B5034B1BB103490348AFF3D0
:10223000008008BD00000000285A0020F0D70700E9
:10224000154B002B08BF134B9D46A3F5803A002188
:102250008B460F461348144A121A08F013F80F4B16
:10226000002B00D098470E4B002B00D09847002041
:10227000002104000D000D48002802D00C48AFF3E7
:10228000008007F0BFFF2000290002F055FC07F096
:10229000A5FF00BF000008000000012000000000B2
:1022A00000000000245A00204CA200200000000082
:1022B000000000000649074A074B9B1A03DD043B58
:1022C000C858D050FBDC00F04DF8FFF7B9FF000014
:1022D000E8D8070068590020245A0020FEE7FEE7EE
:1022E000FEE7FEE7FEE7FEE7FEE7FEE7FEE7FEE7C6
:1022F0000C4B1B78062B10D10B4B1B681A070CD10B
:102300000A4B186800F0F003302B08D000F0E00012
:10231000A0F1400358425841704700207047012007
:10232000704700BFE00F00F0E40F00F0E80F00F08E
:10233000094B1B78062B0CD1084B1B681A0708D1D8
:10234000074B186800F0F000A0F1300358425841E4
:1023500070470020704700BFE00F00F0E40F00F06E
:10236000E80F00F008B5FFF7C3FF28B17D4B7E4AA8
:102370001B68C3F304231360FFF7DAFF10B17B4B34
:102380007B4A1A60FFF7B4FF28B17A4B7A4A1B6880
:10239000C3F342331360FFF7CBFF20B1774AD36812
:1023A00023F08073D360FFF7A3FF40B14FF0804369
:1023B0000022C3F80C21C3F81021C3F83825FFF719
:1023C000B7FF10B16E4B03221A60FFF7B1FF40B1A7
:1023D0006C4B05221A6001229A6700229A603F2204
:1023E0005A60694B1B78062B50D1684B1B68190744
:1023F0004CD1674B1B6803F0F003502B46D14FF0D4
:102400008052644BD2F80414C3F82015D2F8081493
:10241000C3F82415D2F80C14C3F82815D2F81014F8
:10242000C3F82C15D2F81414C3F83015D2F81814C8
:10243000C3F83415D2F81C14C3F84015D2F8201490
:10244000C3F84415D2F82414C3F84815D2F8281458
:10245000C3F84C15D2F82C14C3F85015D2F8301428
:10246000C3F85415D2F83414C3F86015D2F83814F0
:10247000C3F86415D2F83C14C3F86815D2F84014B8
:10248000C3F86C15D2F84424C3F87025FFF730FF69
:1024900028B1414B414A1B6803F04F031360FFF71B
:1024A00027FF48B14FF08043D3F80024D20744BF40
:1024B0006FF00102C3F80024394B1B68062B08D1CA
:1024C000384B1B68062B01BF374A136843F48063FF
:1024D0001360364AD2F8883043F47003C2F888306B
:1024E000BFF34F8FBFF36F8F4FF01023D3F800224D
:1024F000002A03DBD3F80432002B2FDA2C4B012205
:10250000C3F80425D3F80024002AFBD04FF0102292
:102510001521C2F80012D3F80024002AFBD04FF096
:1025200010231522C3F80422214B1A46D3F80014B5
:102530000029FBD00021C3F80415D2F80034002B89
:10254000FBD0BFF34F8F19491A4BCA6802F4E062FF
:102550001343CB60BFF34F8F00BFFDE7164B174A05
:102560001A6008BD240300104035014074C00740C4
:102570000DF0ADBA440200103C050040F0ED00E063
:10258000A005004010560040E00F00F0E40F00F0FE
:10259000E80F00F000C0004058020010E40E0040B8
:1025A00030010010340100103C17004000ED00E045
:1025B00000E001400400FA05685900200090D003B3
:1025C0007047000007B5044B0093044A402300F015
:1025D00032F803B05DF804FBE1250700415A002002
:1025E0002DE9F84389461446B2B10F4B0F4E03252F
:1025F000002743F00108224609EB0701002002F002
:1026000063FB0744241A48B933782BB14FF47A405E
:10261000C047013D02D13570BDE8F8830123337016
:10262000002CE8D1F8E700BFD0A20700405A0020F4
:10263000704702F07DBBF0B595B01C4616460846C3
:102640000D4601F060FD1A9B0D93CDE9086400244E
:102650002346082205A928460A948DF82C400C949C
:1026600001F078FD079B0293069B03939DF81430BD
:102670008DF8114003F00302012A1DD1BDF814406A
:10268000059EC3F3C203C4F383148DF81030A20077
:1026900008230EA9284601F05DFDC6F3952608AB78
:1026A0000093224602AB0EA9304600F027FC2846D4
:1026B00001F02DFD15B0F0BD022AF8D1BDF816408D
:1026C000C3F3C203A4098DF810300827082C26464E
:1026D00028BF08263B4632460EA9284601F03AFD9F
:1026E000A41B08AB02AA31460EA8374400F06AFCCE
:1026F000002CEBD1DBE7000008B5FFF79AFF0421BF
:10270000064800F05FFB002803DA0549412000F08D
:10271000EDFD044B01225A7108BD00BFA0D807008F
:10272000E4A207006C590020037813F0040216D0CD
:1027300003F00303012B03D0022B09D001207047C3
:102740000A6800880232C0F3831002440A60F5E789
:102750000B684288023303EB92130B60EEE71046DE
:10276000704700002DE9F04F89B000230446851C16
:102770000DF10F000F4690468DF80F3000F04AFD26
:10278000484806683E60D0E90132134401339B1B80
:10279000454E8246A6F10409A6F10807AB421BD3B9
:1027A0000022B8F1000F77D0052363F3070264F32A
:1027B0008912DAF80010DAF808309DF80F000B40A3
:1027C00003330D444AF82320CAF8005000F052FDAC
:1027D000012009B0BDE8F08F0121304600F073FE02
:1027E000484600F089FE384600F086FEDAF804001C
:1027F000DAF808B0049000EA0B0003300AEB80001E
:1028000004A9FFF791FF03460498002BF3D10BEACC
:1028100000020AEB820200F1020CD268059201303C
:1028200000EA0B0B0AEB8B0B02F00302012ACDF836
:1028300010C0DBF80C1026D0022A08D01B490193E7
:102840004FF4BF7000F052FD019B9B4608E0BDF8BD
:102850001620920903320CEB92024FEA114B0492BC
:10286000384600F04CFE10B1049BCAF804305946BB
:10287000304600F028FEDAE901231344DAF800209C
:1028800001339B1A8AE7BDF81430C3F38313634402
:102890004FEA114B0493E3E7062363F3070264F363
:1028A0009F5286E7545B0020706B002052A3070004
:1028B0000D4B0E4840F2FF3241F2180110B59A60FC
:1028C00000225A5041F21401C3E900225A5003F584
:1028D00081531A7001F0D0FB044610B9044801F08E
:1028E0004DFC204610BD00BF545B002078D8070087
:1028F000A8A3070030B50A4C71B10A4A0A49121B55
:10290000D20800239A4201D1002030BD31F8235073
:10291000854202D00133F5E7034654F83300F4E76B
:1029200008D8070078D80700105A0020094B013951
:1029300003EBC000032909D8DFE801F00A0204060E
:102940000420704700797047407970470020704735
:102950000220704708D80700034BD3E90030C31AA0
:1029600058425841704700BF545B00202DE9F043A6
:1029700087B0FFF7F1FF0646002840F00381824D43
:1029800041F21803E850BFF34F8F6868AC680290BB
:10299000204003307D4F05EB800002A9FFF7C4FE05
:1029A000029B10B13A68002A61D004EA0302991C24
:1029B000013305EB8202234005EB8303D268DB6819
:1029C000049302F00303022B0392029167D1BDF836
:1029D0000E306F484FEA9318B8F1500FC14628BF28
:1029E0004FF0500969F38F1309F10801ADF80E306B
:1029F00001F05AFB0746002800F0AE8001F083FB8F
:102A000003A900230822384601F090FB029924EA2A
:102A100001060136B600B1453AD95FFA89F9A6B385
:102A2000F6B2A9EB0609214003315FFA89F4B146F9
:102A3000584E05EB810108234A46384601F076FBE3
:102A400036B109F1080322463146384601F06EFBE3
:102A5000029B08F1030803EB9803029341F2180369
:102A6000EB58002B4FD141F21003EC585EE02A687E
:102A70009A4204D86A60304607B0BDE8F08304EAA1
:102A80000300033005EB800087E742493446D2E774
:102A90002140033108234A4605EB8101D5E7012B8C
:102AA0005AD1BDF80C303A48C3F38311062928BF28
:102AB000062161F3891302318900ADF80C3001F071
:102AC000F3FA0746002847D001F01DFB0023082237
:102AD00003A9384601F02AFB0026BDF80C20C2F3FA
:102AE0008312B300964203F10803B7D202994A1C3D
:102AF00021400331029205EB81010422384601F0A6
:102B000015FB0136E9E7384601F001FBFFF724FF2A
:102B100080F00100C6B2AEE7E3685B7923B12368B9
:102B200039461B6820469847E3681C68002CF3D19F
:102B3000384601F0ECFA0DF107008DF8074000F07F
:102B400069FB41F21803EB580BB9029B6B609DF8CF
:102B5000070000F08FFBD9E741F21003EC5854B99D
:102B60000D4B0E480E49C01AC008000440F0020088
:102B700000F084F8CAE7236820469B689847E3681A
:102B80001C68ECE7002676E7545B00206C6B0020A5
:102B900078D80700605B002008D8070008D8070035
:102BA000B4A307002DE9F74F2E4D80460F469146FE
:102BB00001A9012218461E46D5F808A0FFF7D2FD4C
:102BC00000283CD0019C0023A01CB34203EB000171
:102BD0003FD10021244800F040FC80F3100B234B30
:102BE000234A4FEA18499B1AB9EBD30F04D3214962
:102BF00040F2A31000F07AFB631C03EA0A0305EB22
:102C0000830349EA0B42DA6004EA0A03033315F846
:102C1000232068F3C50205F8232035F8232066F346
:102C2000891225F8232055F8232067F39F2245F8C1
:102C3000232002F0F80242F0010205F823200E4B97
:102C40001B781BB1FFF792FE0028FBD103B0BDE853
:102C5000F08F0AEA010105EB810159F82320CA60CF
:102C60000133B2E7545B0020706B002078D8070076
:102C700008D8070052A30700746B002000231A46EF
:102C8000FFF790BF07B50123019201AAFFF78AFF62
:102C900003B05DF804FB07B5CDE9002302236A46C3
:102CA000FFF780FF03B05DF804FB1FB5CDE90123FA
:102CB000069B039301AA0323FFF774FF05B05DF899
:102CC00004FB1FB5CDE90023069B0293079B0393EA
:102CD0006A460423FFF766FF05B05DF804FB7FB585
:102CE000CDE90123089B0393099B04930A9B059359
:102CF00001AA0523FFF756FF07B05DF804FB0000AB
:102D00002DE9F34780462C4CD01C8A46174601A972
:102D100000228008A568FFF725FDC8B3DDF8049000
:102D2000A66809F10200019001362840361AB60063
:102D30000330B74204EB800034D83A46514607F0DE
:102D400093FA00211D4800F088FB80F3100009F180
:102D500001032B4004EB83034FEA184242EA00428E
:102D6000DA6005EA0903033304EB830214F8231045
:102D700068F3C50104F82310518867F38F1151805F
:102D800034F8232002F0380242F0020224F8232013
:102D90000B4B1B781BB1FFF7E9FD0028FBD102B0FC
:102DA000BDE8F0873246514607F05EFABA1B0AEBDF
:102DB000060104F10C00C2E7545B0020706B002098
:102DC000746B002030B541F21003124AD45800232E
:102DD000214651B9C468237141F21004155955B9FF
:102DE0001051C2681160184630BDC9680D799D4206
:102DF00009D00968EDE7ED68C1682D680D601259CA
:102E0000D2681060EFE701330A2BE1D14FF0FF33B6
:102E1000E9E700BF545B002038B541F21002094BCE
:102E20009C5803F58152012313701D4604B938BD27
:102E3000E3685D71236820465B689847E3681C6817
:102E4000F4E700BF545B002010B5037A052B0C4655
:102E50000FD0437A23B1084A0849204600F0FCFB12
:102E60000749204600F0F8FB2046BDE8104000F07E
:102E7000E1BB002AF8D0F3E7FFA3070037CC070037
:102E800021A4070073B5C38804460D4633B1144A24
:102E900000921449144A284600F0DEFB217A0529E5
:102EA0001CD0637A4BB1A088FFF740FD0F4B10494F
:102EB00053F82020284600F0CFFB227A0D4BA08843
:102EC00053F822600021FFF715FD0B4903463246F7
:102ED000284602B0BDE8704000F0BEBB02B070BD35
:102EE000FFA307000CA4070004A40700CCA307005D
:102EF00037CC070030A4070024A407002DE9F043D5
:102F000085B01F460C9D002306460C46904695F85A
:102F10000C902B7329463846FFF7B4FFB8F1060F23
:102F200009D8DFE808F00412181F283340003146A2
:102F3000284600F091FB002229463846FFF784FF1F
:102F400085F80C9005B0BDE8F0832268314628462C
:102F500000F082FBEFE7D4E900233146284600F079
:102F60007BFBE8E7A36800933146D4E900232846B9
:102F700000F072FBDFE7E3680193A368009331463A
:102F8000D4E90023284600F067FBD4E723690293C5
:102F9000E3680193A36800933146D4E900232846EF
:102FA00000F05AFBC7E76369039323690293E36860
:102FB0000193A36800933146D4E90023284600F02A
:102FC0004BFBB8E708292DE9F84F80460E46174617
:102FD0001C463BD8002593F80C901D7319461046EB
:102FE000FFF750FFDFF88CA0DFF88CB0AE422FD98E
:102FF00018F805205946204600F02EFB0135082D13
:10300000F4D11949194DDFF874B0204600F024FBC3
:103010004FF0000A564522D918F80A207E2A1CD8FB
:1030200012F80B1011F0970F08BF2E2210492046FE
:1030300000F012FB0AF1010ABAF1080FEAD10122ED
:1030400021463846FFF700FF84F80C90BDE8F88F62
:103050005146204600F000FBD0E72E22E6E7294645
:10306000204600F0F9FAE5E7FAA30700F8A3070005
:10307000FCA30700F6A30700F0A30700E9D60700AA
:103080004B1C30B5DB00044612F003009BB20DD19F
:10309000074D2A601A44074B1A60074B1870074BFC
:1030A0001870074B1C80074B198030BD0720FCE7C8
:1030B000186C0020146C0020106C0020206C002084
:1030C0001C6C00201E6C00202DE9F3472B4D2B8833
:1030D0008B4206460C4617464CD34FF000080DF1C4
:1030E00007008DF8078000F095F8254B254A1878E1
:1030F0001178CBB2244909888B4238BF0133C0B262
:1031000038BF5FFA83F840452ED092F800801378DC
:10311000DBB2994286BF0133DBB2002313709DF806
:10312000070000F0A7F84FF6FF73984524D0DFF8AA
:1031300060A0DAF800304FEAC80903EB090243F84F
:103140003870A6B19CB1114B28881B68224608FB39
:103150000030314607F088F8DAF800304B440020A0
:103160009C8002B0BDE8F0874FF6FF78D7E70020DB
:103170009080F6E70920F4E70420F2E71C6C0020B9
:10318000206C0020106C00201E6C0020146C0020AD
:10319000186C0020F8B5124C124D264622782B7878
:1031A0009A4200D1F8BD23780F48104A0788126868
:1031B0000F48DBB219B202EBC10C006852F83120A3
:1031C000BCF8041003FB070090470A4A23781288D2
:1031D000DBB29A4286BF0133DBB200233370DDE7F6
:1031E000206C0020106C00201C6C0020186C00204B
:1031F000146C00201E6C0020EFF30583C3F308035A
:103200002BB9EFF31480C04300F001007047012098
:103210007047000070B50446FFF7EEFF012803D0A9
:103220001049432000F062F8EFF3108672B60E4AA0
:103230009068012398B993600C4B0D4DD3F8801022
:1032400029401160C3F88050D3F8841051604FF0CA
:10325000FF32C3F88420207006B962B670BD2370B7
:10326000FAE700BF95A40700489E002000E100E0B7
:10327000FC06FFBD10B50446FFF7BEFF012803D0D2
:103280000949512000F032F8084B9A685AB154B9F4
:10329000EFF3108172B6064A1868106058685060E3
:1032A0009C6001B962B610BD95A40700489E00203D
:1032B00000E100E030B53AB11368DB430A4D014448
:1032C000814204D1D84330BD4FF0FF33F6E710F808
:1032D000012B5340082213F0010418BF2C46013A79
:1032E00084EA5303F7D1EBE72083B8ED07B5ADF8D7
:1032F000000001916A46002144F2020001F0F2FB55
:1033000003B05DF804FB10B561B1B2FBF3F403FB4D
:103310001424A4B244B9C0E9001484608281C3813A
:10332000204610BD0E20FCE70920FAE782B050E8E5
:10333000022FC188B2EB324F4FF0000317BF92B299
:1033400041EA014142EA014104E04268B2EB324FF6
:1033500008BF012340E80212002AE8D18DF80730A7
:103360009DF80730002B0CBF1120002002B07047E1
:1033700037B550E8013F9DB2C48925448489A542F0
:1033800028BF2D1B0489A54202BFBFF32F8F002247
:1033900007E0C5EA030540E80154002CE9D14FF0ED
:1033A00001028DF803200193019B9DF803200B601F
:1033B00002F0FF0322B10B880068184403B030BD4F
:1033C0001846FBE70A884B889A4209D150E8012F3A
:1033D000C2EA024240E80123002BF7D101207047E6
:1033E0000020704737B550E8023F1FFAA3F5C488A4
:1033F000A54202BFBFF32F8F00220DE0C4892544F0
:103400008489A54228BF2D1BC3EA054540E8025424
:10341000002CE8D14FF001028DF803200193019BAD
:103420009DF803200B6002F0FF0322B14B88006877
:10343000184403B030BD1846FBE70A884B889A420F
:1034400009D150E8022FC2EA224240E80223002BB1
:10345000F7D1012070470020704750E8002F0B463D
:1034600040E8003C9CF0000FF7D11046704750E850
:10347000002F42EA010340E8003C9CF0000FF6D127
:103480001046704750E8003F43EA010240E8002C34
:103490009CF0000FF6D11046704750E8002F02EA6A
:1034A000010340E8003C9CF0000FF6D11046704745
:1034B00050E8003F03EA010240E8002C9CF0000FB6
:1034C000F6D11046704750E8003F03EB010240E898
:1034D000002C9CF0000FF6D11046704750E8003FDA
:1034E000A3EB010240E8002C9CF0000FF6D110463F
:1034F00070470121FFF7BBBF0121FFF7C3BF0021C8
:10350000FFF7CBBF0021FFF7D3BF000010B5044683
:10351000002834D003681BB91A49FF20FFF7E6FEE4
:10352000636823B917494FF48070FFF7DFFEA36883
:1035300023B9144940F20110FFF7D8FEE36823B91C
:1035400010494FF48170FFF7D1FE238A23B90D494A
:1035500040F20310FFF7CAFED4E9012321689B1A49
:10356000DBB20A60013BDBB2FF2B226802D10020F4
:10357000107110BD1168481C10600B70F2E70E202E
:10358000F7E700BFF2A4070037B5054620B9144994
:103590004FF49270FFF7AAFE00240DF107008DF89A
:1035A0000740FFF737FE2A68696813688B4210D915
:1035B000591E116013F8014C2A8AEB6802FB04348F
:1035C0002A68AB6811685B1A1179DBB2994238BF7F
:1035D00013719DF80700FFF74DFE204603B030BD84
:1035E000F2A4070037B50C46054620B9104940F251
:1035F0004710FFF77BFE24B90D494FF4A470FFF785
:1036000075FE00230DF107008DF80730FFF702FE6D
:103610002A681368591C1160EA68A41A2A8AB4FB44
:10362000F2F41C709DF80700FFF724FE03B030BDD4
:10363000F2A4070010B5044618B906493120FFF777
:1036400055FEA2682AB16369216820699847002362
:10365000A36010BD41A507000EB433B5059D044617
:1036600018B911494220FFF741FE63691BB90E49A1
:103670004320FFF73BFE23681BB90B494420FFF7AB
:1036800035FE63681BB908494520FFF72FFE35B1A9
:1036900006AB01AA29462046019300F077F802B054
:1036A000BDE8304003B0704741A507000A2938B58E
:1036B00004460D4602D10D21FFF7F8FFA3682268EA
:1036C000591CA160D554D4E901329A4204D3204652
:1036D000BDE83840FFF7AEBF38BD00002DE9F84F18
:1036E0009946DDE90A431746824688460A4601267E
:1036F000BA420FD24E4538BF4E4613F0010B01D1EE
:1037000064B900240125B9F1010F1AD909F1FF3973
:103710007D43F8E7B2FBF7F20136E9E79B070ED5E8
:10372000B9F1000F0CBF30252025A642EAD2013C9A
:1037300029465046FFF7BAFF002CF6D1E1E72025D5
:10374000F3E7B8FBF5F39F42E2D9DFF83C90B8FB12
:10375000F5F3504619F8031005FB1388FFF7A6FF91
:10376000B5FBF7F3BD4207D2BBF1000F02D00CB19D
:10377000A64203D3BDE8F88F1D46E8E72021504656
:10378000013CFFF793FFF2E786A507002DE9F74F0D
:1037900088461746054620B9A84940F25220FFF74F
:1037A000A5FD6B6923B9A5494FF41570FFF79EFD80
:1037B0002B6823B9A14940F25520FFF797FD6B68AC
:1037C00023B99E4940F25620FFF790FDB8F1000F53
:1037D00000F0308118F8011B49B92B7B002B00F059
:1037E0002981284603B0BDE8F04FFFF723BF252904
:1037F00040F0C080002698F800302D2B424608F19A
:10380000010823D0302B24D02B2B25D000242A2BA9
:1038100002F1010123D13B681A1D3A601B680A4678
:103820001C4413782E2B26D101324FF0000910468C
:1038300010F8011BA1F1300CBCF1090F1DD80A23AF
:1038400003FB0913A3F130090246F0E746F0010635
:10385000D1E746F00206CEE746F00406CBE711F8C2
:10386000013CA3F130000928DBD80A2202FB043412
:10387000303C0A46CBE74FF0000912F8011B01F07B
:10388000FB0068289046F8D069290ED04AD85829FC
:1038900064D006D825296DD098F80030002B99D136
:1038A0009BE7632962D06429F6D13A68111D39601B
:1038B000D2F800A08AEAEA72A2EBEA724FF0010B9A
:1038C000092A5BDCCB4538BFCB462CB1BAF1000FDF
:1038D00001DB720700D5013CB30702D5B9F1000F37
:1038E00004D0F00702D4002C4ED10024BAF1000F0E
:1038F00052DACAF1000A2D212846FFF7D7FE06F05A
:103900000302022A05D1B9F1000F02D1002C47D1E0
:103910000024CDE900464B460A2251462846FFF7CF
:10392000DDFEB9E773294CD014D87029B4D13B68B7
:103930001A1D3A60302128461C68FFF7B7FE78212F
:103940002846FFF7B3FE00220823CDE900322146C6
:103950001022E3E775292BD078299DD139680A1DFB
:103960003A60CDE900464B46102228E03B681A1D1C
:103970003A6019782846FFF799FE8DE70A230BF184
:10398000010BB2FBF3F29BE7A345AFD220212846FF
:10399000013CFFF78BFEA6E77107B0D52B21ABE703
:1039A000A345B6D230212846013CFFF77FFEADE7A4
:1039B0003968CDE900460A1D3A604B460A2209687B
:1039C000ACE73B681A1D3A6016F00106D3F800A078
:1039D00020D1BAF1000F03D0504606F063FC064632
:1039E000B44200D9C4B90AF1FF3A1EE028460136B4
:1039F000FFF75CFE1AF806100029F7D1A642BFF4C3
:103A00004BAF002C3FF448AF20212846013CFFF784
:103A10004DFEF3E70026EDE720212846013CFFF7A5
:103A200045FEDDE72846FFF741FE1AF8011F002991
:103A3000F8D131E703B0BDE8F08F00BF96A50700CD
:103A400070B50D461646044618B908495520FFF7CB
:103A50004DFC1DB905495620FFF748FC25602B6831
:103A600031462046BDE87040184700BFE2A5070078
:103A70002DE9F041DDF818800E4617461D46044634
:103A800018B922498820FFF731FC1FB91F49892046
:103A9000FFF72CFC23681BB91C498A20FFF726FC82
:103AA00045BB1A498B20FFF721FCB20703D0174909
:103AB0009120FFF71BFCBB0703D014499220FFF7AE
:103AC00015FCE3689E4204D3731E22692B44934283
:103AD00003D90E499320FFF709FC2368CDF818801D
:103AE000D3F80CE03A462B4631462046F446BDE872
:103AF000F041604763685A68B5FBF2F302FB135369
:103B0000002BD2D001498E20CDE700BFE2A50700EF
:103B10002DE9F0410D4616461F46044618B91949CD
:103B20009E20FFF7E3FB23681BB916499F20FFF790
:103B3000DDFB1EB91349A020FFF7D8FB63681B68A3
:103B4000013B2B4203D00F49A320FFF7CFFBE368D3
:103B50009D4207D363681B686A1E03FB0623226924
:103B6000934203D90749A820FFF7C0FB2368D3F885
:103B700010E032463B4629462046F446BDE8F04177
:103B8000604700BFE2A5070070B508B10368ABB994
:103B90000C4D0D4C0026641B1423B4FBF3F4B4420B
:103BA00001D1002009E02B6813B901361435F6E77E
:103BB000DB69284698470028F7D070BDDB69BDE86F
:103BC00070401847105A0020245A0020014B4360CF
:103BD0000020704744A60700084670470020704741
:103BE000024B1868003018BF01207047246C002079
:103BF00008B50248FFF786FC002008BD246C0020B1
:103C000008B510461A4606F02FFB002008BD00003C
:103C10002DE9F043814687B014480F461646984672
:103C2000FFF767FC0446F0B90546AE4215D10F48D0
:103C3000FFF768FCD9F808305BB102228DF800204C
:103C40000022CDE90127CDE90326CDF8148068468E
:103C50009847204607B0BDE8F08307EB053000F039
:103C600071FC0135E1E71124F3E700BF246C00206B
:103C70002DE9F041804686B011480F4616461D4694
:103C8000FFF737FC0446C8B9AA083146384600F0A9
:103C900087FC0B48FFF736FCD8F8083053B10122F7
:103CA0008DF800200C9A0592CDE90147CDE9036516
:103CB00068469847204606B0BDE8F0811124F9E730
:103CC000246C002029DF704728DF704770B5056835
:103CD000AB6886B004460E4673B1142200216846D4
:103CE00006F0D0FAA36805932379019633B1012B2E
:103CF0000ED0AB686846984706B070BD01238DF8BA
:103D0000003023690293E368039363690493F0E747
:103D100002238DF80030E3681B030293F5E70846A1
:103D20007047002070470000024B187A003018BF1F
:103D300001207047146E0020034B187A0122B0FA5C
:103D400080F05A7440097047146E002008B5104680
:103D50001A4606F089FA002008BD000008B51422B2
:103D60000021044806F08EFA0348FFF7DFFA00202E
:103D700008BD00BF146E0020046E002010B5094C71
:103D8000094B43602046FFF7B4FB48B905F0C8F87B
:103D90001C2320744FF4EE7204490548FFF7B3FA70
:103DA000002010BD146E002070A60700286C0020B3
:103DB000046E002070B5234C234E237A25463BB970
:103DC00022492348FFF70EFB306008B9606070BDE0
:103DD000022334682B72237973B1012B22D0204641
:103DE0000321FFF773FF00232B726B6017491848FC
:103DF000BDE87040FFF721BBD4E90523D21A142A8D
:103E000028BF1422D4E903109208012A38BF0122E6
:103E100019441844FFF756FF50B11128DFD1012390
:103E20002B72D4E7D4E903031844FFF74DFFF3E7FF
:103E30002B7C002BCBD10146BDE87040022000F066
:103E400009B800BF146E00202C6E0020286E0020E0
:103E5000046E002038B5831E012B43D8224C237AF0
:103E6000002B3FD0022B09D103282ED01F4B00225C
:103E70001B68E2601A793AB1012A20D0637C6BBBDF
:103E8000BDE83840FFF796BFD3E905128D1A142D0F
:103E900094BF521914329A619142EFD102284FF027
:103EA000000308BF19462372104B18BF0D21186874
:103EB000FFF70CFF0E490F48FFF7BFFADEE71A695C
:103EC00001321A615B699A42E7E7E3680133082B24
:103ED00001D8E360D2E70023E360DFE7BDE83840C4
:103EE00005F00EB838BD00BF146E00202C6E002007
:103EF000286E0020046E002000F0FD03012B08D185
:103F0000044B00225A74421E504250411874FFF76D
:103F100051BF7047146E002010B5064C201DFFF7EE
:103F2000E8FA28B9637C1BB9BDE81040FFF742BF2F
:103F300010BD00BF146E00202DE9F34180460D46F0
:103F40000F4801A916461F46FFF712FA0446A8B10A
:103F50001C22002106F096F92D0B0123237101A9E3
:103F6000C4F80080A760E56066610548FFF72AFA9B
:103F7000FFF7D2FF002002B0BDE8F0810420FAE78D
:103F8000046E00202DE9F74381468846104801A9B8
:103F900017461E46FFF7ECF90446B0B11C2200217B
:103FA00006F070F900250A9BA36001A92571C4F8E9
:103FB0000090C4E9037866610548FFF703FAFFF74C
:103FC000ABFF284603B0BDE8F0830420FAE700BF4A
:103FD000046E00202DE9F74F99469DF8303001938B
:103FE00088461746054618B92249B620FFF77EF9DC
:103FF000EA8895F805B00BFB02FBABF1040BCB454F
:1040000003D81C49C420FFF771F93E68B5F806A033
:1040100006EB09025A4509F1040188BFABEB09061A
:10402000B1FBFAF43E600AFB141144B9AAEB010794
:10403000B74228BF37462EB903B0BDE8F08F2D68D0
:10404000013CF2E7019A043108EB0403681872B1ED
:1040500001463A461846F61B06F006F9B2453C44BE
:104060002D6857464FF0000128BF3746E3E73A4630
:104070001946F0E79CA60700FFF748BAF8B546795D
:104080000146721E0546002393422D6803D3002487
:10409000A64202D8F8BD0133F6E70F682846FFF7BD
:1040A000A1FA01343946F3E72DE9F843CD1C068A1D
:1040B0000746FFF769FA043E35440446B5FBF6F5BA
:1040C000F0B14FF48073EDB28380C680013D07608C
:1040D00081464FF00008A84512D23846FFF754FA3F
:1040E000064648B163790133637108F10108C9F8E4
:1040F000000007608146EEE72046FFF7BFFF344629
:104100002046BDE8F88301210430FFF7DCB910B583
:10411000012104460430FFF7E1F910F0FF0F04D14C
:104120002046BDE81040FFF7A9BF10BD1FB51446DB
:1041300003920022009203AAFFF74CFF039BA342C5
:1041400003D00349F620FFF7D1F804B010BD00BF3B
:104150009CA607001FB5144603920122009203AAF1
:10416000FFF738FF039BA34204D003494FF480704C
:10417000FFF7BCF804B010BD9CA6070082680023BE
:10418000936082681361826853618268D360826839
:10419000536082681360704738B50D46044618B9FD
:1041A00008495020FFF7A2F81DB906495120FFF732
:1041B0009DF825602B6863606A68934204BF002302
:1041C000636038BDEBA6070010B5044618B90B496B
:1041D0006320FFF78BF823681BB908496420FFF7B9
:1041E00085F8636843B1226891680B446360526844
:1041F000934204BF0023636010BD00BFEBA607001D
:1042000010B50D49A1F59472914201D800200FE03C
:104210008B1ADB1003EBD3735B1002EBC30452F871
:104220003330834205D802D204F10802ECE760681B
:1042300010BD2146E8E700BF90A8070008B5FFF7CA
:10424000DFFF024B002808BF184608BD53A7070030
:104250002DE9F04FC9B008AA01F1400514464B788A
:104260000E781B0443EA0663CE7833438E7804311C
:1042700043EA06238D4244F8043BF0D11024916BAD
:1042800016464FEAF14383EA714383EA9123716A48
:10429000366852F8045F31440B444FEAB54181EA75
:1042A000F51181EAD50101340B44402CD363E6D1EA
:1042B000D0E914E30093836D0193C36D0293036E01
:1042C0000393436E0493836E0593C36E0693DDE9F7
:1042D000057BDDE9031CDDE901592B4B009E0793AB
:1042E00074464FF00008079B53F8042B07934FEADE
:1042F000F12383EAB11383EA716A08AB53F82830DB
:104300001A440AEB020327EA010A01EA0C028AEACC
:1043100002021A444FEA743A86EA05035A448AEACA
:10432000B40A06EA050B234083EA0B038AEAB45A6F
:1043300008F101089A44B8F1400F02EB0903BB46AB
:104340005244A94619D172440265009A224442653A
:10435000019A32448265029A2A44C265039A1A4439
:10436000049B02660B444366059B63448366069B7D
:104370003B44C36649B0BDE8F08F674635468C467E
:10438000264619461446AEE74CAC070030B5E0B1FE
:104390000F4A104900240025C0E91245C0E9141253
:1043A0000D4C0E4A0E4DC0E916420E4AC0E9185295
:1043B0000D4A826602F17452A2F523020023A2F68E
:1043C00092420364C266184630BD0E20FCE700BF6F
:1043D00085AE67BB67E6096A72F36E3C3AF54FA596
:1043E0007F520E518C68059BABD9831FF8B50446EC
:1043F000F0B10AB90020F8BDD1B10D468E180027E2
:10440000B542F7D0236C15F8012BE2540133402B51
:104410002364F5D121462046FFF71AFFD4E9123173
:1044200013F5007341F10001C4E912312764E7E795
:104430000E20E0E770B50D4616460446002877D0FA
:10444000002975D0026C8021372A02F101038154C2
:104450004FF0000242D8382B3BD1D4E91223206C14
:104460000821E1FB0023104612BAE2631A0A19463A
:1044700084F83B3084F83A201A0C1B0EC4E9120170
:1044800084F83920214684F838302046FFF7E0FED2
:10449000691E76B30023E26EDA4001F8012FA26EA6
:1044A000DA400A71626EDA400A72226EDA400A73EA
:1044B000E26DDA400A74A26DDA400A75626DDA4084
:1044C0000A76226DDA400833202B0A77E3D10020E8
:1044D00070BDE2540133BEE7E25401333F2BFBD9F8
:1044E00021462046FFF7B4FE3822002105F0CAFE1F
:1044F000B3E71823226DDA4001F8012F626DDA402C
:104500000A71A26DDA400A72E26DDA400A73226E15
:10451000DA400A74626EDA400A75A26EDA400A76F0
:10452000E26EDA40083B13F1080F0A77E2D1CEE7DA
:104530000E20CDE7024AD2F80034002BFBD07047A2
:1045400000E001400A4908B50223C1F80435BFF371
:104550006F8FBFF34F8FC1F80805FFF7EBFF002304
:10456000C1F80435BFF36F8FBFF34F8F08BD00BF95
:1045700000E0014010B5094C0123C4F80435BFF335
:104580006F8FBFF34F8F0160FFF7D4FF0023C4F894
:104590000435BFF36F8FBFF34F8F10BD00E00140B4
:1045A0000E4B10B50124C3F80445BFF36F8FBFF362
:1045B0004F8F01EB8204401AA14208D1074B002221
:1045C000C3F80425BFF36F8FBFF34F8F10BD43189F
:1045D00051F8042B1A60FFF7ADFFEDE700E0014052
:1045E00043689B68184708B5436808305A7900F05B
:1045F0001FFA002008BD2DE9F0430D469BB0084688
:1046000099469046FFF7ECFF6E6874794C4528BFD9
:104610004C4607462246414602A800F0EDF9727961
:1046200022990AA800F004FA00970AAB224602A9D0
:1046300005F1080005F06AFC002848F2425018BF56
:1046400000201BB0BDE8F083024940F2CD10FEF718
:104650004DBE00BF9DAD0700032810B5044603D929
:1046600008494120FEF742FE074B1C5D1F2C01D973
:10467000FFF7EAFF01234FF0A042A340C2F80C3538
:1046800010BD00BF58AD070099AD0700032810B555
:10469000044603D908494720FEF728FE074B1C5D56
:1046A0001F2C01D9FFF7D0FF01234FF0A042A340F8
:1046B000C2F8083510BD00BF58AD070099AD07001E
:1046C00008B50020FFF7E2FF0120FFF7DFFF02201F
:1046D000FFF7DCFF0320BDE80840FFF7D7BFC207A4
:1046E00010B504460CD54FF0A0430322C3F8602751
:1046F000C3F85C27C3F85827C3F86427FFF7E0FF27
:10470000A30706D5FFF7A0FF4FF0A0430C22C3F884
:10471000FC2710BD38B1054B0360054B43600123F6
:104720000372002070470E20704700BF5B470700F0
:104730003547070069B10B78022B0CD1022804D051
:1047400003280CBF11200820704703230B700020A2
:1047500070470E2070470820704710B50C4681B195
:104760000B78042B04D8DFE803F00E05030E0E00CF
:10477000112010BD03F00CFA0028FAD10223237097
:10478000F7E70E20F5E70820F3E7000070B5144BBB
:10479000144A0C21D21AB2FBF1F2816911F8025CC1
:1047A000044635B900690021914205D101232360F7
:1047B0000EE04FF0FF30F6E71E68AE420CD1461C0B
:1047C00007D19D68D4E90001D4E90223A8472060FD
:1047D00070BD5E688642F4D001310C33E4E700BF5F
:1047E000FCD7070008D807001EF0040F0CBFEFF33A
:1047F0000880EFF30980FFF7C9BF00BF28B139B1C6
:104800000023C1E900301846704748F21050704745
:1048100048F21350704730B1036848F240508B4261
:1048200008BF0020704748F21050704728B148F286
:104830001150914208BF0020704748F21050704755
:1048400070B506460C461D46FFF7D8FF50B9B37940
:104850004AB1AB420AD111462046FFF7C4FE08B95F
:10486000044B236070BD48F21050FBE748F2115032
:10487000F8E700BF7052464D2DE9F0470C46074659
:104880000F49204615469846DDE90869FFF7C3FF42
:1048900098B963685A79494652003046FFF7C6FF17
:1048A00058B945B1089643462A4621463846BDE8E0
:1048B000F047FFF7A0BE48F21050BDE8F08700BFF8
:1048C0007052464D10B5044638B149B141600B688D
:1048D000984708B9044B236010BD48F20150FBE72C
:1048E00048F21050F8E700BF6E524648F0B4134645
:1048F00048B10768094EB7420AD161B12AB143688D
:10490000F0BC5B68184748F201531846F0BC70478A
:1049100048F20253F9E748F21053F6E76E52464860
:10492000F0B460B107680C4EB7420CD171B1436866
:104930001568DC68A5420CD39B68F0BC184748F2A8
:104940000150F0BC704748F20250FAE748F21350A9
:10495000F7E748F21450F4E76E5246482DE9F0416B
:10496000044617469846DDE90656FFF7ABFF60B9E7
:10497000424639462046FFF7B9FF30B9324629464C
:104980002046BDE8F041FFF7CBBFBDE8F081000055
:10499000F8B50A4F0A4C0B4DE41B0121E4082970BD
:1049A0000026A64203D102232B700020F8BD57F841
:1049B000363098470028F9D10136F2E7F4D70700DE
:1049C000F4D70700306E002038B50D46044618B9FC
:1049D00008493320FEF78AFC691E214420468142A3
:1049E00000D238BD03780A7800F8012B01F80139AC
:1049F000F5E700BFDFAD070070B50D46144606466B
:104A000018B90A494520FEF771FC1DB9074946202F
:104A1000FEF76CFC621E3244013DB24200D270BD12
:104A200015F8013F02F80139F7E700BFDFAD0700D5
:104A300070B5164604460D46FFF7DEFF3246A9194B
:104A4000A019BDE87040FFF7D7BF38B50D46044642
:104A5000FFF7BAFF29466019BDE83840FFF7B4BF39
:104A600008B5072812D8DFE800F0040C1111110472
:104A700011040120FFF733FE0020BDE80840FFF7D6
:104A8000EBBD0020FFF702FE0220F6E708BD0000A4
:104A900008B5FEF7C1F9FDF769FF0028FBD10D4D00
:104AA000642445F001054FF47A40A847013CFAD14F
:104AB000094B1B68DB0700D500BEBFF34F8F0749CA
:104AC000074BCA6802F4E0621343CB60BFF34F8F19
:104AD00000BFFDE7D0AE0700F0ED00E000ED00E024
:104AE0000400FA0507B5074B074C0092E41AE408E6
:104AF00024040B460246054944F00100FEF7D5F8B0
:104B0000FFF7C6FF08D8070008D8070078AE0700EF
:104B100008B5064A064B07499B1ADB081B040246E8
:104B200043F00100FEF7AEF8FFF7B2FF08D8070028
:104B300008D80700AFAE070010B500F013FF002241
:104B400010464FF4805100F0DDFA024608B1FFF73D
:104B5000DFFF1548C0F5FC2100F0D4FA014600281B
:104B6000F5D11248124CFDF7A3FEFDF7C5FD114B20
:104B70001149E41AE408240444F00300FEF77EF827
:104B80000E4800F061F90028E1D1FDF7EFFE0028A2
:104B9000FBD10B4944F00100FEF770F8FDF7E6FE8B
:104BA0000028FBD1D3E700BF00200700995407007D
:104BB00008D8070008D80700D6AE0700614A0700EA
:104BC000E2AE07000369C1688B429DBF8268D218BC
:104BD00002F1FF3203F1FF3394BF501A581A7047A5
:104BE0002DE9F041D0E9027405463E1B406896422B
:104BF00020448846144404D905F036FBEC60BDE837
:104C0000F0813246E41B05F02FFB224608EB06013B
:104C10006868F1E72DE9F843C568064689461746F6
:104C20004FF000083469B3687068A54228BFE418E3
:104C3000013C621B5C1BBC4228BF3C46944228BF1F
:104C4000144649462844224605F00EFBB368254425
:104C5000AB4208BF00253F1BA044A144F560E1D151
:104C60004046BDE8F883000010B5114C114AA2611E
:104C70000223C4E90433104BE361A2644FF4805370
:104C80000E4A2362E264002310220D49A362E01D54
:104C90006362E362A3656365E365226505F0FAFA82
:104CA0000849204605F0F6FA2023A37110BD00BF85
:104CB000549E002007AF0700416E0020316E002097
:104CC00010AF070014AF0700F8B5184C182300FB0D
:104CD000033503FB00402544C46A012C0F461646E9
:104CE00011D024B1022C1BD000242046F8BD284648
:104CF000FFF768FFB042F8D3324639462846FFF73F
:104D00006FFF3446F1E72846FFF75CFF86423446E2
:104D100028BF0446224639462846FFF761FFE4E7EC
:104D20002846BDE8F840FFF775BF00BF549E00203D
:104D3000FFF79ABF41DF7047014B01221A7070479D
:104D40006482002008B5FEF767F8FDF70FFE002823
:104D5000FBD1BFF34F8F0549054BCA6802F4E062EF
:104D60001343CB60BFF34F8F00BFFDE700ED00E0C2
:104D70000400FA0508B50948094B0A49C01AC008D9
:104D8000000440F00400FDF779FF074B07480022BC
:104D90001A70BDE8084002F0B5BE00BF08D8070091
:104DA00008D807001BAF070064820020454D0700AC
:104DB00008B50748074B0849C01AC008000440F06E
:104DC0000300FDF75BFFBDE80840FFF7D3BF00BF5E
:104DD00008D8070008D8070031AF0700831E10B5B8
:104DE0000446052B09D8DFE803F0120303080F0F70
:104DF00009494FF4701000F00FFB084B1B684BB1D2
:104E00002046BDE810401847FFF7B4FFF5E702F071
:104E10005DFDF2E710BD00BFB14D070068820020C4
:104E200008B50648064B0749C01AC008000440F000
:104E30000400FDF723FF002008BD00BF08D80700CD
:104E400008D80700FCB00700F8B5754B754C7649DB
:104E5000E41AE408240444F0040705463846FDF744
:104E60000DFF724B724A1D604FF0A0430020C3F843
:104E70007C2702F05DFE48B900F08AFC012800F0B2
:104E8000C48041B221B1022800F0C7800320F8BDE0
:104E90004FF08043D3F8005415F4803551D04FF4CF
:104EA0008032C3F800240D46624E336A012B5BD07A
:104EB000614944F00300FDF7E1FE60493846FDF723
:104EC000DDFE4FF4701400F0A7FD5D4A202118208C
:104ED000FEF7D6F808B1FFF71BFE5A4B1A6802F02E
:104EE000F802B02A06D11A68D20742BF1A6802F047
:104EF0004E021A604F4B9A6D012A06D10020986528
:104F000002F0A2FD08B1FFF703FEFFF789FF0028BA
:104F1000BCD120464C4900F07FFA4C4801F0B0FA71
:104F20000028B3D14A493846FDF7A8FE00F0BAFD83
:104F3000FEF730F9FDF71AFD0028F7D1FFF7FAFE6A
:104F4000F4E7D3F8202502F0F802A82A0AD1D3F812
:104F50002025D10706D5D3F8202502F05602C3F844
:104F60002025A1E701259FE743F204031A68394B86
:104F70009A420FD1726B1DB996F86032012B09D09D
:104F80004FF48051344803F02BFC18B9334944F0F6
:104F9000020090E702F0DAFEB26901461DB996F808
:104FA000A132012B05D02E4803F01AFC08B92D4977
:104FB000EDE72D493846FDF761FE4FF0A043D3F8E9
:104FC0001035002B01DB294978E71E4B1B6813F0D5
:104FD000B10F01D0264971E7B36D012B01D12549ED
:104FE0006CE702F00DFE00287FF450AF224D2870D0
:104FF000224802F087FD2B7823B921494FF4017034
:10500000FEF774F900F040F801E0FFF7B3FE1D4928
:1050100044F00100FDF732FE38E74FF4A02452E7D8
:1050200008D8070008D8070045AF070068820020AD
:105030000C000300CC9E00205CAF0700FAAF070015
:10504000447E00201C050040B14D0700DD4D0700E7
:1050500095B00700DBE5B1512CA100208AAF070015
:105060006DA10020C5AF0700EDAF07001DB0070020
:105070003CB007005DB0070064820020394D070096
:10508000A5B0070089B0070070B5184B184C194D32
:105090001949E41AE408240444F004064FF4805249
:1050A0003046FDF7EFFDD5F8802014493046FDF776
:1050B000E9FD4FF0FF33C5F88030C5F88031C5F801
:1050C0008430C5F8843102F0C7F820B10C4944F0AF
:1050D0000100FDF7D3FDFDF749FC0028FBD14FF49B
:1050E0008050BDE8704000F039B800BF08D8070014
:1050F00008D8070000E100E016B107004CB1070036
:1051000076B107000346C1F30B0070B520BBB3F5C1
:10511000FE2F21D81B0B013903EB113101264FF073
:105120008044994200D270BD03F01F025D0906FA67
:1051300002F2032D05D8DFE805F00206090CC4F8D9
:1051400000260133EDE7C4F80426FAE7C4F8102678
:10515000F7E7C4F81426F4E70720E4E738B5044677
:1051600027480022C0F5FE21FFF7CCFF054668B1B5
:10517000244B25482549C01AC008000440F001000E
:105180002A46FDF77FFD2846FFF7C2FC02F0DEFD50
:105190001F4B996901F6FF7121F47F61002221F014
:1051A0000F0101441046FFF7ADFF054668B1154BEE
:1051B00015481849C01AC008000440F001002A46EA
:1051C000FDF760FD2846FFF7A3FCEFF305820023FF
:1051D000D4E9005483F3148883F3108883F311888F
:1051E00083F31388C2F308021AB10B496E20FEF74D
:1051F0007DF885F308884FF0FF339E46204738BD81
:105200000020070008D8070008D80700ABB1070046
:10521000CC9E0020E2B1070016B2070073B5274B01
:1052200006462748C01AC00800040C4632462549E5
:1052300040F00400FDF726FDB4F1807F39D3224908
:105240008F20FEF753F86FF07F43204AA34228BF18
:105250002346D2F80455E41A1D44631E942B96BFCE
:10526000963474607460347B25F07F4598BF963D1A
:10527000032C03D914497720FEF738F8134E04F5B0
:10528000A8734FF4F86046F82350114B43F0010324
:105290009847104BA200134400221A601B68019328
:1052A000019B4FF4803303FA04F4C6F8044302B0C0
:1052B00070BD952CC7D804499020C2E708D80700D4
:1052C00008D80700B6B20700CCB207000040024081
:1052D000B0B207004041024018490A7884B0002A61
:1052E00029D14FF08043A020D3F81834DB035EBFF0
:1052F000134B01221A60134A0023136012680392B1
:10530000039A114A136012680292029A0F4A1360BC
:1053100012680192019A0E4A82F82403102050600C
:105320000C4A0D48C2F808350123036002201360BF
:10533000C2F804030B7004B0704700BF70820020F5
:105340000800004000410240404102404441024008
:1053500000E100E000400240084002402DE9F74330
:10536000234B1A6842B123490A6801320A600022BD
:105370001A601B680093009B1F4D204B204C214E50
:10538000DFF88C80DFF88C901F4FED1AED082D04AC
:1053900045F004053368CBB10023336033680193D3
:1053A000224641462846019BFDF76CFC227B1749AB
:1053B0004FF480339340C9F8083322462846FDF75E
:1053C00061FC616851B12046FFF728FF0436BE42F8
:1053D00004F11004DED103B0BDE8F083A16811B17F
:1053E0002046FFF71BFF2368002BEFD09847EDE71F
:1053F000044102406C82002008D8070008D807004A
:105400007459002040410240484102408FB20700D9
:105410007DB2070000400240F8B5114B114E044622
:1054200011483768C01AC00800043A460D4640F0DB
:1054300004000E49FDF726FC3A7B4FF4803393407D
:105440000B4AC2F808334CB13668FFF745FF3560A8
:1054500021463046BDE8F840FFF7E0BEF8BD00BF8A
:1054600008D807009459002008D807007DB207002B
:105470000040024070B5074B1C680E46A060054610
:10548000FFF72AFF266029462046BDE87040FFF757
:10549000C5BE00BF98590020034A044B1068D3F8DA
:1054A000043503EB006070476C820020004002402E
:1054B000014B01221A707047718200202DE9F341DF
:1054C000274FFA6A7E6ABC6CAC2A31D17B6B1C44D4
:1054D000F61A244B244D0096ED1AED082D0445F0E4
:1054E00004082346214A22494046FDF7DEFBFB6AB9
:1054F000AC2B23D0324621461C4804F0A7FE28B32B
:10550000334622461B494046FDF7C5FBFDF72EFA00
:105510000028FBD100F0C6FA2046314601F07EFE9D
:105520000446C0B1144945F00100FDF7A7FB12E0A5
:10553000002CCED102F020FC0446CAE73246A4F586
:1055400080410A4804F082FE0028D3D10B4940462E
:10555000FDF794FB0024204602B0BDE8F08100BFB7
:10556000CC9E002008D8070008D8070000200700BC
:105570002EB3070063B30700C7B3070090B307005B
:105580002DE9F04F3B4B17463B4A9B1A87B0DB088F
:105590001B040493814243F00403054689460393A8
:1055A00008D136491846FDF769FB0024204607B0AC
:1055B000BDE8F08F03D232494F20FDF797FEC5F3C7
:1055C0000B031BB12E495120FDF790FEA9EB0503FB
:1055D000B3F5805F4FEA133B03D229495420FDF70E
:1055E00085FE00F019FABBF1080F28BF4FF0080B39
:1055F00007F6FF784FEA0B334FEA183805930FB9D7
:105600003C46D3E7C3452CBFC246DA464FF0000202
:10561000514628462CBF3E46059E01F0B9FD044682
:105620000028C3D12B464A46164903980096FDF739
:105630003CFBF21C234622F003024946284601F0B7
:1056400069FD04460028B1D10F4A136BBF1B3544D6
:10565000B1441E44166302F05BFAA8EB0A08044644
:105660000028CCD0049B094943F00100FDF706FB5C
:105670009CE700BF08D8070008D80700E1B307007F
:10568000F0B3070055B40700CC9E002076B40700A5
:105690002DE9F04702F080FB344C354BDFF8ECA0ED
:1056A0003449DAF84880DAF83050DAF83470E41A1D
:1056B000E408240444F0040906464846FDF7DEFAEF
:1056C00042F2040358F8032003F1A34303F5471300
:1056D00003F2D7539A4208D0274944F00100FDF75E
:1056E000CDFA03252846BDE8F087DAF83030BB4212
:1056F000984405D121494846FDF7C0FA0025F1E755
:10570000E3B94FF4405248461278142A81BF43F25D
:1057100014021B491268B2FBF1F208F5005198BF60
:105720001A460978142981BF42F2140358F803106D
:10573000134BB1FBF3F31349FDF7ADFA7A1B02F6F5
:10574000FF7222F47F62701922F00F024146FFF7C8
:1057500017FF054628B10C4944F00100FDF78EFA09
:10576000C0E7BDE8F04702F0D3B900BF08D8070092
:1057700008D807007CB60700A1B60700D5B6070019
:1057800040420F00E7B6070010B70700CC9E00208C
:105790002DE9F0475C4B5D4C5D4F5E49E41AE4082F
:1057A000240444F004084046FDF768FAFB6AA52B80
:1057B00000F0858009D8012B20D044F00300564921
:1057C000FDF75CFA0020BDE8F087AA2B00F082808C
:1057D000AC2BF2D151494046FDF750FA50494046B2
:1057E000FDF74CFAFFF754FF054600287BD04D49E2
:1057F00044F00100FDF742FA012620E04A49404604
:10580000FDF73CFA7E6AD7F8489002F09FFA3D6BAC
:10581000464900EB050A4046FDF730FA396B49442A
:105820008A4514BF721B00225046FFF7A9FE0546A9
:1058300068B13F4944F00100FDF720FA0026FB6AF9
:105840003C492A4644F00100FDF725FA12E002F037
:105850007DFA2A463146FDF72DFDBA6A904281460F
:1058600026D135494046FDF709FA0123C7E90793D8
:10587000BE612E463148324D02F05CFA00233148B9
:105880002B7002F045F92B78814623B92E494FF44D
:10589000D170FDF72BFDB9F1000F2CD196B33B6A07
:1058A000012B2FD140462949FDF7E8F902208AE76C
:1058B0000346274944F00100FDF7EDF9D9E72549F2
:1058C0004046FDF7DBF9FFF7E3FE01260546002D14
:1058D000D0D0B4E720494046FDF7D0F9FFF7EEFD00
:1058E00000260546F3E7FFF7E9FD054608B11B4929
:1058F0007EE70126BEE744F001001949FDF7BEF935
:10590000032060E701205EE708D8070008D80700F9
:10591000CC9E0020AFB40700BBB5070064B50700FC
:1059200072B507008FB50700D0B40700DAB40700DE
:1059300010B70700D4B50700F5B40700F09E0020AB
:1059400071820020B1540700F0B3070006B60700CB
:105950000AB5070052B507005BB50700A5B50700FB
:1059600062B6070008B540F6F8700368013302D14B
:105970000749FEF7FFFD40F6FC700368013305D1CF
:105980004FF4FC21BDE80840FEF7F4BD08BD00BFA0
:10599000002007000A4AD2F800347BB109480023EE
:1059A000D2F80815D940C90748BF03F5C07103F103
:1059B000010348BF42F82100072BF1D1704700BF17
:1059C000000001403546526E08B50748074B0849AC
:1059D000C01AC008000440F00300FDF74FF9BDE80D
:1059E0000840FFF7D7BF00BF18D8070008D8070046
:1059F0009AB7070007B5074B00221A601B6801938E
:105A0000019BFDF709FAFCF7B1FF0028FBD103B0B9
:105A10005DF804FB0001014070B5194E33784BBBB3
:105A2000184C1949194B641AE408D3F800242404CB
:105A300044F00304FAB1D3F8045515492A46204628
:105A4000FDF720F940F616539D42B8BF1D46A5F557
:105A50004865FFF79FFF2A460E492046FDF712F9D9
:105A60000D492846FFF706FD0C4B4FF480321A60B3
:105A70000123337070BD0A492046FDF7FFF8F7E7B0
:105A80007282002018D8070008D8070000000140E3
:105A900029B7070042B70700C959070000E100E035
:105AA00074B70700034BD3F800340BB1FFF772BF94
:105AB000704700BF000001400023C0E90232C0E986
:105AC00000118B881A440261B1F906301A44426110
:105AD0000888003018BF0120704710B5426811884F
:105AE0000346002939D002F110014160148A2CB913
:105AF000C2680168FFF7E0FF204610BD9078118969
:105B000000F03004302C1BD1947C04F03004302C95
:105B10001DD190881969091A19610021907810F037
:105B2000300F02BF986801309860908A0844196964
:105B300001441961B2F91620114459610120DCE7D2
:105B400000F0F004202C02D150894143E6E700F038
:105B5000C000802808BF0421E0E70846CDE770B503
:105B6000456804460E4663681A88B24204D19B78A1
:105B700003F00F03082B07D12046FFF7AEFF636841
:105B8000AB42F0D1002070BD0120FCE743681A440D
:105B9000426011B101399A4201D10120704713F8D6
:105BA000010B01F8010FF6E72DE9F3418368044684
:105BB000884623B90027384602B0BDE8F081036863
:105BC00001220DF10701984707460028F2D0A3688B
:105BD0009DF80750013B2A06A3601AD505F07F0502
:105BE0000726A368002BE5D0236801220DF10701E9
:105BF000204698470028DDD0A3689DF80720013B88
:105C0000A36002F07F03B3401D43130606F10706AD
:105C100002D4C8F80050CEE7232EE2D1CAE770B50F
:105C20004268927802F00F01082986B003461FD11E
:105C300003691C6800260CB906B070BD2368267382
:105C40009D68626829466846FFF736FF63680493DB
:105C500004F10C030593AB7803F0C003802B08BF5D
:105C6000231D684608BF0493FFF7D9FFA468E2E745
:105C700012F0C00120D102F0300010280ED15A6974
:105C800011705A6818699378D46803F00F03072BD2
:105C900009D10146204600F017F8CDE79006F0D56F
:105CA0005B691980C8E71289214614B104F0DCFA57
:105CB000C2E704F0E7FABFE78029BDD100690021FF
:105CC00092060160B8D5EBE77FB50A460146684603
:105CD000FFF7F2FE30B16846FFF7A1FF6846FFF715
:105CE000FCFEF7E707B05DF804FB000030B50446A2
:105CF00085B01546A9B90268114B9A4211D0102DF2
:105D000006D82A4669462046FFF7F0FF05B030BDA9
:105D1000102269462046FFF7E9FF0028F6D0103D23
:105D2000EDE7A368AB4201D20020EFE723682A46E3
:105D3000204698470028F7D0A3685D1BA560E5E7DB
:105D40008D5B0700F7B50E4601A907461546FFF71C
:105D50002BFFA8B1019A0123D3184FF0000404D2FD
:105D6000B17801F0C001802901D1204608E03189D5
:105D70009942FAD329463846FFF7B8FF019BEC5405
:105D800003B0F0BD73B50E4601A905461446FFF7F2
:105D90000BFFB8B1019BB3F5803F07D202229A18DE
:105DA00004D2B17801F0C001802901D1002009E0BE
:105DB00031899142FAD321461A4621F8023B2846FE
:105DC000FFF794FF02B070BD10B5034C8260002253
:105DD000C0E90041C26010BD8D5B07002DE9F347AB
:105DE0000025064688462F462C46B36843B33368E1
:105DF00001220DF107013046984708B3B3689DF8BA
:105E000007C0013B0CF07F025FFA82F9C4F1200168
:105E1000B360A4F1200309FA03F329FA01F109FAA6
:105E200004F20B431CF0800F45EA020547EA030722
:105E300004F1070402D1C8E9005702E0462CD4D18E
:105E4000002002B0BDE8F08773B50C4669461646DF
:105E5000FFF7C4FF68B12389082B0CD1DDE90045A9
:105E6000C6E90045DDE90023AB4206BFA24201209E
:105E7000002002B070BD042B04D1009B33601C468F
:105E80000025EFE7022B4FF0000004D1009B338088
:105E90009CB20546E6E7012BEBD1009B337003F083
:105EA000FF04F6E737B50D4669461446FFF796FF3F
:105EB00030B12A89082ADDE9003103D1C4E9003173
:105EC00003B030BD042A18464FEAE37108D12360BD
:105ED0001A460B468B4206BF824201200020EFE7A4
:105EE000022A04D11BB223801AB2D317F2E7012A87
:105EF00003D15BB223705AB2F7E70020E0E7F7B5B1
:105F00000C46002119702170116001A90746154641
:105F10001E46FFF749FE30B9BB6813B90123337041
:105F2000002003B0F0BD01990029F7D0CB0801F0A3
:105F300007012B602170F4E713B5044605291FD82B
:105F4000DFE801F0030F151E1E1C012201A92046E7
:105F5000FFF7CCFE18B19DF90430002BF5DB02B041
:105F600010BD082200212046FFF7C0FEF7E701A977
:105F7000FFF71AFE0028F2D0019AF3E70422F1E7B6
:105F80000020ECE773B50D4601A90446FFF70CFEAF
:105F9000064618B90026304602B070BD94E80F00DE
:105FA00085E80F0001998A42F4D3A960A3685B1ABF
:105FB000A360F0E72DE9F0435568AB7813F0C00417
:105FC00089B006468C46174603D0402C6AD0002480
:105FD0000AE003F00F025E4903F03003102B51F882
:105FE000228020D004D8CBB1204609B0BDE8F08390
:105FF000202B1ED0302BF7D17B6929881980072AE6
:106000000AD17B6838691A89214604F03BF97B681C
:106010003969D868FFF758FE3A6940E03A6929467D
:10602000C0470446E0E77B6901221A703A69796843
:10603000F6E7BCF1020FD7F8149024D1042A22D835
:1060400004A9FFF79FFF04460028C0D0069B2BB190
:106050007968B9F800304A899A4205D8059B73607F
:10606000069B002BC0D0B2E708893A6903FB0022E7
:1060700004A8C04728B1B9F800300133A9F80030AE
:10608000E4E70446EAE7B9F800306A899A429ED903
:106090003A692989581CA9F8000003FB0122796894
:1060A0003046BDE7D2F81080454655F8043B13B999
:1060B000FFF742FFB5E7022914D104A9FFF762FFF9
:1060C000002884D0D8F8003079682A4604A8984778
:1060D000044600283FF47BAF069B002BF2D1059BC2
:1060E000736081E701292BD04CB24CB105297FF4B4
:1060F0006EAF04220DEB0201FFF7F8FD042424E04B
:106100000DF1040901340B2C3FF461AF0122494623
:106110003046FFF7EBFD00283FF459AF19F9013B7A
:10612000002BEFDB0B4B049301ABCDE905340023CF
:106130000793D8F8003079682A4604A8984770E792
:10614000082201A9FFF7D2FD08240028EAD13EE782
:10615000A8B707008D5B07002DE9F04F91B004460A
:10616000002604A8CDE90266FFF7A6FCA3683BBBA6
:10617000DDE9053404A89D78FFF7AFFC0028F7D1CE
:1061800015F0300F03D1059B1B8803B10134002C9F
:1061900000F0A9806309002202A9934240F09C808C
:1061A00010AA02EB830304F01F04C4F120044FF093
:1061B000FF3053F8383CE040C31A584258410DE0D4
:1061C0000DF1030301AA0DF102012046FFF797FE2E
:1061D00038B99DF80330002BCAD1002011B0BDE8BA
:1061E000F08F019904A8FFF7BAFC002850D1019B59
:1061F000B3427DD3059D059A937803F00F03082BD6
:106200007FD004A8FFF769FC059B9D42F3D14FF0B6
:10621000FF36019FB7426BD3089B9DF80290D4F8DC
:1062200008801D684FF0010AA368002D5DD09845D5
:106230009CD12B68D3F800B0BBF1000F08D04B46BF
:106240003A4629462046D8470028C6D0AD68EBE735
:10625000D3F808B0BBF800309F42F7D16A685946BE
:106260000AA8FFF729FC6B680E9305F10C030F9346
:106270009BF8023003F0C003802B04BF2B1D0E934C
:106280000AAA85F80CA049462046FFF793FEDBE7F3
:10629000059B9B7813F0300F0FD1069A3F2A0CD83C
:1062A000510910AB03EB810102F01F02012393405F
:1062B00051F8382C134341F8383CE5682DB104AB54
:1062C0009DF8022001992046A84704AA9DF80210D3
:1062D0002046FFF76FFE10E051F8225001357FF4A1
:1062E0007DAF013259E7012078E798457FF43EAF52
:1062F0009DF802102046FFF71FFE00287FF436AFFE
:106300006BE7168885E770B50C46064615461146BC
:106310002046FFF7D9FC2A4621463046BDE87040AA
:10632000FFF71ABFF0B585B00C46CD686946074641
:106330001646FFF727FE68B1E06858B1A37803F06E
:106340003003202B32462946684605D1FFF7DBFF94
:10635000019B7B6005B0F0BDFFF7FEFEF8E7D3B50B
:106360000C466946FFF73AFD80B1DDE900130027CE
:106370004A0801F0010642EAC37256EA07014FEAF1
:1063800053031CBFD243DB43C4E9002302B0D0BD9A
:1063900037B50D4669461446FFF7E1FF68B12B8912
:1063A000082B0CD1DDE90001C4E90001DDE900237F
:1063B0008B4206BF82420120002003B030BD042B77
:1063C00003D100982060C117F0E7022B04D1BDF97A
:1063D0000000208000B2F6E7012B04D19DF90000F7
:1063E000207040B2EFE70020E7E713B504220C4627
:1063F0000DEB0201FFF77AFC08B1019B236002B0AC
:1064000010BD1146FFF7F1BF13B508220C466946CF
:10641000FFF76CFC18B1DDE90023C4E9002302B0EA
:1064200010BD1146FFF7F0BF10B513681F2B1446BF
:1064300007D900220830FDF7FDFF08B920232360AB
:1064400010BD48F21450FBE70830FDF7CFBF08300D
:10645000FDF79CBF007800F001007047831F012BFF
:1064600010B5044602D8002001F02AFC034B1B683B
:106470001BB12046BDE81040184710BD74820020B3
:1064800038B5104B104C1860104B1149E41AE40851
:10649000240444F00300FCF7F1FB0020FFF7DEFFCB
:1064A0000C4801F0D5FB054620B90A48BDE8384044
:1064B00001F088B90246084944F00100FCF7E2FB0C
:1064C000284638BD7482002008D8070008D8070085
:1064D00098B907005D640700ABB907006CDF70472F
:1064E0006DDF704772DF704773DF704774DF70478E
:1064F00075DF704776DF70477ADF70477CDF704763
:106500007DDF70477FDF704786DF70478FDF704722
:1065100090DF7047A8DF7047AADF7047ADDF704794
:10652000AEDF7047B0DF7047B1DF7047B5DF70474F
:1065300062DF704766DF704713DF70477FB5002367
:10654000CDF80A30ADF80E300A4BADF806109B8935
:10655000ADF8083001238DF80A300DF10603CDE9BE
:106560000430054B02A91888FFF7DAFF07B05DF881
:1065700004FB00BFE29200209E59002010B5094B99
:10658000094904460948C01AC0080004224640F0E0
:106590000400FCF777FB21460548BDE81040FDF7F5
:1065A00021B800BF08D807001EBF070020D8070089
:1065B0008CD8070070B5204E356815F0010532D033
:1065C0001E4B984236D01E4B1E4C1F4D1F49E41ADD
:1065D000E408240444F004042046FCF74FFB2A8816
:1065E0004FF6FF739A4220D019492046FCF746FB2C
:1065F0003368288843F0040313213360FFF77AFFE0
:10660000054680B9134EC82546F001064FF47A407E
:10661000B047013DFAD102F043FC054618B90E49D6
:106620002046FCF72BFB284670BD0C4B1878FFF773
:106630005DFFF0E70025F6E718930020F4D7070088
:1066400008D8070020D807009E59002077BA070015
:1066500094BA070010BF0700A3BA07009C59002096
:1066600070B518228CB00DEB0200002103F00AFE79
:10667000282308932448254B2549264CC01AC008D6
:106680000004012540F004008DF818508DF82D50BD
:10669000FCF7F4FA1623ADF806300023CDF80E30DF
:1066A000CDF81230ADF816300223092606222370E9
:1066B00023715923A27063710322FE230DF1060199
:1066C000A0190294ADF80C606570E270A371FFF739
:1066D00017FFB8B9BDF8063026725A19E271BDF835
:1066E0000C200D4C134402A906AA2046ADF80C302C
:1066F000FFF7F8FE30B92078FFF7F8FE294620783A
:10670000FFF7F2FE0CB070BD20D8070008D80700D4
:10671000E5B90700F69200209C5900202DE9F041D0
:106720000388212B8CB0044600F06B8133D8122BE8
:1067300000F03A8108D8102B57D076D8012B00F002
:10674000AB810CB0BDE8F081142B00F03A82C0F0B0
:1067500001811A2B00F046821F2BF2D1B24BB34DB0
:10676000B349ED1AED082D0445F00400FCF786FA54
:10677000B04B04F108011888FFF7BAFE0446002860
:10678000DFD00246AC4945F00100FCF77BFA204619
:10679000FEF7BEF9D5E7502B5CD013D8232B00F0C1
:1067A000C780C0F01F81242BCBD19F4B9F486289AB
:1067B000A249C01AC0080004E38940F00400FCF7B5
:1067C0006AFABEE7522B00F00D82C0F06B81552BA8
:1067D00000F08280562BB4D18379002BB1D1954B38
:1067E00013211888FFF786FE9AE08F4B8F4D94494E
:1067F000ED1AED082D0445F00400FCF73FFA8D4B2F
:10680000A2881A808F4A12681C460AB1012090475C
:106810008D492088FFF76CFE0246002891D08B49F5
:1068200045F00100FCF72EFA8BE7824B4FF6FF7222
:106830001A80874B1B685A0704D4FFF711FF08B171
:10684000FEF766F97F4B1B68002B3FF47AAF0220FE
:10685000984776E77F4FC288BB889A427FF471AF32
:106860007D48724DFCF790FE6F4BED1AED082D043C
:10687000064628B9794945F00200FCF7FFF960E7C0
:10688000F4230093238A7649024645F00400FCF77E
:106890000CFA228A04F11201304603F0E5FC1822BA
:1068A00000210DEB020003F0EDFC08238DF81830F9
:1068B0006C4B08936C4B0797CDE9093606A8238AE1
:1068C000ADF82C3000F05EFF00283FF43AAF3146BF
:1068D0006148FCF787FE34E7C288F62A24D8D31E25
:1068E0009B0723D0D31F9BB2013B594201F0030108
:1068F00003F0030302F1FF3458BF4B42E31A9CB28A
:10690000494B4A485949C01AC0080004234640F080
:106910000400FCF7C0F9474B21461888FFF706FE34
:1069200000283FF40EAF33E7F724E9E71446E7E722
:106930003D4B3E484E49C01AC008000440F00400D8
:10694000FCF79CF9002206A9A088CDE90622FFF7F2
:10695000DFFDE5E7344B354C4649364DE41AE40893
:10696000240444F004042046FCF788F90023ADF821
:106970001A300223ADF8183006AA04AB42F60521FE
:1069800028880793FFF7CAFD08B1FEF7C1F8BDF8E4
:10699000102039492046FCF775F900231A46852155
:1069A0002888FFF7AFFDBBE71F4B204D3349ED1A99
:1069B000ED082D0445F004052846FCF75FF96289CF
:1069C0002F492846FCF75EF922892E492846FCF714
:1069D00059F9A2892C492846FCF754F9E2892B4938
:1069E00028461FE7104B11482949C01AC008237ACE
:1069F00000930004637AA27A40F00400FCF755F992
:106A00009FE6094B09482349C01AC008000440F01A
:106A10000400FCF733F9002306A9A088ADF818306C
:106A2000FFF774FD7CE700BF08D8070020D80700F7
:106A3000B1BD07009E590020E0BD0700AEBC0700B5
:106A4000C0BB07001C93002016BF0700CABB07008D
:106A500018930020E29200208CD80700F8BB0700B2
:106A600017BC0700396C07007D65070037BC0700BD
:106A70007DBC0700ECBC070014BD070037BD070054
:106A80005EBD070074BD07008ABD07009CBD0700FE
:106A900015BE07004FBE07005B4B00211888FFF7AB
:106AA00049FD3DE78379002B3FF44BAE022B7FF489
:106AB00048AE564D0289AB899A427FF442AE837B41
:106AC000012B7FF43EAE00230121CDE906338DF882
:106AD0001E10018AADF820104B4E418AADF82210ED
:106AE000022200F114018DF818200991ADF8102050
:106AF00003AF04AA298A3088ADF812300597FFF752
:106B00000DFDB04660B93846FFF7A4FC40B940F22D
:106B1000FD1306A93088ADF81C30FFF703FD10E621
:106B2000002306A9B8F80000ADF81C30FFF7FAFC06
:106B3000014600287FF405AE18220DEB020003F099
:106B4000A1FB237D324A8DF81830022B079508925D
:106B500024D0062B10D0012B10D12E4B1A882E4B8F
:106B60001A80637DD4F816200A93012B0B9205D16D
:106B70002A4801F0A5F801E0637D0A9306A800F019
:106B800001FE024600283FF4DCAD2548254B26498E
:106B90001B1ADB081B0443F0010043E6204B21488D
:106BA0002249C01AC008000440F00400FCF766F84F
:106BB000A27D637D43EA0223164A1380164A13809E
:106BC000DCE7174B17481A49C01AC008000440F008
:106BD0000400FCF753F800231A461946A088FFF773
:106BE00093FC9DE600231A461946A088FFF79CFCFB
:106BF00008B1FDF78DFF0B48094B0E49C01AC008BC
:106C0000000440F0040038E69E590020E292002083
:106C1000396C07002093002022930020F4D707004E
:106C200008D8070020D807008ABE070078BE0700F2
:106C3000BEBE0700E4BE070030B50D4687B004466F
:106C400020B9464940F28710FCF750FB25B943496B
:106C50004FF4C470FCF74AFB1122002101A803F095
:106C600011FB2378082B0BD13D4A3E491388098834
:106C7000013B9BB2138031B32BBB032311802370E4
:106C8000637822788DF805206021012B8DF804109F
:106C90008DF8063019D034493448401AC008000431
:106CA000334940F00200FBF7F6FF63780B2B12D15B
:106CB00000F0AAFA8DF80700002000F09FFA0421E6
:106CC00001A8FFF73BFC07B030BD062A05D0082A13
:106CD00029D0032A27D00321F2E7E1688DF80710B5
:106CE000D4E90123080A8DF80800080C090E8DF874
:106CF0000A10110A8DF80B208DF80C10110C120ED1
:106D00008DF80E201A0A8DF80F308DF810201A0C0D
:106D10001B0E8DF80D108DF809008DF811208DF8DF
:106D200012300F21CCE7D4E90123110A8DF8072096
:106D30008DF80810110C120E8DF80A201A0A8DF821
:106D40000B308DF80C201A0C1B0E8DF809108DF8E5
:106D50000D208DF80E300B21B2E700BFF4B907000B
:106D6000229300202093002008D8070020D8070095
:106D700050BA07002DE9F043054695B020B94649C1
:106D800040F24F40FCF7B2FA444B4FF6FF721A80C4
:106D900001204FF659632A4602A98DF80A00ADF882
:106DA0000830FFF7B7FB0446002871D13C4B04AA1A
:106DB00003F11007164618685968144603C40833CF
:106DC000BB422246F7D1A91C3046FFF7B1FB04466F
:106DD00000285DD101461C220DA803F053FA9DF84E
:106DE0003430ADF8044043F004038DF8343002230E
:106DF000ADF80C30AB788DF80E3004F0F80343F0AA
:106E000003038DF80630F423CDE90A44ADF82C30A5
:106E10002B4601AE4FF0110903AF33F8040B0C946D
:106E200008AA0DA98DF80590CDE90876FFF774FB47
:106E3000A046044660BB01461C220DA803F022FABE
:106E40009DF83430ADF8044023F0180343F01803E4
:106E50008DF834300123ADF80C30AB788DF80E305E
:106E60001723CDE90A44ADF82C302B4608F0E8088A
:106E700048F0130833F80C0B0C9408AA0DA98DF8F0
:106E800005908DF80680CDE90876FFF745FB0446AE
:106E9000204615B0BDE8F083F4B907009E590020E4
:106EA000D5B90700F0B5524E336813F0010485B030
:106EB000074640F09B804F4B4F4D5049ED1AED086F
:106EC0002D0445F004052846FBF7D8FE4C4B4D48F1
:106ED0001F60FCF71BFB029400F0B1F90446002888
:106EE00073D1494A49492846FBF7CCFE4648FFF78B
:106EF00023FB0446002868D145492846FBF7BEFE1F
:106F000001F090FF044600285FD102A802F058F873
:106F10000446002859D13F492846FBF7AFFE02A995
:106F2000012002F057F8044600284ED13A4928467D
:106F3000FBF7A4FE02A802F01DF90446002844D184
:106F400000F04EFE002843D0344800F03DFE336888
:106F500043F002033360112302A88DF80430FFF7D9
:106F6000BFFA044688BB9DF8093002A801338DF8AA
:106F70000930FFF7B3FA044638BB33689B072CD5BA
:106F8000264C2749A3692846221DFBF784FEA069E9
:106F9000211D82B201A8FFF7B1FA0446A8B9214821
:106FA000FFF7AAFA044680B91F48FFF7E3FE04463C
:106FB00058B9FFF755FB044638B933681B4943F00D
:106FC000010328463360FBF759FE204605B0F0BDAB
:106FD00017492846FBF752FEBDE716492846FBF73E
:106FE0004DFE154803F05EF91349D2E70024ECE7A3
:106FF0001893002008D8070020D80700C4BA07005B
:107000001C9300208CD8070000200700E3BA07007B
:1070100003BB070018BB07002FBB070078820020C6
:1070200061BB070016BF0700E2920020A1BB07006A
:1070300047BB070082BB0700BCBA070030B51A493E
:107040000B6885B004460BB1013B0B601748184A2A
:1070500063682578801AC008000440F004008BB9EA
:107060000B68144A14490093012D08BF0A46A3680F
:107070001249FBF71AFE63699BB1E06805B0BDE8F1
:10708000304018470A68029222690192A268009271
:107090000949084A012D08BF0A460949FBF71FFEA6
:1070A000E9E705B030BD00BF2493002028D80700D1
:1070B00008D8070042BF07003CBF070048BF0700D1
:1070C0006EBF070008B50C4A0C4B9B1ADB081B046B
:1070D00043F0040350B10A491846FBF7CFFD0949B4
:1070E00009480022BDE80840FCF7AABC0749184639
:1070F000FBF7C4FD0649F3E708D8070028D80700C6
:1071000014C007007CA60700105A00203AC00700F0
:1071100050A607002DE9F7439846174C174BDFF8A8
:107120006C90E41AE408D9F8003024040546CDE94F
:1071300000230E460B4617461149024644F0040050
:10714000FBF7BFFD2946CDF800803B4632460D488F
:10715000FCF78EFC054640B9D9F800300133C9F878
:107160000030284603B0BDE8F0830246064944F0EB
:107170000200FBF787FDF4E728D8070008D80700CE
:1071800062C00700105A0020A5C007002493002009
:107190002DE9F341134B144C144EE41AE408336800
:1071A0000093240405460B460F46904610490246BC
:1071B00044F00400FBF779FD294643463A460D4862
:1071C000FCF7A6FC054630B9336801333360284626
:1071D00002B0BDE8F0810246074944F00200FBF727
:1071E00051FDF4E708D8070028D8070024930020B1
:1071F000AABF0700105A0020E7BF0700014B187014
:107200000B20704728930020024B002218781A7038
:10721000704700BF2893002018DF704730B585B055
:10722000054610220C466846002103F02BF8A408FE
:10723000684601950294FFF7EFFF05B030BD1FB51A
:107240000023CDE901330393684602230093FFF73F
:10725000E3FF05B05DF804FB4FF000534FF480529C
:107260001A60002070470000084B09480949C01AFD
:1072700010B5C008000440F00400FBF7FFFC064B0B
:1072800006201B68BDE81040184700BF08D807005B
:1072900030D80700D7C50700349300200A2803D947
:1072A0000B38C0B2FFF7AABF7047000070B50546A3
:1072B00086B00020FCF768FC014690B1244A1821F2
:1072C0002846FBF701FF024648B12248224B2349DA
:1072D0001B1ADB081B0443F00100FBF7D3FC06B0CC
:1072E00070BD1822684602F0CDFF04238DF80030EF
:1072F000194C184B1A4EE41A1A4B1A6D3368E408ED
:1073000024049A4244F004041AD117492046FBF79A
:10731000B5FC164B3168186801F066FC8DF8010069
:10732000FFF7BCFFD5E901138DF8010068469847C7
:107330000F4800F0EDFB9DF801200E492046CCE7F8
:1073400001238DF801306846D5E901139847F2E72B
:10735000AD72070008D8070030D8070057C50700EE
:107360002C930020CC9E002080C507003093002085
:1073700069720700AFC507002DE9F041836888B046
:10738000044623B9A04940F2CF20FBF7AFFF1622F5
:1073900000210DF10A0002F075FF9C4E9C492278F5
:1073A0008DF80820761AF608012336040C2A8DF889
:1073B000093046F0040500F2C881934013F4AD7F14
:1073C00024D1D90407D45B0740F1BF8191492846F5
:1073D000FBF754FC07E028468F49FBF74FFC8F4B27
:1073E00007201B6898479DF809208D492846FBF720
:1073F00049FCD4E9011302A898479DF80930012BF4
:1074000000F08D81854B05201B6887E1062A854F9A
:1074100001D0012A01D123693B703B78012B09D0AF
:10742000022B75D0804946F00100FBF727FC0023B2
:107430003B70CBE0013A072A64D8DFE802F004632E
:107440001443635B631E79492846FBF717FC734BB3
:1074500003201B689847606901F096F8FFF71EFF4C
:107460008DF80900BFE772492846FBF707FC714B0E
:10747000DA6B1B6C03920493B5E7236923B9624965
:1074800040F21310FBF732FFA38A23B95E494FF491
:107490008A70FBF72BFF68492846FBF7EFFBA18AB0
:1074A000206901F089F8FFF7F9FE624B8DF80900B9
:1074B000DA6B1B6C0493E3680392002B93D0206972
:1074C000984790E75D492846FBF7D8FB5C495D4843
:1074D00001F0F6F8FFF7E2FE01288DF8090082D1ED
:1074E000002000F015FB08B9574970E70A238DF812
:1074F000093078E755492846FBF7C0FB4FF4007385
:107500000593B4E740494FF4BC70FBF7EFFE6AE720
:10751000013A072A00F21581DFE812F00800130192
:10752000D500E40013010401130163004849284613
:10753000FBF7A4FB01F070F830B9464946F00100B2
:10754000FBF79CFB0823D2E7626932B9424946F057
:107550000100FBF793FB0323C9E7C2F30B0343B11D
:10756000344B37495B6D096813448B4201D03B496A
:10757000EDE7B2F5805F06D9394946F00100FBF727
:107580007DFB0423B3E72B4F2D497B6D0968D01891
:10759000884206D9009146F001003249FBF785FB8D
:1075A000D0E77A64FA6CBA643B65264A3B6361694A
:1075B000106801F6FF710022090B1844FFF7E8FD7F
:1075C00030B1294946F00100FBF758FB05238EE74F
:1075D000BB6C00933B6D7A6C24492846FBF765FB36
:1075E00001E723492846FBF749FB01F015F800287D
:1075F000A8D0104FA18AD7E914329B1A7A6C0B4499
:10760000934239D91B49A2E7FCC0070030D80700D4
:1076100008D807005CC1070080C107003493002030
:10762000AFC50700A059002018C5070098C1070082
:10763000C2C10700CC9E0020E6C107000FC20700B0
:107640002C930020309300203AC207005FC207004D
:1076500089C20700B0C20700E5C20700FEC20700EA
:107660001FC3070043C30700B4C30700CBC3070011
:1076700006C407002CC40700374A3B6B1268206918
:1076800003EB020807F14802FBF714FEE368064625
:1076900023B932494FF4F870FBF728FEE368A28A59
:1076A00021694046FFF736FD08B1E36807E7A28A83
:1076B0003B6B049613443B63A38A3A6DBE64134448
:1076C0003B6503938FE6264E26492846FBF7D6FAFC
:1076D000B36C326D24492846FBF7DDFAB36C049392
:1076E000336DEEE728462149FBF7C8FA1C48D0E97C
:1076F0001473426CFB1A934205D01D4946F00100F9
:10770000FBF7C9FA1EE7836CC36400214164476537
:107710002046FFF7CBFD174B1B680420984708B0A5
:10772000BDE8F08114492846FBF7A8FA0C4B4FF44A
:1077300080519A6C1B6D05910091049203930F493F
:107740004BE7064940F29720DFE60D4946F003007B
:10775000FBF798FA0223CAE630930020FCC007002A
:10776000CC9E002043C4070064C407007AC407000D
:10777000A2C4070034930020C6C40700EDC407006C
:1077800038C5070010B583688BB10A4A1821FBF78A
:107790009BFC044648B10848084B0949C01AC00878
:1077A000000440F00200FBF769FA204610BD0724F0
:1077B000FBE700BF7973070030D8070008D807003F
:1077C000E0C0070038B50546C0B10120FFF77AFCDC
:1077D000044648B900F0CAFE00F01EFF30B9084B5D
:1077E00000201D60FFF70AFD204638BD0549064808
:1077F00000F066FF0128F2D00324F5E70724F3E741
:10780000349300202C9300203093002010B50022E8
:10781000044658210430FBF74DFD23681B1A5842DB
:10782000584110BD2DE9F04716464FF460721F46CF
:10783000054688461E4C02F009FD1E4BE41AE4087A
:10784000240444F0040A814650B91B495046FBF712
:1078500015FA16B90020BDE8F0874846B047F9E7A9
:1078600016495046FBF70AFA2A4615495046FBF7D7
:1078700009FA002201212846FFF78AFC30B111499C
:1078800044F00100FBF7FAF90320E4E74FF46072DB
:107890004146384602F0E8FC33464FF46072394600
:1078A0002846FFF737FC0028D4D00749E8E700BF97
:1078B00038D8070008D8070093C80700DDC80700BC
:1078C000F1C8070011C9070034C907002DE9F047C6
:1078D0004E48036801336CD0FFF798FF82464C4F47
:1078E0004C4C3E68DFF85C913368DFF8308101333F
:1078F00000F087803046FFF789FF00285CD075686C
:10790000012D0AD00022C32106F51870FBF7D2FC26
:10791000D6F85C522B1A5D425D41BAF1000F4DD092
:10792000A4EB0906F608360446F004063A49304648
:10793000FBF7A4F94FF460723449384802F094FC24
:1079400085B137493046FBF799F9396835485422F3
:10795000043102F089FC396833484FF432725C31EB
:1079600002F082FCD8F80450012D48D1A4EB0900A4
:10797000C00800042D4940F00300FBF77FF92C49B3
:10798000402201F5E47002F06FFC2A491C2201F547
:10799000E47002F069FC284988F8A152002304220F
:1079A00001F2862088F8603288F8E23202F05CFC4E
:1079B00022E04FF0000A92E70546AEE76DB1A4EB76
:1079C0000900C00800041D4940F00300FBF756F908
:1079D0004FF4607239681148C2E7A4EB0900C0088F
:1079E0000004174940F00200FBF748F94FF46072B9
:1079F00000210A4802F046FC0223C8F80430BDE822
:107A0000F087BAF1000FE8D0002589E700F0070001
:107A1000A459002038D80700A7C60700CC9E002034
:107A2000BCC60700D09E0020289F0020A3C70700E7
:107A300028A0002068A00020E89E0020E6C60700DD
:107A40003FC7070008D8070070B50D4C0646002256
:107A500058212046FBF72EFC002244F8040CC321D9
:107A600004F51770FBF726FC251FC4F858023246B0
:107A70002946044B0448BDE87040FFF7D3BE00BF61
:107A8000D09E00203893002000F00700F8B5164B78
:107A9000164C174DE41AE4080E46240407462A68DB
:107AA000144944F00300FBF7EDF83368013313D1B8
:107AB00011494FF4C170FBF719FC3A460F4B286887
:107AC0003146FFF7AFFE024660B144F001000C49B9
:107AD000BDE8F840FBF7D6B83046FFF797FE002820
