:020000040002F8
:1060000000000120B5620200DD620200DF620200D2
:10601000E1620200E3620200E562020000000000AB
:10602000000000000000000000000000E762020025
:10603000E962020000000000EB620200ED62020073
:10604000F1D80200EF620200E1700200EF6202008C
:10605000EF620200EF620200E96B020039CC02003D
:1060600089D60200E1D6020039D70200EF620200B1
:10607000EF620200BD710200EF620200EF620200F7
:10608000EF620200B17D0200EF620200EF620200E7
:10609000EF620200EF62020001060300EF620200FD
:1060A000EF620200EF62020091D70200E9D702001E
:1060B00005CA0200EF6202000000000000000000BC
:1060C000EF620200C1CA02007DCB0200EF62020053
:1060D00041D80200EF620200A5D9020000000000D2
:1060E00000000000000000000000000000000000B0
:1060F00000000000000000000000000000000000A0
:10610000000000000000000000000000000000008F
:10611000000000000000000000000000000000007F
:10612000000000000000000000000000000000006F
:10613000000000000000000000000000000000005F
:10614000000000000000000000000000000000004F
:10615000000000000000000000000000000000003F
:10616000000000000000000000000000000000002F
:10617000000000000000000000000000000000001F
:10618000000000000000000000000000000000000F
:1061900000000000000000000000000000000000FF
:1061A00000000000000000000000000000000000EF
:1061B00000000000000000000000000000000000DF
:1061C00000000000000000000000000000000000CF
:1061D00000000000000000000000000000000000BF
:1061E00000000000000000000000000000000000AF
:1061F000000000000000000000000000000000009F
:1062000010B5054C237833B9044B13B10448AFF3F0
:1062100000800123237010BDD83C00200000000046
:106220007821040008B5034B1BB103490348AFF3C1
:10623000008008BD00000000DC3C00207821040044
:10624000154B002B08BF134B9D46A3F5803A002148
:106250008B460F461348144A121A15F0F3FA0F4BE7
:10626000002B00D098470E4B002B00D09847002001
:10627000002104000D000D48002802D00C48AFF3A7
:10628000008015F09FFA2000290007F0A1FB15F00F
:1062900085FA00BF00000800000001200000000097
:1062A00000000000D83C00207C56002000000000C8
:1062B000000000000649074A074B9B1A03DD043B18
:1062C000C858D050FBDC00F08FFFFFF7B9FF00008B
:1062D00084230400D03B0020D83C0020FEE7FEE7EA
:1062E000FEE7FEE7FEE7FEE7FEE7FEE7FEE7FEE786
:1062F00038B9012A07D0012913D048B268B1022960
:1063000007D00720704701290AD001290246F4D19D
:1063100007E0064B00205A707047044B9A70704794
:106320000E22024B00201A70704700BFF43C002080
:1063300010B50388102B07D0112B04D1254B1868FA
:106340000138186030B110BD224C216811B3013101
:10635000216010BD01220221FFF7CAFF40B10728CA
:1063600006D01D4B1B68002BEDD0BDE81040184730
:10637000072202210120FFF7BBFF08B10728F0D157
:10638000002108460A22FFF7B3FF0028DBD00728C8
:10639000E7D1D8E701220846FFF7AAFF38B107285E
:1063A00005D00D4B1B6803B198472168CFE7072242
:1063B00002210120FFF79CFF08B10728F1D1042238
:1063C00002210020FFF794FF0028EED00728E8D133
:1063D000EBE700BFFC3C0020F83C002006F0FCB8D6
:1063E0000021084606F0ACB808B50846114600F092
:1063F0009BF9002008BD00BF30B5054683B00020E2
:1064000000F03EF9044610B1204603B030BD04351B
:1064100028460BF009FC28460094234622460C49E6
:106420000BF058FC10F1360F0CD00028ECD048F2DD
:10643000165348F2115410F1380F18BF1C4620466D
:1064400003B030BD48F21454204603B030BD00BF45
:10645000E963020008B504300BF0ECFB00F042F9F0
:10646000002008BD08B504300BF008FD10F1360F10
:106470000AD040B148F2115248F2165310F1380FC9
:106480000CBF1046184608BD48F2145008BD00BFA6
:10649000114608B51A4604300BF0DEFB10F1360F3A
:1064A0000AD040B148F2115248F2165310F1380F99
:1064B0000CBF1046184608BD48F2145008BD00BF76
:1064C00010B568B90E4CA368012262703BB1D3E9E4
:1064D00000230020A2609847A368002BF7D110BDCD
:1064E0000128FCD1064C2369A070002BF7D0D3E91A
:1064F00000230120226198472369002BF7D110BDAA
:10650000003D002070B910B5074CA36801226270ED
:106510003BB1D3E900230020A2609847A368002B79
:10652000F7D110BD704700BF003D002030B50128F5
:1065300083B01DD0B0B1032812D1224C00F044F931
:1065400000230DF107008DF8073001F0A5FAE3688C
:10655000013BE360E5686DB39DF8070001F0C2FA06
:1065600003B030BD184B0122C3F8802003B030BD0A
:10657000144C00230DF107008DF8073001F08CFA60
:10658000237853B1E3689DF8070001330122E360EB
:10659000A27001F0A7FA03B030BD0C486360A3609D
:1065A0002361E36000F004F90AF024F830B101231C
:1065B0002370E7E700F04EF9A570CDE700F004F98D
:1065C000F5E700BF003D002000E100E0C1640200EB
:1065D00031DF704700B585B000238DF807000DF15D
:1065E0000F008DF80F3001F057FA0AF003F830B1C0
:1065F0009DF80F0001F076FA05B05DF804FB0DF18F
:106600000701084804F006FB064804F0F5FA0028E4
:10661000EED000F0ADFD9DF80F0001F063FA05B07B
:106620005DF804FB9421040000B583B098B1032801
:106630000ED100230DF107008DF8073001F02CFA80
:106640000D480378012B0FD09DF8070001F04AFA9E
:1066500003B05DF804FB084B1B78012BF8D100F068
:1066600087FD00F091FDF3E70449013000F03EFDA5
:1066700000F06CFDE8E700BF643D0020D565020036
:1066800010B5154C227882B012BB14498DF8072042
:106690000346002808BF0B460DF107001B88A4F82D
:1066A000013001F0F9F909F0A5FF40B101239DF88F
:1066B0000700237001F016FA002002B010BD08494F
:1066C000601C00F013FD0028F7D100F03FFDEDE75E
:1066D000852002B010BD00BF643D0020FCC6030051
:1066E000D565020000B583B000230DF107008DF8D9
:1066F000073001F0D1F909F07DFF60B19DF8070086
:1067000001F0F0F9064804F023FB064B00221A7052
:1067100003B05DF804FB00F02BFD00F035FDEDE764
:1067200094210400643D002000293ED02DE9F04F63
:10673000DFF878A083B005468B4642F207095F4632
:10674000402F28BF40275FFA87F800260CE09DF80D
:10675000070001F0C7F941462846FFF739FF4845D1
:106760000446F2D0022C17D10DF107008DF8076016
:1067700001F092F909F03EFF0028E8D13A46294697
:10678000504604F0B7FA044600F0E0FC9DF807001C
:1067900001F0A8F9022CE7D0002CD6D1BBEB070BF7
:1067A0003D44CCD103B0BDE8F08F70479421040084
:1067B000044A137923B9012110609180184670476B
:1067C00085207047683D0020084B1A68D20704D422
:1067D000C021012283F800131A604FF08041044A5F
:1067E0000123C1F818351370704700BF00E100E0C5
:1067F000F455002010B41349134B144A00200860CC
:1068000083B0096801914FF080410220019CC1F8DA
:106810000403D86840F08071D960146844F0010323
:106820001360516853685B1AB3F50A5FFAD30649DF
:10683000074B14600122C8601A6003B05DF8044B76
:10684000704700BF04010040F0ED00E0001000E0E0
:1068500008000040044B01221A604FF08042D2F839
:106860001834DB03FBD470470C00004010B5154B07
:106870001A6882B062B10021134A19601B6850790E
:1068800000934FF080410123009CC1F80833A8B168
:106890000E4B1A6882B100221A601B6801934FF0F8
:1068A00080420221084B0198C2F808131B6801209E
:1068B00002B0BDE81040184702B010BD1168537116
:1068C0008847E5E700010040683D002004010040E2
:1068D000F0B5204C94F8585083B0002D36D14FF0CD
:1068E000FF334FF0FF364FF0FF372946042204F103
:1068F0005400C4E90033C4E90233C4E90433C4E9F1
:106900000633C4E90833C4E90A332365C4E90C67D4
:10691000C4E90E67C4E91067C4E9126714F092FF76
:106920000D4A0E4B0E491D60C02082F80603402020
:1069300010601B68019301984FF000430122284624
:1069400084F85820C1F8043303B0F0BD082003B028
:10695000F0BD00BF703D002000E100E07C61004020
:1069600000600040034B93F85800003018BF01202E
:10697000704700BF703D0020F0B5694B1C1894F9BA
:106980003050002D63DA8E78C6F340069646002E0E
:1069900057D01D68013500F0B6800124082553F852
:1069A0002470013756D004F1010C53F82C700137D4
:1069B0004FD0A71CAF4242D253F82720013200F03B
:1069C000A08004F1030CAC4539D253F82C70013788
:1069D0003FD004F1040CAC4531D253F82C70013790
:1069E00037D004F1050CAC4529D253F82C7001378F
:1069F0002FD004F1060CAC4521D253F82C7001378E
:106A000027D004F1070CAC4519D253F82C7001378C
:106A10001FD004F1080CAC4511D253F82C7001378B
:106A200017D004F1090CAC4509D253F82C7001378A
:106A30000FD00A34AC4202D2DC6A01345FD00420A9
:106A4000F0BD1D6A013564D009240C25A7E7082094
:106A5000F0BD64461F1865B243F824E087F8305053
:106A600016B91C4484F848008A78540714D4D60711
:106A70003BD44C784FF0A04600F5E072A40046F8F5
:106A80002240284EC40800F0070C375D012202FAAC
:106A90000CF23A4332558A78097812F002021AD081
:106AA000AB0003F1804303F5C0430202D3F81005A5
:106AB00020F4473020F44070C3F810050904D3F8DF
:106AC000100501F4403102F4F8520A430243C3F8BE
:106AD00010250020F0BD083D2B44104693F85020AF
:106AE00042EA811183F85010F0BD820002F1A04209
:106AF000D2F8004724F00204C2F80047C1E70B2493
:106B0000A8E73C46A6E70025C3F800E084F830502B
:106B1000AAE7082684F830601A6235463446A0E7B2
:106B2000703D0020C43D002070B42D4C251883B06A
:106B300095F93030072B1CDD234493F848309B092E
:106B4000032B40D0012B14BF4FF440314FF40031E0
:106B5000800000F1A040D0F8002722F44032C0F8B5
:106B60000027D0F800370B43C0F8003703B070BCE3
:106B70007047DAB2072AF9D8980000F1804000F592
:106B8000C04003F140029200D0F8106592B202F1C9
:106B9000804202F5C04246F00106C0F810650020B0
:106BA000106012680192019A0029DFD095F9302017
:106BB00054F82220002AD9D001220A4902FA03F30C
:106BC000C1F80433D2E74FF0A043D3F81035C340E7
:106BD00013F0010F0CBF4FF400314FF44031B7E711
:106BE000703D0020006000402DE9F04186B0002398
:106BF000BD4A01931168012900F0C4811E46BB4BB8
:106C00001A68012A00F0B081B94B1A68012A00F015
:106C10009D81B84B1A68012A00F08A81B64B1A6828
:106C2000012A00F07781B54B1A68012A00F04E81E5
:106C3000B34B1A68012A00F03B81B24B1A68012A53
:106C400008D0B14B1A68012A00F0A881EEB906B04D
:106C5000BDE8F081AD4AD2F804231206F1D5002236
:106C60001A6019680491603319680498012946F084
:106C700080060AD11A601B6805934FF0A043059A5D
:106C8000D3F81035019346F00046A14F00240125AA
:106C9000A30003F180432E4203F5C0434FEA4505AC
:106CA0000BD0D3F8100557F82420D3F81015C0F3F3
:106CB0000420C1F3014102B190470134082CE7D10F
:106CC000002EC4DA00224FF0FF33CDE90223904CAE
:106CD000012502AE94F950104F1C37D0C9B221F0F3
:106CE000C00006ABC2089F1801F0070317F80CCCD0
:106CF00005FA03F31CEA030F28D004EB000C890902
:106D00009CF930C054F82C80B8F1000F00F09F813E
:106D1000032900F09F81820002F1A04217F8147C41
:106D2000D2F800C71F40CCF3014C0BD0BCF1020FCE
:106D30000CD1032900F0C5810027B8F1000F06D05F
:106D4000C04704E0BCF1030F00F0A981002794F9CB
:106D50005110481C31D0C9B221F0C00006AB4FEA37
:106D6000D00E03EB0E0C01F007031CF80C2C05FAF7
:106D700003F31A4221D02218890992F9302054F8DD
:106D80002220002A00F08181032900F081814FEA4E
:106D9000800E0EF1A0481CF814ECD8F800C71EEACB
:106DA000030FCCF3014C00F03A81BCF1020F04D187
:106DB000032900F0898102B1904794F952104A1CCE
:106DC00031D0C9B221F0C00006AB4FEAD00E03EBC0
:106DD0000E0C01F007031CF80C2C05FA03F31A4201
:106DE00021D02218890992F9302054F82220002A53
:106DF00000F04181032900F041814FEA800E0EF13D
:106E0000A0481CF814ECD8F800C71EEA030FCCF316
:106E1000014C00F0EC80BCF1020F04D1032900F01A
:106E2000568102B1904794F953104B1C31D0C9B22E
:106E300021F0C00006AB4FEAD00E03EB0E0C01F0C0
:106E400007031CF80C2C05FA03F31A4221D0221870
:106E5000890992F9302054F82220002A00F001819B
:106E6000032900F001814FEA800E0EF1A0481CF8C2
:106E700014ECD8F800C71EEA030FCCF3014C00F065
:106E80009B80BCF1020F04D1032900F0238102B1E1
:106E90009047002F3FF4DBAE4FF0A043019AD3F8A8
:106EA00010359A423FF4D3AE029A0193039211E750
:106EB000164AD2F8042351067FF5BFAE00221A60AD
:106EC0001B680493049B46F04006B6E60F4AD2F8CE
:106ED000042390067FF5ACAE00221A601B68049371
:106EE000049B46F02006A3E60061004004610040D8
:106EF000086100400C6100401061004014610040D6
:106F0000186100401C6100407C610040006000404E
:106F1000703D0020714AD2F80423D4067FF583AE79
:106F200000221A601B680493049B46F010067AE660
:106F30006A4AD2F8042315077FF570AE00221A6062
:106F40001B680493049B46F0080667E6634AD2F880
:106F5000042357077FF55DAE00221A601B68049377
:106F6000049B46F0040654E65C4AD2F804239207D8
:106F70007FF54AAE00221A601B680493049B46F01A
:106F8000020641E65549D1F8046316F001063FF4C4
:106F900036AE136013680493049B30E600221A6037
:106FA0001B6805934FF0A043059AD3F81035019361
:106FB000002E3FF487AE66E6BCF1030F7FF469AFA5
:106FC00003297FF464AF4FF4003CD8F8003723F472
:106FD0004033C8F80037D8F8003743EA0C03C8F844
:106FE0000037002A3FF458AF0137FFB250E7BCF139
:106FF000030F7FF418AF03297FF413AF4FF4003C65
:10700000D8F8003723F44033C8F80037D8F80037F1
:10701000013743EA0C03FFB2C8F8003701E7BCF1BF
:10702000030F7FF4CAAE03297FF4C5AE4FF4003CD2
:10703000D8F8003723F44033C8F80037D8F80037C1
:10704000013743EA0C03FFB2C8F80037B3E603295F
:107050007FF47CAE16F802C04CEA030C06F802C0BE
:1070600059E603297FF415AF16F80E8048EA0308A5
:1070700006F80E80F7E603297FF4D5AE16F80E80E9
:1070800048EA030806F80E80B7E603297FF495AEB8
:1070900016F80E8048EA030806F80E8077E6032902
:1070A0007FF44BAE4FF40037D2F8003723F440336F
:1070B000C2F80037D2F800373B43C2F80037012747
:1070C0003BE64FF44037EFE74FF4403CB0E74FF476
:1070D000403C95E74FF4403C77E700BF006000403C
:1070E000014B1B68184700BFCC3D0020134A1378A2
:1070F0000BBB30B40378124CDB07216006D5114975
:10710000D1F8043543F00103C1F804350D4C0E49A4
:10711000D4F8003223F00103C4F8003243785B0155
:107120004FF400550124DBB281F80D330D6014706B
:10713000002030BC70478520704700BFD83D00203C
:10714000D43D002000D0004000E100E0064A074B9B
:107150000021116082B01268019201990122C3F8E6
:1071600004231A6002B0704700D1004000D00040F4
:107170000349044A0123C1F808331360704700BF74
:1071800000D0004004D0004030B40849084D094800
:10719000094A0123C1F808334FF4005400212B6041
:1071A000C0F88040117030BC704700BF00D0004074
:1071B00004D0004000E100E0D83D0020074B084922
:1071C000084A0020186082B01B680193019BD1F827
:1071D00008051368C0B202B0184700BF00D10040D4
:1071E00000D00040D43D002030B4B84B1B78062BB3
:1071F00020D0B74B1B68062B00F08180B54AD2F82F
:10720000883043F47003C2F88830BFF34F8FBFF368
:107210006F8F4FF01023D3F80022002AC0F286812E
:10722000D3F80432002BC0F28181AB4BAB4A1A6019
:1072300030BC7047AA4B1B681D07DAD1A94B1B68ED
:1072400003F0F002302A00F09B8003F0E003402BB3
:1072500000F09680A34B1B6803F0F003302B00F086
:10726000A080A04B1B6803F0F002302A77D003F017
:10727000E003402B73D09B4B1B6803F0F003302BD3
:1072800000F01481974B1B6803F0F002302A52D0B3
:1072900003F0E003402B4ED0924B1B6803F0F00349
:1072A000302B00F0F5808F4B1B6803F0F003302B80
:1072B00000F0D7808B4B1B6803F0F003502B7ED07F
:1072C000884B1B6803F0F002302A23D003F0E00360
:1072D000402B1FD0834B1B6803F0F002302A03D0F1
:1072E00003F0E003402B84D14FF08043D3F8002417
:1072F000D20744BF6FF00102C3F8002479E77A4B4C
:107300001B68062B7FF47AAF784A136843F48063D6
:10731000136073E7764B6D4A1B681278754903F06A
:107320004F03062A0B607FF464AF6D4B1B6819078F
:107330007FF45FAFCEE7654A11784FF080430022BB
:107340000629C3F80C21C3F81021C3F838257FF4AF
:1073500050AF634B1B681B077FF44BAF9CE7664B3A
:107360005A4A1B6812786549C3F34233062A0B60F8
:107370007FF43FAF5A4B1B6819077FF43AAF7AE7A7
:107380005F4B524A1B6812785E49C3F30423062AF6
:107390000B607FF42EAF524B1B681C077FF429AFA4
:1073A00058E74A4B584A1B7858491160062B7FF41E
:1073B00020AF4B4B1B6818077FF41BAF51E74FF012
:1073C0008052534BD2F80414C3F82015D2F8081495
:1073D000C3F82415D2F80C14C3F82815D2F81014E9
:1073E000C3F82C15D2F81414C3F83015D2F81814B9
:1073F000C3F83415D2F81C14C3F84015D2F8201481
:10740000C3F84415D2F82414C3F84815D2F8281448
:10741000C3F84C15D2F82C14C3F85015D2F8301418
:10742000C3F85415D2F83414C3F86015D2F83814E0
:10743000C3F86415D2F83C14C3F86815D2F84014A8
:107440002248C3F86C15D2F844140278C3F87015BA
:10745000062A7FF4CEAE224B1B6818077FF4C9AE14
:107460002EE71A4B2B4C1B782B492C482C4A052510
:10747000256001250D6000243F21062B046011606A
:107480007FF4B7AE164B1B681C077FF4B2AE11E752
:107490000E4B244A1B780321062B11607FF4A9AE02
:1074A0000F4B1B681D077FF4A4AEFCE61E4A07497C
:1074B000D368097823F080730629D3607FF499AEEE
:1074C000074B1B681A077FF494AEDBE6E00F00F071
:1074D0003001001000ED00E0D03B00200090D00310
:1074E000E40F00F0E80F00F0340100103C170040FA
:1074F00058020010E40E0040440200103C05004019
:10750000240300104035014074C007400DF0ADBAAF
:1075100000C00040105600408856004018560040F9
:1075200014560040A0050040F0ED00E0184A012389
:10753000C2F80435D2F80034002BFBD04FF01023F2
:107540001521134AC3F80012D2F80034002BFBD0E7
:107550004FF0102315210E4AC3F80412D2F800345C
:10756000002BFBD000230A49C2F80435D1F80034BF
:10757000002BFBD0BFF34F8F0649074BCA6802F4BC
:10758000E0621343CB60BFF34F8F00BFFDE700BF46
:1075900000E0014000ED00E00400FA0500B585B010
:1075A00000230390194601AA44F20100CDE90133FA
:1075B00006F0F6F905B05DF804FB00BF30B482B008
:1075C00001248DF80740144B9DF80750186044F2D1
:1075D0000104A04259609A6013D044F2020188422B
:1075E00006D1DA60DA6812889A61DA685268DA617C
:1075F00072B69DF80730002BFBD162B602B030BCEA
:1076000070471A611A6992685A611A6912689A6118
:107610001A695268DA61EBE7DC3D0020D0E9022309
:10762000D1E90201994208BF90422CBF01200020FD
:10763000704700BF2DE9F04F87B0044600F078FB9B
:1076400040B1B24AD2E9003113F1807341F1000137
:10765000C2E900310021204600F086FB68B1AC4D44
:107660002B6853B1AB4B2E681B7823B11EB1337F0F
:10767000002B40F00E8100232B602046012100F0FA
:1076800073FB002840F0E58005A9A34801F09CFFAA
:1076900018B39F4EA14CA04D0378012B00F0C2807F
:1076A000002B00F0C780022B0DD12046002703F0ED
:1076B0009DFB28B10777204603F098FB0028F9D1FD
:1076C000944B01221A7005A9284601F0ADFF05A9C7
:1076D000284601F079FF0028DED1904F8C4D904E66
:1076E0003DE0384603F082FBD0E902A3DFF81C92AC
:1076F00003930446304600F047FBD9E90023DFF846
:10770000248212EB000B43F1000CD8E900239C45C6
:1077100008BF93455846614603D21BF180704CF177
:107720000001BAEB00030093039B63EB0103019399
:10773000DDE90023012A73F100012ADBDFF8E8A16B
:10774000524565D8A2684FF416030021304600F078
:1077500063FA002862D00D281FD000232B60384622
:1077600003F04AFB00285AD02B68002BB9D02B68B5
:10777000D0E90201D3E90223994208BF90424ED2D8
:107780002B681B7F002BACD02968384603F01AFB0E
:10779000A7E70021304600F0DBFA5E4B1B78002B98
:1077A000DBD0237F002BD8D0304600F0EDFAD9E9AA
:1077B00000ABD8E900231AEB00084BF1000999450A
:1077C00008BF90454046494603D218F1807049F100
:1077D0000001D4E90223994208BF904254D323699F
:1077E000002B4FD0D4E90530984721690029B4D047
:1077F000237F002BB1D0D4E9022312EB010843F11F
:107800000009C4E902892146384603F0DBFAA4E7FF
:10781000304600F0B9FA00EB0A0294E72C6007B09A
:10782000BDE8F08F4168336899420FD0204603F0DD
:10783000E7FA48E743681A7F002A7FF444AF012241
:107840001A774168204603F0BDFA3CE70023336015
:1078500039E73348334E00F097FA2C4BD3E9004513
:10786000D6E90023271845F10008984508BF97423C
:107870003846414603D217F1807048F10001C6E94D
:10788000000101E72377ADE72146384603F09AFA75
:1078900063E7234800F078FA1C4B2249D3E9002320
:1078A000D1E9008912EB000A43F1000BCB4508BF78
:1078B000C2455046594603D21AF180704BF100017F
:1078C000D6E90223994208BF904219D3336903B91C
:1078D0003377D6E905309847316900293FF4CBAEBC
:1078E000337F002B3FF4C7AED6E90223571843F18C
:1078F0000008C6E902783146084803F063FABAE6A0
:107900003146064803F05EFAB5E600BF003E0020AF
:10791000803E0020083E0020643E00202CC703006B
:10792000D43B0020783E0020FFFF690030B583B0D3
:107930000624002508235822134914488DF80640D0
:10794000ADF8045001F0C8FD044610B1204603B064
:1079500030BD0F4A0F4801A900F0DCF804460028AA
:10796000F4D101210B4800F0D9F9012319460A4A44
:10797000084800F02BF9074800F024F9074B0122D2
:1079800020461A7003B030BD0C3E0020643E00203B
:1079900035760200D43B0020FFFF7F00083E002028
:1079A0004AB1A1F101010368B1FA81F14909C3E9C2
:1079B0000412002070470720704700BF037F0BB1FF
:1079C000002070472DE9F048826182B004461D48CE
:1079D0000D4600F0D9F91C4B1C49D3E90023D1E92D
:1079E000006712EB000B43F1000CBC4508BFB34528
:1079F00003D21BF1807B4CF1000C1BEB05002369CB
:107A00004CF10001C4E9020103B1256101A910484C
:107A100001F09CFD50B100254460057001A90C489F
:107A200001F0C2FD30B902B0BDE8F088042002B018
:107A3000BDE8F088034800F0ABF9284602B0BDE885
:107A4000F08800BFD43B0020003E0020783E00209C
:107A5000643E002030B5002583B00446057701A9B7
:107A60000B4801F073FD78B101234460037001A954
:107A7000074801F099FD08B903B030BD054800F092
:107A800087F9284603B030BD042003B030BD00BFE5
:107A9000643E0020D43B002070B4EFF3108472B633
:107AA0000D4B9A68AAB90D490D4E01259D60D1F87C
:107AB000805035401D60C1F88060D1F884505D6011
:107AC0004FF0FF33C1F88430027004B962B670BC65
:107AD000704701230370F8E7F855002000E100E04B
:107AE000FC06FFBD094B9A687AB170B910B4EFF388
:107AF000108172B6064A1C6814605C685460986015
:107B000001B962B65DF8044B70477047F855002024
:107B100000E100E0F8B5234E4579234C234F03469E
:107B2000234847F82520801B04EBC506C00836799A
:107B3000000486BB1A680D88C2F8085593F9042022
:107B40008978002A1FDB02F1604202F56142490197
:107B5000C9B282F8001393F90420164F1649012682
:107B600002F01F05520906FA05F547F822505A7926
:107B700004EBC20540F003002E7144F8323003F0EC
:107B8000F1FB0020F8BD0D4D02F00F024901154434
:107B9000C9B22976DFE740F00200094903F0E2FBB1
:107BA0000820F8BD54220400843E00208C3E0020B2
:107BB000B422040000E100E07CC70300FCEC00E01C
:107BC00058C70300036801221A607047F0B40468C4
:107BD0004FF480358D40C4F80853066801F1500415
:107BE000C6F84853A4000668A4B20027375182B0F3
:107BF00036590468019601F5A87122F07F42019E72
:107C000044F821200268C2F8445313B10368C3F852
:107C1000045302B0F0BC70472DE9F0430E464FF418
:107C200080370168B740C1F848730168C1F808732C
:107C30000168044601EB8600D1F804C5D0F8401570
:107C4000C0F840C506F15005AD002068ADB24FF058
:107C5000000940F8059085B0A1EB0C014059029055
:107C600021F07F41012922F07F48029A45D0226805
:107C7000D2F80455C2F84473A8EB050222F07F4203
:107C8000012A06F5A87627D0226842F826802068C7
:107C9000D0F80455A8EB0501C3F1FF13013903F532
:107CA0007F4321F07F418B4212D341B1C0F844732E
:107CB00023680020C3F8047305B0BDE8F08308F121
:107CC000010240F826202068D0F804359D42EDD00E
:107CD0000D2005B0BDE8F08320680F4B08F10102CC
:107CE00040F8262043F001034FF480609847206855
:107CF000D0F804359D42D9D0EAE7074A019342F013
:107D000001024FF4806090472268019B42F8059081
:107D100052590392039AAAE750C70300026802234C
:107D2000C2F8443311B10268C2F80433704700BF8F
:107D30000368D3F8040100B97047002282B0C3F889
:107D40000421D3F804310193019B012002B0704754
:107D50004FF48033026803FA01F1C2F84813036854
:107D6000C3F80813704700BF5031890089B2036817
:107D7000585800B9704700225A5082B05B5801939E
:107D8000019B012002B070470368D3F804057047D7
:107D900090F9043005485A09403203F01F030121CD
:107DA00001FA03F340F82230704700BF00E100E021
:107DB000024A034B10681B68184700BF843E00202E
:107DC0008C3E00202DE9F04102230B8084680134B1
:107DD00030D000F58055083072B3334F9E464FF6D1
:107DE000FF764FF0010C4388DC1C00EB8404A542B5
:107DF00052D38488B44249D00488002C46D0846889
:107E0000B4F1FF3F42D0D7F80080A04503D23C60D8
:107E1000B1F800E04388734403331FFA83FEA1F8EE
:107E200000E04488033400EB8400854202D90468F2
:107E30000134D8D1BDE8F0811B4C9E464FF6FF7649
:107E40004388DA1C00EB8202954227D38288B24233
:107E50000BD002884AB18268571C06D02768974227
:107E600003D22260B1F800E04388734403331FFA61
:107E700083FEA1F800E04288033200EB82008542D5
:107E8000D8D903680133DBD1BDE8F08182F800C0A6
:107E9000B1F800E04388BEE7012313704FF480631C
:107EA0000B80BDE8F08100BFC83E0020F0B44368FD
:107EB0001BB1394AD468A34249D20023374F0B8003
:107EC0007A684FF0010C02F580544FF6FF760832C5
:107ED00094420ED8BCF1020FA1F800C007F11407BC
:107EE00057D07A6802F58054083294424FF0020C61
:107EF000F0D913680133EDD05388033302EB8303C9
:107F00009C42E7D39588B5420DD015885DB1956840
:107F1000B5F1FF3F07D00368AB4211D0538803335C
:107F200002EB8302D4E79C42D4D91A6801321A4684
:107F3000D0D05D88033503EB85039C42E2D2C9E7CC
:107F4000174B42601B8903810120F0BC7047126906
:107F50009342B2D813F00305AFD1114A04891289B4
:107F60009442AAD104689A689442A6D10B48426808
:107F7000934203D902F58052934207D38269934218
:107F800007D902F58052934203D201250D800120CA
:107F9000DBE70020D9E700BFC03C0020D03E002036
:107FA000B43E00202DE9F04FA34E8BB005464FF6AE
:107FB000FF793468002C00F0BB802278531E052B1B
:107FC00000F23782DFE803F0583B3B1E1E03002D12
:107FD00040F0B580DFF888C29CF80C209CF8003097
:107FE000002A00F0D280013B8CF80C50062B00F2E6
:107FF0002082DFE813F02B040E035F0139011E021B
:10800000FA020E02002D40F09A802379012B00F035
:108010005182002B00F0368205AF022B0595C7E98F
:1080200002553D6101D048F20E6506952378023B6A
:10803000042B33D8DFE803F0644C702C6000B4F8F4
:1080400014A0A17D002D40F006824FEA8A087B4FE4
:1080500008EB0A0307EB83031D895B6803EB8505C7
:10806000062900F25484DFE811F0C501B401A10132
:108070008E01690150013A01002D40F0E181237920
:10808000032B77D8DFE813F0CB00B800AD008E00EB
:1080900004238DF81430E388ADF82030684C04F1E7
:1080A000100554F8043B384603B19847A542F8D16F
:1080B000644965480025356001F0B6FA012163483E
:1080C00001F07EFB00287FF474AF0BB0BDE8F08FA9
:1080D00002238DF814302389ADF82030A388ADF841
:1080E0002230E3680793A37DA3F10603B3FA83F379
:1080F0005B098DF82430D1E705238DF81430CDE7E6
:1081000001238DF814302389ADF82030A388ADF811
:108110002230E3680793C1E703238DF81430E38826
:10812000ADF820302389ADF82230E3680793B5E736
:108130004449454801F048FA044630603DE705AF40
:108140000023BB600593C7E903334FF406456CE792
:1081500000239A001A4407EB82030020596800901C
:10816000082307F822003A4A3A4802F049F8002862
:10817000ABD03468384A05AF002353600593C7E994
:1081800002333B6148F20D654FE7072B00F249834C
:10819000DFE813F0C0024703470300032E033F014B
:1081A0003F0141032D4D2A4A29682A48234F4FF0A9
:1081B000000884F804800823CDF8008002F020F83D
:1081C000274B2C685B88A98803EB830307EB8302AA
:1081D00007F8238053682B60022354601181AB8021
:1081E000C5E71E4A1B4811680023237102249480AE
:1081F000012202F0A3F8BAE7104F3B78022BA7D078
:108200003B7D022B00F07C83134A05AF01231370E2
:10821000002353600593C7E902333B6105E70F4B29
:10822000104A19680B480123237100230093082387
:1082300001F0E6FF9BE700BFCC3E0020D03E0020CF
:108240009C3E0020C43E0020843F0020943F00203C
:1082500094C70300C03C0020AC3E0020983F0020A3
:10826000B43E00209CC70300BCF80230B74F03EBBC
:10827000830307EB8307FB68002B40F03D82042259
:108280008CF800207968B248012202F057F80546C0
:10829000002D3FF41AAF346805AF41F61D5200239C
:1082A0009542BB600593C7E9033308BF1D463FF401
:1082B000BCAE0DE3DCF80420A6485388848801682E
:1082C000A34803339BB29B0001EB8401002400947C
:1082D00003248CF8004001F093FF0546D8E7E288BC
:1082E000204641F61D5508EB0A0107EB8101D31C1E
:1082F0000A8913440B81E2880446D04407EB8807BF
:108300007B89033B9B1A7B81C6E7934B934A1D886D
:1083100051688F48924A00234FF0060C84F816C02B
:108320000093042301F06CFF18BB05EB850507EBF8
:10833000850701233B740BB0BDE8F08F874BA26922
:1083400085491A604FF0000B1846C3F804B0FFF7D8
:10835000ADFD002800F0BF820223A3750423294647
:10836000CDF800B0E2187A4801F04AFF00283FF447
:10837000ACAEA37D3068E288022B00F2B9820446DD
:1083800048F20D65B9E7E388226971484FF0010CA6
:1083900005F10C01002584F816C09B00009501F042
:1083A0002FFF0028E5D10BB0BDE8F08F23696848A6
:1083B000002B14BF032301230022A37505F108013C
:1083C0000092042304F10C0201F01AFF0028D0D11E
:1083D0007BE6032A0CBF052306230022A375291D73
:1083E0000092042304F10802594801F009FF002813
:1083F000BFD16AE602230022A37504230092294616
:10840000E218534801F0FCFE0028B2D10BB0BDE8E1
:10841000F08F504B534A19684D4800230093CCF815
:10842000043007238CF80030082301F0E9FE0546EC
:108430002EE705AF0023BB600593C7E90333F2E5E0
:1084400005AF494A002353600593C7E902333B61F6
:108450004FF40645E9E50229E28869D83B4F4FEA27
:108460008A0808EB0A0107EB810105AF4B89033B42
:108470009B1A00224B81BA600592C7E903224FF490
:108480000645D2E502232371CDE9065505AFE36821
:10849000059338460DF11201FFF708FD002840F062
:1084A000D88148F209650023C7E90033C7E90233E0
:1084B0003B61BAE52C4B1B78002B00F0FD81DFF807
:1084C000ACE0BEF80480B8F1010F10D81F4F08EBE4
:1084D000880207EB82021378B3B108F1010399B265
:1084E00001299846AEF8043002F11402F3D905AF21
:1084F000082200211D4813F0A5F90023BB60059355
:10850000C7E90333346890E55368DEF8001003F5DB
:10851000805003F1080C002900F0CC814B88033314
:1085200001EB8301884223D80023CEF80030D4E742
:108530004FEA8A08054F08EB0A0107EB8101D31CBB
:108540000A8913440B81E2888BE700BFD03E0020EC
:10855000C03C0020983F0020A43F0020903E002017
:1085600090C703009CC70300AC3E0020A83F00203A
:108570000B680133D8D04B88033301EB8303984257
:10858000D2D30392B1F804A0CA451ED0B1F800B00E
:10859000BBF1000F19D08A68013216D0E388039A24
:1085A000CEF800105345B6D100230093B54AB64823
:1085B000042301F025FE002840F09D8108EB880887
:1085C00007EB880701233B747FE598420BD91968B4
:1085D0000131194607D0B3F802A00AF1030A03EBF0
:1085E0008A039842CED2039A9EE7BCF80220A74F96
:1085F0009300134407EB8307062000237968A44AFD
:1086000000938CF8000008239F4801F0F9FD05460F
:108610003EE6BCF802E09D4FDCF804204FEA8E04F1
:1086200004EB0E0307EB8303596801F58050002A21
:1086300040F0C88001F10802904240F2CA801368FD
:10864000013300F0C6805388033302EB8303984262
:10865000C0F0BF8095884D4500F01E811588002D23
:1086600000F01A819568013500F01681CCF80420DD
:10867000884C5388A5882168834803339BB29B00AC
:1086800001EB850122E6012005468400231807EB53
:108690008303DCF804205968ACF8025001F5805ED1
:1086A000002A00F031815388033302EB83027245C4
:1086B0001CD21368013319D05388033302EB8303B0
:1086C0009E4513D395884D4504D0158815B19568FE
:1086D0000135CBD19E4509D91A6801321A4605D019
:1086E0005D88033503EB85039E45EBD2231807EB2A
:1086F0008307FB68002B72D0664B6348196802221F
:108700009A8005228CF800200023012201F016FE39
:108710000546BDE55D4FBCF808103A7D3B78B2FADE
:1087200082F252090131B3FA83F35B098CF80B2012
:10873000ACF80810002201218CF80A30ACF80220B5
:108740008CF80C208CF800104BB1504FF8680022C8
:108750008CF80A2018B93A7C002A40F0D3809CF8A3
:108760000B304BB1494F3B6A00228CF80B201BB9F0
:1087700097F82430002B86D105AF0023BB608CF81E
:108780000030ACF80230CCF804300593C7E903336D
:1087900034684AE4BCF802E03E4D3C4FDCF804206B
:1087A000AB8850884FEA8E0404EB0E0107EB810181
:1087B0000333496803444FF0020801F58050AB8051
:1087C0008CF800805388033302EB830290423FF61B
:1087D00036AF744407EB8407FB68002B8CD1042070
:1087E0008CF800000122284801F0A8FD05464FE55D
:1087F000BCF80220254F27489300991807EB810108
:1088000004684D68B0F804E04C6002240560A1F8EB
:1088100008E08480EDE601238CF800309CF80A30F3
:1088200092E7013B062B3FF604AE01A252F823F07B
:108830004D88020013860200B582020069820200A0
:1088400033840200EB850200138402009CF80A3096
:108850007AE706990B4A8B88E3800B8823810A48C4
:1088600000950423BDF8124001F0CAFC00283BD15A
:10887000064B04EB840403EB8404012323740BB044
:10888000BDE8F08F90C70300C03C0020D03E002020
:1088900094C70300983F002083429AD21A6801329D
:1088A0001A4696D05D88033503EB850383427FF635
:1088B000D1AE8EE7614635E605AF29460822164857
:1088C00012F0C0FF0595C7E902553D6148F2016508
:1088D0003468FFF7AABB05AF0590C7E9020038610D
:1088E00048F20965FFF7A1BB346848F20D65DAE587
:1088F00048F20D65F7E4346848F20D6505AFD2E53E
:10890000012326E40546C0E601F10802CFE6E2882D
:10891000204648F20E65E6E4A83F00204068FFF7D5
:1089200041BB00BF2DE9F04782B0002A64D0B2F805
:1089300000A0B2F802900E46054601A948489846A4
:1089400000F004FE1C220446002112F07BFF002CE4
:108950003ED0002784F80080A4F814A0A77573689F
:10896000236101213F4800F01FFFE060338823812D
:108970007388A380B8F1030FA4F8069018D067811C
:1089800001A9374800F010FE3DB100236B60E1689B
:10899000354A29601289AB722A810121334800F0DF
:1089A000F7FE044670B10024204602B0BDE8F0870F
:1089B0000423A3752B68A36101A96781284800F0EF
:1089C000F3FDE2E7FFF7EEFA204602B0BDE8F087DC
:1089D000274B0AEB8A0A03EB8A0AC9F57F49BAF8E2
:1089E0000A3048F2076409F1FD0999442046AAF8C3
:1089F0000A9002B0BDE8F087B1F8089009F10302CF
:108A000092B240F2FE34A2421AD8194C27783FB9EC
:108A10006689258935441544ADB2B5F5806F12D904
:108A2000257D3DB9E68BA58B35441544ADB2B5F532
:108A3000806F10D948F20664204602B0BDE8F08786
:108A400048F20864B0E7BA46BD003D4404EB850433
:108A5000324462816FE74FF0010A5746F4E700BFE6
:108A6000843F0020C83E0020B43E0020943F0020F8
:108A7000D03E002038B5094B1A68042A0AD01D6878
:108A8000074C02460121184644F8252000F08CFED0
:108A9000002038BD48F20B6038BD00BFA03F002069
:108AA0009C3E00202DE9F04F994D89B02A78002393
:108AB000CDE90333CDE90533079372B1954C04F149
:108AC000100554F8043B03A803B19847A542F8D118
:108AD0000024204609B0BDE8F08F281D02F0FF09F0
:108AE00000F07AFE0028F3D140F6F8731B685C1C96
:108AF00046D04FF0805211695269DFF844828649AE
:108B0000C8F810304046A3F540530022C8F80C3096
:108B100001F048FB04460028DBD11C238C227F494E
:108B20007F48DFF820A200F0D7FC26464FF0030B69
:108B30002746D8F80C3016EB030CF25875D0794B59
:108B40009A4228D1DCF8043077498B4200F09280B9
:108B500001318B4269D1B9F1000F40F0A280734B13
:108B60007349C3F800C0604600220193FFF72AF959
:108B7000019B9B88022B0CBF042308231C431BE092
:108B80006C4B4FF080521B6811695269581C08BF2A
:108B900002FB01F3B1E701324CD007EB87030AEB8C
:108BA000830203210BF1FF3B01370AF823101FFA60
:108BB0008BFBBFB2C2F804C006F58056B6F5405F25
:108BC000B7D1BBF1010F40F2A080E4B2022C00F05B
:108BD0009C80062C0ED14F4C012200232A7004F1F8
:108BE00010066B6054F8043B03A803B19847A642F3
:108BF000F8D16DE7002C00F0888002A9484800F009
:108C0000A5FC1C220546002112F01CFE002D79D087
:108C10000123013C2B700A2C5CD8DFE804F06D5B6B
:108C20006D5B705B705B6A596A00531C02D03D4BF0
:108C30009A42B2D10CF104030CF580511A6801324A
:108C400003F10403A9D18B42F8D1384B1A68002AEA
:108C500037D007EB87030AEB830102223648C1F8BD
:108C600004C00A810AF82320791C47808FB244F09F
:108C70000104A1E707EB8703990000220AF82320EB
:108C80000AEB010301F11002083152445144C3F8C8
:108C900004C060460137FFF795F844F00204BFB204
:108CA0008AE7254A214B578007EB870E0AEB8E0295
:108CB000022118680AF82E10013750601181BFB2E6
:108CC0004EE70222C3F800C09A804FF00109CEE7B8
:108CD00002232B7102A9124800F066FC01211748FB
:108CE00000F056FD044600287FF4F2AEFFF75AF973
:108CF000EFE603232B71EDE700232B71EAE7012355
:108D00002B71E7E748F20764E3E648F20A64E0E61D
:108D1000AC3E00209C3E0020BCC90300F83E002071
:108D2000843F0020DEC0ADDEFE011EF1983F002032
:108D30009C3F002014100010B43E0020943F0020FF
:108D4000C03C0020D03E002010B309B370B582B003
:108D50000C460DF106010546FFF7A8F818B948F2D0
:108D6000096002B070BDBDF806000B4B6E6800EBE9
:108D7000800003EB800001210C3000F015FD26601F
:108D80006B6801220C3300206360AA7202B070BDD0
:108D900048F20460704700BFD03E002010B310B509
:108DA00082B00DF106010446FFF780F8B0B1BDF8BE
:108DB00006300E4A03EB830302EB8303DA684AB101
:108DC000A27A3AB1DA680021013A0846DA60A17263
:108DD00002B010BD48F2056002B010BD48F2096053
:108DE00002B010BD48F20460704700BFD03E0020C2
:108DF0002DE9F047514B1B7882B073B3002944D062
:108E00000A884FF6FF739A4221D04B88FBB14D6818
:108E100015F0030533D1B1F8089009F103039BB2B3
:108E200040F2FE32934233D8454A14783CB9568911
:108E3000148934441C44A4B2B4F5806F2BD9147D3A
:108E40008CB148F20665284602B0BDE8F08748F2CA
:108E50000365284602B0BDE8F08748F20165284660
:108E600002B0BDE8F087D68B948B34441C44A4B286
:108E7000B4F5806FE5D84FF00108C4460DE048F224
:108E80000265284602B0BDE8F08748F20465DAE7DB
:108E900048F20865D7E7A846AC464FEA8C07674416
:108EA00002EB870733440C46824601A925487B81A3
:108EB00000F04CFB1C220646002112F0C3FC002EE1
:108EC00030D002230027A6F814803370B77563688A
:108ED000336101211C4800F067FCF0602388338176
:108EE0006388B38001A97781A6F80690154800F041
:108EF0005BFBBAF1000F0AD0CAF80470F268134B9A
:108F0000CAF800201B898AF80A70AAF808300121E3
:108F10000F4800F03DFC0446002894D1FFF742F8CA
:108F2000254690E77B89C9F57F4909F1FD099944F8
:108F3000A7F80A9048F2076585E700BFAC3E00201D
:108F4000D03E0020843F0020C83E0020B43E0020D8
:108F5000943F0020A0B1114A1278CAB181B110B477
:108F60000C884FF6FF7294420DD04A885AB14A6875
:108F700012F003020FD103235DF8044BFFF7D2BCBC
:108F800048F20460704748F203605DF8044B704794
:108F900048F20160704748F20260F6E7AC3E0020FC
:108FA00070B51D4B1B7882B00BB34FF6FF73984220
:108FB00027D001A90446194800F0C8FA1C2205462A
:108FC000002112F03FFCBDB105230126EC8001A970
:108FD0002B702E71114800F0E7FA3146104800F06E
:108FE000D7FB044690B10024204602B070BD48F281
:108FF0000164204602B070BD48F20764204602B00A
:1090000070BD48F20364204602B070BDFEF7CAFF8F
:10901000204602B070BD00BFAC3E0020843F00205F
:10902000943F002010B5194B1B7882B0F3B101A911
:10903000174800F08BFA1C220446002112F002FCB3
:10904000F4B10623237001A9114800F0ADFA114BC9
:109050001A780AB101221A7301210F4800F098FB17
:10906000044640B10024204602B010BD48F201641D
:10907000204602B010BDFEF795FF204602B010BD9D
:1090800048F20764204602B010BD00BFAC3E00208D
:10909000843F0020B43E0020943F00202DE9F0479B
:1090A0003A4C2478002C69D0002A6BD0002B69D070
:1090B000B3F804C0BCF1010F16D8354E0CEB8C048C
:1090C0008A4606EB84064FF6FF7E4FF000083478A0
:1090D0006CB10CF1010C1FFA8CF4022C9C8006F18F
:1090E00014064FF0010CF2D148F2096032E01C681E
:1090F000756805F58057002C3DD06588033504EB75
:109100008504BC4202D3C3F80080E2E7256801353C
:10911000F9D06588033504EB8505BD42F3D8B4F872
:109120000490F14518D0B4F80090B9F1000F13D0B5
:10913000A168013110D01C60A5888542D8D125884E
:109140005545D5D1A16811601968124B51601B8932
:1091500013810020BDE8F087AF42D4D92C680134D8
:109160002C46D0D0B5F8029009F1030905EB89052A
:10917000AF42D4D2C7E705F10804C2E748F2016064
:10918000BDE8F08748F20460BDE8F087AC3E0020FF
:10919000D03E0020B43E0020374B1B78002B64D01B
:1091A000002965D0002A63D02DE9F0439788012F6C
:1091B00014D8324D07EB8703814605EB83054FF644
:1091C000FF7C4FF0000E2B785BB10137BBB2022B56
:1091D000938005F114054FF00107F4D148F20960BE
:1091E0002FE013686C6804F58056002B3AD05C8839
:1091F000033403EB8403B34202D3C2F800E0E4E794
:109200001C680134F9D05C88033403EB8404B44255
:10921000F3D8B3F80480E04515D0B3F80080B8F176
:10922000000F10D0986801300DD013601C884C4599
:10923000D8D19B680B601268114B4A601B890B8167
:109240000020BDE8F083A642D7D923680133234626
:10925000D3D0B4F8028008F1030804EB8804A642D6
:10926000D7D2CAE704F10803C5E748F201607047A6
:1092700048F20460704700BFAC3E0020D03E0020A2
:10928000B43E0020374B1B78002B64D0002965D0FA
:10929000002A63D02DE9F0439788012F14D8324D6E
:1092A00007EB8703814605EB83054FF6FF7C4FF004
:1092B000000E2B785BB10137BBB2022B938005F116
:1092C00014054FF00107F4D148F209602FE013684C
:1092D0006C6804F58056002B3AD05C88033403EBAD
:1092E0008403B34202D3C2F800E0E4E71C6801340F
:1092F000F9D05C88033403EB8404B442F3D8B3F8A8
:109300000480E04515D0B3F80080B8F1000F10D00C
:10931000986801300DD013609C884C45D8D19B686B
:109320000B601268114B4A601B890B810020BDE85D
:10933000F083A642D7D9236801332346D3D0B4F8AB
:10934000028008F1030804EB8804A642D7D2CAE7DA
:1093500004F10803C5E748F20160704748F2046071
:10936000704700BFAC3E0020D03E0020B43E00203D
:1093700020B119B103680B600020704748F2046007
:10938000704700BF2DE9F84F504B1B78002B00F0C1
:1093900095800446002800F095801222002112F0EA
:1093A00051FADFF82CE1608821896589DFF8248192
:1093B00003237246238000264FF6FF7C4FF0010AFC
:1093C000814613895089576803449BB2002F43D0CC
:1093D0003868404540D1786800F16E6000F5FF3094
:1093E0000230012838D8B00030440EEB80001D4414
:1093F000C768A089B944A4F8029057896581C3F56C
:1094000080639BB29842394438BFA3812181576859
:10941000BB68013307F1080B07F5805017D07F892F
:1094200003370BEB8707B84245D35B469F886745F8
:1094300016D01F88A7B19F68013711D0A7880137C0
:10944000A7805F88033703EB870398421AD814324A
:109450007EB30020BDE8F88F208801382080C2E765
:10946000B4F806B0E7890BF1010BA4F806B0B3F825
:1094700002B003375F44E7815F88033703EB87035C
:109480009842E4D91F680137E1D05F88033703EBC6
:109490008707B842CAD2C31AC3F38F03E788E089AB
:1094A00084F810A001370344E780E3811432002ED2
:1094B000CFD1012685E740F2FE33EFE748F20160A5
:1094C000BDE8F88F48F20460BDE8F88FAC3E00209C
:1094D000D03E0020DEC0ADDE99B110B4B2FBF3F493
:1094E00003FB1424A4B244B9C0E90014846082814F
:1094F000C38120465DF8044B704709205DF8044B9A
:1095000070470E20704700BF82B050E8022FC1881C
:10951000B2EB324F4FF0000317BF92B241EA014164
:1095200042EA014104E04268B2EB324F08BF012336
:1095300040E80212002AE8D18DF807309DF8073084
:10954000002B0CBF1120002002B0704730B482B055
:1095500050E8013F9DB2C48925448489A54228BFB3
:109560002D1B0489A54202BFBFF32F8F002207E005
:10957000C5EA030540E80154002CE9D14FF001028F
:109580008DF803200193019B9DF803200B602AB105
:109590000B880068184402B030BC704702F0FF032B
:1095A000184602B030BC70470A884B889A4201D0F6
:1095B0000020704750E8012FC2EA024240E8012330
:1095C000002BF7D10120704730B482B050E8023F41
:1095D0001FFAA3F5C488A54202BFBFF32F8F002254
:1095E0000DE0C48925448489A54228BF2D1BC3EA08
:1095F000054540E80254002CE8D14FF001028DF8F7
:1096000003200193019B9DF803200B602AB14B8836
:109610000068184402B030BC704702F0FF031846DF
:1096200002B030BC704700BF0A884B889A4201D014
:109630000020704750E8022FC2EA224240E802238D
:10964000002BF7D10120704701F01F024B090121C7
:1096500000EB8300914000F083B800BF10B50123F8
:1096600001F01F04490900EB810003FA04F100F046
:109670006BF8E04000F0010010BD00BF01F01F02D8
:1096800001234909934000EB8100D94300F074B8ED
:109690004B0901F01F0150F82300C84000F0010001
:1096A000704700BF2DE9F04F01F1FF3A83B04FEA58
:1096B0005A130E46044601934FF000094FF001087B
:1096C00054F8292004EB8907D24392FAA2F2B2FAA5
:1096D00082F2202A24D04FEA491505EB020A5645AA
:1096E0000CD81DE03B68DB4393FAA3F3B3FA83F392
:1096F000202B05EB030A13D0564511D90AF01F0B96
:109700004FEA5A1008FA0BF104EB800000F01CF845
:1097100020FA0BF0C307E5D4504603B0BDE8F08F44
:10972000019A4A4509F1010301D09946C8E7B246BA
:10973000F2E700BF50E8002F0B4640E8003C9CF0E9
:10974000000FF7D11046704750E8002F42EA01039E
:1097500040E8003C9CF0000FF6D11046704700BF77
:1097600050E8003F43EA010240E8002C9CF0000F63
:10977000F6D11046704700BF50E8003F03EA0102EF
:1097800040E8002C9CF0000FF6D11046704700BF57
:1097900050E8002F02EB010340E8003C9CF0000F72
:1097A000F6D11046704700BF50E8003F03EB0102BE
:1097B00040E8002C9CF0000FF6D11046704700BF27
:1097C00050E8003FA3EB010240E8002C9CF0000FA2
:1097D000F6D11046704700BF012350E800CF4CEA95
:1097E000030240E8002191F0000FF6D16046704777
:1097F000012350E8002F42EA030C40E800C191F039
:10980000000FF6D160467047002350E800CF0CEA05
:10981000030240E8002191F0000FF6D16046704746
:10982000B8B130B4D0E90112521A0468D2B2531E52
:109830002160DBB242B101680A685C1E551C0D60F4
:109840001370E3B2FF2BF6D103680020187130BC0F
:1098500070470E20704700BFF0B583B00446002566
:109860000DF107008DF80750FEF716F9D4E9003125
:109870001A688A4210D9511E19602168A3680F68BE
:1098800012F8015C0A79268AE068DB1BDBB29A4297
:1098900006FB050538BF0B719DF80700FEF722F99E
:1098A000284603B0F0BD00BF30B5054683B00023A5
:1098B0000DF107000C468DF80730FEF7EDF82A6829
:1098C0001368591C1160E9682A8A641AB4FBF2F41F
:1098D0001C709DF80700FEF705F903B030BD00BF0E
:1098E000826842B110B5044643690168006998472F
:1098F0000023A36010BD70470EB400B582B0039979
:1099000021B104AB01AA019300F0B2F802B05DF8F6
:1099100004EB03B0704700BF2DE9F04F8A4683B0D7
:109920009245164605469846DDE90CB1C0F09C808C
:1099300053460127B3FBF6F39E4207F10107F9D91D
:10994000474538BF474611F00103AA68009302D18A
:10995000BBF1000F68D1012403E008F1FF3806FBDA
:1099600004F4B8F1010FF8D8BAFBF4F08642F6D946
:10997000DFF8F8904FF00D0807E0B442B4FBF6F3BF
:109980001CD3BAFBF3F0AA681C4619F8003029680A
:109990000A2B04FB10AA01EB020E02F1010028D0F1
:1099A000A8608EF80030D5E901329A42E5D3284606
:1099B000FFF796FFB4FBF6F3B442E2D2009BABB1E3
:1099C000BBF1000F12D0BB4510D92024AB682A6828
:1099D000591CA960D454D5E901329A420BF1FF3BDE
:1099E0001ED2BBF1000F01D0BB45EFD103B0BDE8E3
:1099F000F08FA86001F80280D5E90120904204D2DE
:109A00002A6802EB000E0130CAE728460193FFF7EF
:109A100067FFAA682968019B501C01EB020EBFE793
:109A20002846FFF75DFFDCE78B0717D42024BB45F2
:109A300091D92B68511CA9609C54D5E901329A42F6
:109A40000BF1FF3B05D2BBF1000F84D0BB45F0D139
:109A500081E72846FFF744FFAA68F4E7B8F1000F52
:109A60000CBF30242024E2E7012769E7B0C70300D8
:109A7000002900F0E8822DE9F04F054685B09146B7
:109A80000C460E78DFF814A74FF00D0B13E0AB680F
:109A900028680A2E03F1010200EB030100F0268181
:109AA000AA600E70D5E901329A4280F011812678C1
:109AB000002E00F014810134002E00F01081252EBC
:109AC000E5D12146002711F8012B2D2A00F0E58071
:109AD000302A00F0E6802B2A00F0D6802A2A00F0F7
:109AE0001181A2F13006F3B2092B03D922E2A3F1CE
:109AF00030060146084606EB860310F8012BA2F15A
:109B00003004092C02EB4303F1D92E2A00F0068120
:109B10004FF0000802F0FB03682B01F1010405D1AE
:109B200014F8012B02F0FB03682BF9D0253A532AD5
:109B3000BDD801A353F822F0CD9E0200AF9A0200D7
:109B4000AF9A0200AF9A0200AF9A0200AF9A0200E9
:109B5000AF9A0200AF9A0200AF9A0200AF9A0200D9
:109B6000AF9A0200AF9A0200AF9A0200AF9A0200C9
:109B7000AF9A0200AF9A0200AF9A0200AF9A0200B9
:109B8000AF9A0200AF9A0200AF9A0200AF9A0200A9
:109B9000AF9A0200AF9A0200AF9A0200AF9A020099
:109BA000AF9A0200AF9A0200AF9A0200AF9A020089
:109BB000AF9A0200AF9A0200AF9A0200AF9A020079
:109BC000AF9A0200AF9A0200AF9A0200AF9A020069
:109BD000AF9A0200AF9A0200AF9A0200AF9A020059
:109BE000AF9A0200AF9A0200AF9A0200AF9A020049
:109BF000AF9A0200AF9A0200AF9A0200AF9A020039
:109C0000AF9A0200E59E0200AF9A0200AF9A0200EE
:109C1000AF9A0200AF9A0200AF9A0200AF9A020018
:109C2000AF9A0200AF9A0200AF9A0200AF9A020008
:109C3000AB9C0200479E0200AF9A0200AF9A02005E
:109C4000AF9A0200AF9A0200479E0200AF9A02004C
:109C5000AF9A0200AF9A0200AF9A0200AF9A0200D8
:109C6000AF9A0200BF9D0200AF9A0200AF9A0200B5
:109C7000659D0200AF9A0200499D0200AF9A020062
:109C8000AF9A0200E59E020047F004070C46214609
:109C900011F8012B2D2A7FF41BAF47F001070C466A
:109CA000F5E747F002070C46F1E7D9F800301A1D36
:109CB000C9F800201E78AB680A2E00F04C822A6892
:109CC000591CA960D654D5E901329A42FFF4EFAE8F
:109CD0002846FFF705FE2678002E7FF4ECAE2B7B9E
:109CE000002B40F0218105B0BDE8F08FAA6000F89C
:109CF00003B0D5E901329A4280F00E8129681144FF
:109D00000132CDE6D9F800301A1DC9F8002062787A
:109D10001E682E2A04F102007FF4FAAE4A78A2F1FE
:109D20003003092B01464FF000083FF6F3AE08EB75
:109D3000880802EB480811F8012FA2F13003092B23
:109D4000A8F13008F3D9E5E6D9F800301A1DC9F8B2
:109D5000002019680197434600960A222846FFF71B
:109D6000DBFDA4E6D9F800301A1DC9F8002017F071
:109D70000107D3F8008040F0EA80B8F1000F03D06B
:109D8000404611F06FFD0746BE4240F25D81002E55
:109D900000F05A81202102E0BE4200F05581AA68FD
:109DA0002B68501CA8609954D5E90123934206F111
:109DB000FF36F1D32846FFF793FD2021ECE7D9F8D1
:109DC0000020131DC9F80030AB6829681768581CBB
:109DD0003022A860CA54D5E90123934280F0F18073
:109DE0002A68581C7821A860D154D5E901239342F0
:109DF00080F0E2800F2F03D93A4612090F2AFCD8CF
:109E00004FF0805606E00F2E4FEA16137FF64FAE46
:109E10001E46AB68B7FBF6F21AF802802868B8F164
:109E20000A0F06FB127700EB030103F1010267D072
:109E3000AA6081F80080D5E901329A42E3D328462E
:109E4000FFF74EFDDFE7D9F800301A1DC9F80020F2
:109E5000196881EAE172A2EBE172092A4FF0010070
:109E60000BDDDFF83CC300E01A46ACFB02E3632ADB
:109E700000F101004FEAD303F6DC4045034638BF4A
:109E80004346029307F00203002E57D00029C0F288
:109E90009D80780700F19A80002B00F09980B8F13E
:109EA000000F40F095800029C0F236817B0700F159
:109EB000468107F00303022B00F0FD80CDE9006727
:109EC00043460A222846FFF727FDF0E5AB682A68DB
:109ED000581C2521A860D154D5E901329A42FFF4DB
:109EE000E6ADF5E6D9F800301A1DC9F8002019686A
:109EF00001974346009610222846FFF70DFDD6E550
:109F0000AA6000F803B0D5E901329A4280F093804C
:109F10002B68991801328BE72846FFF7E1FCAB6804
:109F200029685A1C1944BBE5284605B0BDE8F04F26
:109F3000FFF7D6BC084600262146E6E52BB1B8F16E
:109F4000000F00F02581FB07ADD40026ABE798F8A1
:109F50000020002A00F02081AB684746C8F10101CB
:109F6000D5F800E00A2A01EB07080EEB030C03F119
:109F7000010054D0A8608CF80020D5E90123934259
:109F800042D217F8012F002AEAD146457FF68FAD5D
:109F9000202702E046453FF48AADAA682B68511C91
:109FA000A9609F54D5E901329A4206F1FF36F1D3F8
:109FB0002846FFF795FCEDE72846FFF791FCAB68D4
:109FC00018E72846FFF78CFCAB6809E7013E63E71A
:109FD000FA073FF568AF002EB7D0029B9E427FF68E
:109FE00062AF2023AA68501CA86028688354D5E972
:109FF0000102824206F1FF3680F0BC80002EA4D020
:10A00000029A9642EED14EE728460291FFF768FC8D
:10A0100017F8012F002AB8D0AB680299A0E7A86012
:10A020000EF803B0D5E90130984260D22B6803EBFB
:10A03000000C01309EE72846FFF752FCA9682B6808
:10A040004A1C1944F4E6704798F80060002E3FF46B
:10A050002EADAB6828680A2E03F1010200EB030164
:10A0600011D0AA600E70D5E9012393421BD218F8D3
:10A07000016F002E3FF41BAD28680A2E03F1010288
:10A0800000EB0301EDD1AA6000F803B0D5E901327D
:10A090009A4239D2296811440132AA600E70D5E97A
:10A0A00001239342E3D32846FFF71AFC18F8016F07
:10A0B000002ECED1FBE4B8F1000F7FF4FFAE002EEE
:10A0C00068D0029B9E427FF6F9AE3023AA68501CEE
:10A0D000A86028688354D5E90102824206F1FF3660
:10A0E0004FD2002E56D0029A9642EFD1E6E628468D
:10A0F000CDE90221FFF7F4FBAB682A68581C02EB9C
:10A10000030CDDE9022135E72846FFF7E9FBAB68E0
:10A1100029685A1C1944A4E7AA68531CAB602B6831
:10A120002D209854D5E901329A42C1F10001FFF483
:10A13000C0AE28460391FFF7D3FB0399B9E6AA689E
:10A14000531CAB602B682B209854D5E901329A42FE
:10A15000FFF4AFAEEDE72A68591CA96002F803B01E
:10A16000D5E901239342FFF4AAAD2846FFF7B8FBD7
:10A17000AB68A4E528460391FFF7B2FB20230399BF
:10A180003CE728460391FFF7ABFB30230399A8E790
:10A19000464688E6002691E69046F6E6B0C70300FC
:10A1A000CDCCCCCC10B582B038B1B9B101600B6860
:10A1B000114602B0BDE8104018470B480B4C0C4B41
:10A1C0000C4A0D49001BC0080E24000440F0010099
:10A1D000009401F067FB0E2002B010BD0248034C52
:10A1E000034B064AEDE700BFEC22040054220400B2
:10A1F000C0C7030074C803007CC80300A8C80300DC
:10A200002DE9F04182B0002858D0002A68D0D0F85B
:10A2100000C0BCF1000F68D01C4673B34768D7F884
:10A220000480B3FBF8F708FB1737002F37D18F07EF
:10A230003AD112F0030F3CD1C768B94211D233486A
:10A24000334C344B344A3549001BC00810240004F9
:10A2500040F00100009401F025FB204602B0BDE86B
:10A26000F0814D1E06692C44B442E8D8DCF80C405D
:10A27000A44602B0BDE8F04160472448244C254B79
:10A28000274A2649001BC0080924000440F00100A9
:10A29000009401F007FB204602B0BDE8F0811B48A6
:10A2A0001B4C1C4B1F4AECE71848194C194B1E4A13
:10A2B000C9E71648164C174B1C4AC4E71348144C00
:10A2C000144B1B4A1549001BC0080E24000440F023
:10A2D0000100009401F0E6FA204602B0BDE8F081EA
:10A2E0000A480B4C0B4B134AECE7094C0748094B47
:10A2F000114A0A49001BC0080824000440F001006C
:10A30000009401F0CFFA2046A8E700BFEC22040039
:10A3100054220400D4C7030078C903007CC803009A
:10A32000B8C8030010C903003CC9030054C90300A6
:10A3300074C8030008C90300FCC80300F0B583B06B
:10A34000002843D0D0F800C0BCF1000F4ED03AB383
:10A350004768D7F800E00EF1FF370F4231D1C768E8
:10A36000B94210D229482A4C2A4B2B4A2B49001BB0
:10A37000C0081024000440F00100009401F092FA9B
:10A38000204603B0F0BD4D1E04690EFB0255A542E8
:10A39000E8D8DCF81040A44603B0BDE8F0406047C0
:10A3A0001B4C1A481B4B1E4A1C49001BC0080924A1
:10A3B000000440F00100009401F074FA204603B05C
:10A3C000F0BD1248124C134B164ACFE7104C0F4801
:10A3D000104B154A1149001BC0080E24000440F020
:10A3E0000100009401F05EFA2046CAE7084C0748D5
:10A3F000084B0E4A0949001BC0080824000440F01D
:10A400000100009401F04EFA2046BAE7EC22040065
:10A4100054220400E8C7030024C803007CC80300DA
:10A42000B8C80300FCC7030074C80300FCC80300DD
:10A4300029DF704728DF70470846704700207047C3
:10A44000024B187A003018BF012070474C400020A2
:10A45000034B187A0122B0FA80F05A744009704711
:10A460004C40002008B510461A4611F0DDF90020D6
:10A4700008BD00BF08B514220021044811F0E2F91C
:10A480000348FFF741F8002008BD00BF4C40002002
:10A490003C40002010B50A4C0A4B43602046FFF7B1
:10A4A0009BF908B1002010BD06F0A4F81C2320740D
:10A4B0008C2205490548FFF70FF8002010BD00BFAA
:10A4C0004C400020B0C90300B03F00203C400020B9
:10A4D00030B55D4D2B7A87B0002B39D05B4B1C68B3
:10A4E00002232B722379002B3DD0012B24D022682C
:10A4F0009368C3B1002368460093C0E90233032187
:10A5000003610191A36805932379002B57D0012B98
:10A5100007D102238DF80030E3681B0302936369BF
:10A52000049393689847002349494A482B726B600B
:10A53000FFF77AF807B030BDD4E903031844FFF7FA
:10A5400079FF20B31128D2D101232B7207B030BD7F
:10A550003F494048FFF738F83C4B04461860002854
:10A56000BED16860E6E7D4E90520121AB2F5805F33
:10A5700028BF4FF48052D4E903139208012A38BF50
:10A58000012201441844FFF753FF0028DAD12B7C45
:10A59000002BCFD12B7A002BCCD0022B0AD1E86034
:10A5A0002379DBB1012B05D1D4E904320133934285
:10A5B00023611FD06B7C73B9FFF78AFFBAE70123D1
:10A5C0008DF8003023690293E36803936369049371
:10A5D00093689847A7E705F0FDFFABE7D4E90523AB
:10A5E000D11AB1F5805F94BF5B1803F580539A428E
:10A5F000A361DFD100232B7222689168A9B168465C
:10A600000093C0E90133C0E90333A36805932379BC
:10A6100083B1012B07D102238DF80030E3681B03BF
:10A620000293636904939368984709490948FEF7C0
:10A63000FBFFBFE701238DF8003023690293E36835
:10A64000039363690493EEE74C40002064400020CC
:10A65000604000203C40002000F0FD03012B00D0B2
:10A660007047A0F10100044BB0FA80F040090022CD
:10A6700018745A74FFF72CBF4C4000202DE9F047A6
:10A6800084B082468946184803A990461F46FEF7C3
:10A690005DFF20B3044600211C220D46134E11F02D
:10A6A000D1F80C9BC4F800A0A360C4E903896761DA
:10A6B00003A925710C48FEF777FF301DFFF78CF8D2
:10A6C00018B1284604B0BDE8F087737C002BF9D19F
:10A6D0000190FFF7FDFE019804B0BDE8F08704206B
:10A6E00004B0BDE8F08700BF3C4000204C40002093
:10A6F0002DE9F04385B081460D46174803A917465A
:10A700009846FEF723FF18B304461C22002111F0DF
:10A7100099F8124EC4F8009001232D0BC4E902856C
:10A72000676103A923710C48FEF73EFF301DFFF758
:10A7300053F818B1002005B0BDE8F083737C002BFE
:10A74000F9D10190FFF7C4FE019805B0BDE8F08390
:10A75000042005B0BDE8F0833C4000204C400020C0
:10A76000831E012B3FD810B5334C237A86B0002BC3
:10A7700037D0022B31D103283AD0304B00221B684E
:10A78000E2601A79002A40D0012A26D1D3E90421B7
:10A7900001328A421A6120D10020207219688A6829
:10A7A000BAB10022CDE90322029200929A68019088
:10A7B00005921A79002A35D0012A07D1DA685B6937
:10A7C00004931303022202938DF800208B686846DD
:10A7D00098471B491B48FEF727FF637C23B9FFF707
:10A7E00077FE06B010BD704705F0F4FE06B010BD50
:10A7F000E3680133082B01D8E360EEE70F4B00223A
:10A800001B68E26022720D20C8E7D3E90512881A9E
:10A81000B0F5805F94BF121802F5805291429A61A0
:10A82000DBD1B9E7012218698DF80020DA685B698D
:10A830000493CDE90202C9E74C40002064400020A7
:10A84000604000203C400020FEF7EABF2DE9F041C7
:10A85000058ACF1C043D2F440646B7FBF5F7FEF7EB
:10A86000FBFF002834D0FFB24FF48073013F044651
:10A87000C580066083802CD08046002509E063797E
:10A88000AF4203F101036371C8F80000066080461F
:10A890001FD03046FEF7E0FF01350028EFD194F8D5
:10A8A00005802768B8F1010316D03D460130834288
:10A8B0002D68FBD1B8F1000F0AD0002601E03C461C
:10A8C0003F68214601362846FEF7EEFFB045F6D830
:10A8D00000242046BDE8F08121463846FEF7E4FF1B
:10A8E000F6E700BF04300121FEF75EBF2DE9F0411D
:10A8F000012104460430FEF763FFC0B208B1BDE891
:10A90000F08194F805802568B8F1010314D02E4633
:10A91000013083423668FBD1B8F1000FEFD0002739
:10A9200001E02C462D68214601373046FEF7BCFF7A
:10A93000B845F6D8BDE8F08121462846BDE8F0418B
:10A94000FEF7B2BF2DE9F8430546C68840791446A4
:10A9500006FB00F2043A04EB030C1F1D624538BFEE
:10A96000D41ABE428846B7FBF6F106FB117002D836
:10A9700001392D68FCD1371AA74228BF27469CB160
:10A980004FF000090430E41B28443A4608EB090163
:10A9900010F04AFFA642B9442D6837464FF0000038
:10A9A00028BF2746002CEDD1BDE8F8832DE9F843F8
:10A9B0000546C6884079144606FB00F2043A04EBCB
:10A9C000030C1F1D624538BFD41ABE428846B7FB30
:10A9D000F6F006FB107102D801382D68FCD1771A09
:10A9E000A74228BF27469CB14FF0000904312944F3
:10A9F000E41B3A4608EB090010F016FFA642B944E2
:10AA00002D6837464FF0000128BF2746002CEDD1B6
:10AA1000BDE8F88333DF704741DF70470D490E4AC8
:10AA200008B500230B701360BFF35F8F0B490C4810
:10AA300000F0B2F90B4A0C480121FCF7B1FF00B15C
:10AA400008BD02464FF400410848BDE80840FCF745
:10AA5000B5BF00BF984000209C400020E0C9030023
:10AA60006840002079AB0200DCC903007840002078
:10AA700000B583B000230DF107008DF80730FDF716
:10AA80000BF8F1EE103A23F09F03E1EE103ABFF31A
:10AA90005F8F0B4B4022C3F884219DF80700FDF720
:10AAA00021F805F0A7FD28B920BF40BF20BF03B0A3
:10AAB0005DF804FBFFF7B0FF03B05DF804FB00BFD7
:10AAC00000E100E0F8B5264D044601212846FEF7D6
:10AAD00031FEBFF35F8FD0B9042C3CD0214B1A78E4
:10AAE00092B9214E012234701A70204C63687BB1F8
:10AAF000274604E0384600F059F9636843B11B6803
:10AB0000307898470028F5D1BFF35F8F2860F8BDF3
:10AB100001F0EEF900F0E8FA0028FBD13378023BAF
:10AB2000012B0BD905F066FDB8B94FF08043012227
:10AB3000C3F80025BFF34F8F20BFFDE7BFF34F8F52
:10AB40000B490C4BCA6802F4E0621343CB60BFF3BD
:10AB50004F8F00BFFDE7044EC7E7FFF75BFFE4E759
:10AB60009C40002098400020704000206840002059
:10AB700000ED00E00400FA05034B1B7803B97047B1
:10AB80000420FFF79FBF00BF984000202DE9F0414F
:10AB900003681F681D685B689D4284BF836801333A
:10ABA000164688465D1BC2684168AE42044607FBF4
:10ABB00002110DD806FB02F2404610F035FEA268E5
:10ABC00023683E44964288BF00261E60BDE8F0819F
:10ABD00005FB02F73A46404610F026FEE26861683F
:10ABE000751B08EB070002FB05F210F01DFE236841
:10ABF0001D60BDE8F08100BF0368826818685B686B
:10AC0000934234BF01330023C01AB0FA80F04009E8
:10AC1000704700BFF0B5044683B000250DF1070072
:10AC20000E468DF80750FCF737FF2368A2681968B5
:10AC30005868904238BF451CA94213D05F685D68D0
:10AC4000AA420CD800225A60E2686068531E072BA3
:10AC500042D8DFE803F03B37413341414118013529
:10AC60005D60F1E7217C00293CD15F685868824231
:10AC70002FD859602268A16813688B4234BF013312
:10AC800000231360E0E7D6E9002300EBC700C0E92A
:10AC900000232268136851688B4282BFA06801308C
:10ACA0000918CB1A91689DF80700994238BF936044
:10ACB000FCF718FF0024204603B0F0BD336840F8CD
:10ACC0002730E6E7338820F81730E2E73378C355BA
:10ACD000DFE701305860CDE7314607FB020010F096
:10ACE000A3FDD6E79DF80700FCF7FCFE04242046F0
:10ACF00003B0F0BD70B5144682B012B9204602B060
:10AD000070BD054600230DF107008DF807300E4693
:10AD1000FCF7C2FE2A681368506883420AD8C31A37
:10AD20009C420DD905249DF80700FCF7DBFE204668
:10AD300002B070BDAA6801320244D31A9C42F1D815
:10AD4000224631462846FFF721FF0024EBE700BFEB
:10AD500030B5054683B000240DF107008DF807409B
:10AD6000FCF79AFE21460C22286810F06BFD9DF836
:10AD70000700FCF7B7FE03B030BD00BF82680023B8
:10AD8000936082681361826853618268D3608268CD
:10AD9000536082681360704701600B6843604A68C3
:10ADA000934204BF00234360704700BF436843B130
:10ADB000026891680B4443605268934204BF0023C9
:10ADC0004360704770B54468064620680D4618B960
:10ADD00008E02468206828B1B3682946984700280D
:10ADE000F7D120682860256070BD00BF43681868EF
:10ADF00008B102681A60704743681868704700BF5E
:10AE00004068036873B1994203D107E0814204D0DE
:10AE1000034618680028F9D1704718460B6803608C
:10AE2000012070471846704730B41F49A1F594724D
:10AE30008B1ADB1003EBD3735B10DD0052F8333059
:10AE4000984202EB050420D2A24218D2ED1005EB85
:10AE5000D5756D1002EBC50152F83530984205D317
:10AE600010E052F8333098420FD221468B1ADB1093
:10AE700003EBD3735B108A4202EBC304F1D30B489C
:10AE800030BC704722460C461146984204D904F162
:10AE900008028A42CCD3F2E76068044B30BC002839
:10AEA00008BF1846704700BF40CB030004CA030028
:10AEB000704700BF00B583B0044B0093044A4023A1
:10AEC00000F036F803B05DF804FB00BFD5AE020019
:10AED000A440002002B32DE9F843114B114E8846DF
:10AEE000144643F0010903270025224608EB05011B
:10AEF00000200CF0E7FF03461D444FF47A40E41AAB
:10AF000023B9337833B1C847013F06D001233370EA
:10AF1000002CEAD1BDE8F88370473770BDE8F883AC
:10AF200030CF0300A0400020704700BF0DF088B86C
:10AF3000F0B595B0002415460F4608461E46FFF7AB
:10AF4000D1FC384623460895082205A91A9D099682
:10AF50000D950A948DF82C400C94FFF727FD9DF871
:10AF600014308DF81140DDE9061003F00302012AC8
:10AF7000CDE9020127D0022A04D03846FFF7B6FCFB
:10AF800015B0F0BDBDF81650C3F3C2038DF81030F4
:10AF9000AD090826082D2C4628BF08243346224632
:10AFA0000EA93846FFF702FD2D1B214608AB02AA69
:10AFB0000EA8264401F068F8002DEBD13846FFF7C3
:10AFC00095FC15B0F0BDBDF81460059DC6F3831661
:10AFD000C3F3C204B2000EA9384608238DF810400E
:10AFE000C5F39525FFF7E2FC08AB324628460EA9CB
:10AFF000009302AB00F0D2FF3846FFF777FC15B0A4
:10B00000F0BD00BF08B5FFF791FF0421034800F031
:10B0100035FF034B01225A7108BD00BF6C230400A9
:10B02000DC3B002038B50C4B0C48002400250022E6
:10B03000FF21C3E90045C3F81824996083F8202450
:10B04000C3F81424FFF700FC044610B90448FFF7C6
:10B0500095FE204638BD00BFB841002038220400CC
:10B0600054CF0300A9B1124B12495B1ADB081AD066
:10B0700030B4114C2288824217D0002203E034F809
:10B08000225085420AD001329342F8D1002030BCD0
:10B090007047084A02EBC0021068704701EBC20219
:10B0A000106830BC7047184670470A46F8E700BF82
:10B0B0006C23040054220400D43C0020094B0139C5
:10B0C00003EBC00003290BD8DFE801F002080604F7
:10B0D000022070474079704700797047042070471C
:10B0E00000207047542204002DE9F047974CD4E922
:10B0F00000239A4284B063D00023C4F81834BFF30D
:10B100004F8FD4E9013503EA0501CA1C04EB82061E
:10B1100014F82220500719D52768327802F003026C
:10B12000012A43D0022A03D17288023303EB92131F
:10B1300005EA0301D4F81804CA1C04EB820628B9F6
:10B140009F4239D914F822205207E6D404EB81013A
:10B150005A1CC96801912A4004EB820201F00301E4
:10B16000D2680292022903F102062DD0012900F0D3
:10B170009580D4F810543DB12B6828469B689847B9
:10B18000EB681D68002DF7D17148724B7249C01AE7
:10B19000C008000440F0020000F0E4F8D4E90030F8
:10B1A000C01A18BF012004B0BDE8F087328802330E
:10B1B000C2F383121344BBE7676004B0BDE8F087B5
:10B1C000002004B0BDE8F087BDF8063063484FEAC0
:10B1D0009319B9F1500FC84628BF4FF0500868F3D3
:10B1E0008F1308F10801ADF80630FFF72FFB074673
:10B1F0000028BED025EA060A0AF1010AFFF772FB11
:10B200004FEA8A0A0023082201A93846FFF79AFB71
:10B21000D0457ED9BAF1000F00F08E8005EA060114
:10B220000331A8EB0A0504EB810108235246384696
:10B23000EDB2FFF787FB2A460AF108034849384672
:10B24000FFF780FB09F1030906EB9909D4F81834DC
:10B25000002B6DD1D4F8105465B1EB685A792846AB
:10B260003946002A60D02B681B689847EB681D6838
:10B27000002DF2D13846FFF739FB00230DF1030012
:10B280008DF80330FCF708FCD4F818340BB9C4F877
:10B2900004909DF80300FCF725FC7FE7BDF804202F
:10B2A0002E48C2F38313062B28BF062363F38912AB
:10B2B00002339900ADF80420FFF7C8FA07460028CA
:10B2C0003FF457AFFFF70EFB0023082201A93846D1
:10B2D000FFF738FBBDF8043013F4707F33D04FF024
:10B2E000000805EA06014FEA88030331083304EB3E
:10B2F000810104223846FFF725FBBDF8043008F130
:10B300000108C3F3831306F1010943454E46E8D80B
:10B310009CE705EA0601033104EB8101424608235C
:10B320003846FFF70FFB8DE71D68002D95D1A1E78B
:10B330003846FFF7DBFA31E742460823084938462A
:10B34000FFF700FB7EE7B14680E700BFB841002071
:10B35000AC2204005422040060CF03003822040011
:10B36000C44100202DE9F04F674C87B00023804690
:10B370000DF10B008DF80B300191A568FCF78CFBEB
:10B38000D4E9012326681A440132921B012A00F2F3
:10B39000B98004F21C4704F2144901213846FEF733
:10B3A00003FA5A48FEF724FA4846FEF721FAD4E990
:10B3B000013E03EA0E00C21C04EB820114F82220B5
:10B3C00012F0040200F09B8003F1020C91F800B02F
:10B3D0000BF0030BBBF1010FE24600F08B80BBF1D9
:10B3E000020F00F1030B75D004EB8B01002AEDD1A5
:10B3F00004EB80000133C268039203EA0E0304EBFE
:10B40000830302F00302012AD9685BD0022A56D1D5
:10B41000BDF80E309B0903334FEA114B0AEB930A38
:10B420004846FEF7F1F95946002846D03846C4F898
:10B4300004A0FEF7B9F9D4E90113226819440131D7
:10B44000891A0129A9D913400333023205219DF835
:10B450000B0044F823102260FCF744FB00212C4829
:10B46000FEF768F980F31000731C2B4004EB830394
:10B4700000043540033540EA1840D86014F8253000
:10B4800068F3C50304F82530019B54F8252063F3C5
:10B490009F2222F4717323F0030343F0010344F865
:10B4A000252024F8253094F820341BB1FFF71CFE2A
:10B4B0000028FBD107B0BDE8F08F3846B9E74FF060
:10B4C000000BADE7BDF80C30C3F383134FEA114B0B
:10B4D0009A44A5E74B880CEB93130EEA0300C11CBA
:10B4E00003F1020C14F82120E24604EB810102F082
:10B4F00004027BE70B88C3F383136344EDE703F196
:10B50000020A75E732469EE7B8410020D045002088
:10B51000D44500202DE9F04F6B4C87B000238046C6
:10B520000DF10B00CDE900128DF80B30A568FCF78A
:10B53000B3FAD4E9012326681A440132921B022A85
:10B5400000F2BF8004F21C4704F21449012138467E
:10B55000FEF72AF95D48FEF74BF94846FEF748F931
:10B56000D4E9013E03EA0E00C21C04EB820114F888
:10B57000222012F0040200F0A18003F1020C91F8E5
:10B5800000B00BF0030BBBF1010FE24600F091801D
:10B59000BBF1020F00F1030B7BD004EB8B01002AFF
:10B5A000EDD104EB80000133C268039203EA0E037D
:10B5B00004EB830302F00302012AD96861D0022A56
:10B5C0005CD1BDF80E309B0903334FEA114B0AEBF7
:10B5D000930A4846FEF718F9594600284CD03846D9
:10B5E000C4F804A0FEF7E0F8D4E901132268194476
:10B5F0000131891A0229A9D91340033303324521A5
:10B600009DF80B0044F823102260FCF76BFAB31C82
:10B610002B4004EB8303019A2D48DA600021FEF7EA
:10B6200089F880F31000731C2B4004EB83030004A3
:10B630003540033540EA1840D86014F8253068F3E7
:10B64000C50304F82530009B54F8252063F39F229E
:10B6500022F4717323F0030343F0410344F82520DF
:10B6600024F8253094F820341BB1FFF73DFD002865
:10B67000FBD107B0BDE8F08F3846B3E74FF0000BC1
:10B68000A7E7BDF80C30C3F383134FEA114B9A447C
:10B690009FE74B880CEB93130EEA0300C11C03F1E8
:10B6A000020C14F82120E24604EB810102F00402AE
:10B6B00075E70B88C3F383136344EDE703F1020AD4
:10B6C0006FE7324698E700BFB8410020D045002020
:10B6D000D44500202DE9F04F6F4C89B000268046FC
:10B6E0000DF11300CDE9011203938DF81360A568E5
:10B6F000FCF7D2F9D4E9012326681A440132921BDF
:10B70000032A00F2C68004F21C4704F21449012106
:10B710003846FEF749F86148FEF76AF84846FEF7F2
:10B7200067F8D4E9013E03EA0E00C21C04EB820173
:10B7300014F8222012F0040200F0A88003F1020C99
:10B7400091F800B00BF0030BBBF1010FE24600F0E3
:10B750009880BBF1020F00F1030B00F0828004EB34
:10B760008B01002AECD104EB80000133C268059202
:10B7700003EA0E0304EB830302F00302012AD968F3
:10B7800067D0022A62D1BDF816309B0903334FEA15
:10B79000114B0AEB930A4846FEF736F85946002843
:10B7A00052D03846C4F804A0FDF7FEFFD4E90113D7
:10B7B000226819440131891A0329A8D91340033397
:10B7C000043285219DF8130044F823102260FCF711
:10B7D00089F9B21C2A40F31C2B4004EB820204EBD3
:10B7E0008303029FD7600021039A2D48DA60FDF79A
:10B7F000A1FF80F31000731C2B4004EB83030004B3
:10B800003540033540EA1840D86014F8253068F315
:10B81000C50304F82530019B54F8252063F39F22CB
:10B8200022F4717323F0030343F0810344F82520CD
:10B8300024F8253094F820341BB1FFF755FC00287C
:10B84000FBD109B0BDE8F08F3846ADE74FF0000BF3
:10B85000A1E7BDF81430C3F383134FEA114B9A44A8
:10B8600099E74B880CEB93130EEA0300C11C03F11C
:10B87000020C14F82120E24604EB810102F00402DC
:10B880006FE70B88C3F383136344EDE703F1020A08
:10B8900069E7324692E700BFB8410020D04500205A
:10B8A000D44500202DE9F04F724C89B00026804627
:10B8B0000DF11300CDE9011203938DF81360A56813
:10B8C000FCF7EAF8D4E9012326681A440132921BF6
:10B8D000042A00F2CC8004F21C4704F2144901212E
:10B8E0003846FDF761FF6448FDF782FF4846FDF7E3
:10B8F0007FFFD4E9013E03EA0E00C21C04EB820183
:10B9000014F8222012F0040200F0AE8003F1020CC1
:10B9100091F800B00BF0030BBBF1010FE24600F011
:10B920009E80BBF1020F00F1030B00F0888004EB56
:10B930008B01002AECD104EB80000133C268059230
:10B9400003EA0E0304EB830302F00302012AD96821
:10B950006DD0022A68D1BDF816309B0903334FEA37
:10B96000114B0AEB930A4846FDF74EFF5946002853
:10B9700058D03846C4F804A0FDF716FFD4E90113E7
:10B98000226819440131891A0429A8D913400333C4
:10B990000532C5219DF8130044F823102260FCF7FE
:10B9A000A1F8B01C2840F21C2A4004EB8000331D93
:10B9B000029FC7602B4004EB820204EB8303039FCA
:10B9C000D7600021129A2D48DA60FDF7B3FE80F3AC
:10B9D0001000731C2B4004EB830300043540033537
:10B9E00040EA1840D86014F8253068F3C50304F81D
:10B9F0002530019B54F8252063F39F2222F47173B4
:10BA000023F0030343F0C10344F8252024F8253034
:10BA100094F820341BB1FFF767FB0028FBD109B075
:10BA2000BDE8F08F3846A7E74FF0000B9BE7BDF865
:10BA30001430C3F383134FEA114B9A4493E74B88B6
:10BA40000CEB93130EEA0300C11C03F1020C14F873
:10BA50002120E24604EB810102F0040269E70B8831
:10BA6000C3F383136344EDE703F1020A63E732464D
:10BA70008CE700BFB8410020D0450020D44500200D
:10BA80002DE9F04F774C89B0002680460DF1130068
:10BA9000CDE9011203938DF81360A568FBF7FCFF55
:10BAA000D4E9012326681A440132921B052A00F2C8
:10BAB000D68004F21C4704F2144901213846FDF7F0
:10BAC00073FE6948FDF794FE4846FDF791FED4E900
:10BAD000013E03EA0E00C21C04EB820114F822208E
