:020000022000DC
:1060000000000120B5620200DD620200DF620200D2
:10601000E1620200E3620200E562020000000000AB
:10602000000000000000000000000000E762020025
:10603000E962020000000000EB620200ED62020073
:10604000C1B70200EF620200E1700200EF620200DD
:10605000EF620200EF620200E96B020009AB02008E
:1060600059B50200B1B5020009B60200EF620200A4
:10607000EF620200BD710200EF620200EF620200F7
:10608000EF620200857D0200EF620200EF62020013
:10609000EF620200EF620200B1D50200EF6202007F
:1060A000EF620200EF62020061B60200B9B60200C0
:1060B000D5A80200EF62020000000000000000000E
:1060C000EF62020091A902004DAA0200EF620200F5
:1060D00011B70200EF62020051B802000000000098
:1060E00000000000000000000000000000000000B0
:1060F00000000000000000000000000000000000A0
:10610000000000000000000000000000000000008F
:10611000000000000000000000000000000000007F
:10612000000000000000000000000000000000006F
:10613000000000000000000000000000000000005F
:10614000000000000000000000000000000000004F
:10615000000000000000000000000000000000003F
:10616000000000000000000000000000000000002F
:10617000000000000000000000000000000000001F
:10618000000000000000000000000000000000000F
:1061900000000000000000000000000000000000FF
:1061A00000000000000000000000000000000000EF
:1061B00000000000000000000000000000000000DF
:1061C00000000000000000000000000000000000CF
:1061D00000000000000000000000000000000000BF
:1061E00000000000000000000000000000000000AF
:1061F000000000000000000000000000000000009F
:1062000010B5054C237833B9044B13B10448AFF3F0
:1062100000800123237010BDD03C0020000000004E
:10622000D8B4030008B5034B1BB103490348AFF3CF
:10623000008008BD00000000D43C0020D8B403005A
:10624000154B002B08BF134B9D46A3F5803A002148
:106250008B460F461348144A121A11F0FBFA0F4BE3
:10626000002B00D098470E4B002B00D09847002001
:10627000002104000D000D48002802D00C48AFF3A7
:10628000008011F0A7FA2000290005F0F7FA11F0BC
:106290008DFA00BF0000080000000120000000008F
:1062A00000000000D03C00201C4E00200000000038
:1062B000000000000649074A074B9B1A03DD043B18
:1062C000C858D050FBDC00F08FFFFFF7B9FF00008B
:1062D000A8B50300D03B0020D03C0020FEE7FEE73D
:1062E000FEE7FEE7FEE7FEE7FEE7FEE7FEE7FEE786
:1062F00038B9012A07D0012913D048B268B1022960
:1063000007D00720704701290AD001290246F4D19D
:1063100007E0064B00205A707047044B9A70704794
:106320000E22024B00201A70704700BFEC3C002088
:1063300010B50388102B07D0112B04D1254B1868FA
:106340000138186030B110BD224C216811B3013101
:10635000216010BD01220221FFF7CAFF40B10728CA
:1063600006D01D4B1B68002BEDD0BDE81040184730
:10637000072202210120FFF7BBFF08B10728F0D157
:10638000002108460A22FFF7B3FF0028DBD00728C8
:10639000E7D1D8E701220846FFF7AAFF38B107285E
:1063A00005D00D4B1B6803B198472168CFE7072242
:1063B00002210120FFF79CFF08B10728F1D1042238
:1063C00002210020FFF794FF0028EED00728E8D133
:1063D000EBE700BFF43C0020F03C002004F072B872
:1063E0000021084604F032B808B50846114600F00E
:1063F0009BF9002008BD00BF30B5054683B00020E2
:1064000000F03EF9044610B1204603B030BD04351B
:10641000284608F039FB28460094234622460C49BA
:1064200008F088FB10F1360F0CD00028ECD048F2B1
:10643000165348F2115410F1380F18BF1C4620466D
:1064400003B030BD48F21454204603B030BD00BF45
:10645000E963020008B5043008F01CFB00F042F9C3
:10646000002008BD08B5043008F038FC10F1360FE4
:106470000AD040B148F2115248F2165310F1380FC9
:106480000CBF1046184608BD48F2145008BD00BFA6
:10649000114608B51A46043008F00EFB10F1360F0D
:1064A0000AD040B148F2115248F2165310F1380F99
:1064B0000CBF1046184608BD48F2145008BD00BF76
:1064C00010B568B90E4CA368012262703BB1D3E9E4
:1064D00000230020A2609847A368002BF7D110BDCD
:1064E0000128FCD1064C2369A070002BF7D0D3E91A
:1064F00000230120226198472369002BF7D110BDAA
:10650000F83C002070B910B5074CA36801226270F6
:106510003BB1D3E900230020A2609847A368002B79
:10652000F7D110BD704700BFF83C002030B50128FE
:1065300083B01DD0B0B1032812D1224C00F044F931
:1065400000230DF107008DF8073001F0A5FAE3688C
:10655000013BE360E5686DB39DF8070001F0C2FA06
:1065600003B030BD184B0122C3F8802003B030BD0A
:10657000144C00230DF107008DF8073001F08CFA60
:10658000237853B1E3689DF8070001330122E360EB
:10659000A27001F0A7FA03B030BD0C486360A3609D
:1065A0002361E36000F004F906F0FCFF30B1012341
:1065B0002370E7E700F04EF9A570CDE700F004F98D
:1065C000F5E700BFF83C002000E100E0C1640200F4
:1065D00031DF704700B585B000238DF807000DF15D
:1065E0000F008DF80F3001F057FA06F0DBFF30B1E5
:1065F0009DF80F0001F076FA05B05DF804FB0DF18F
:106600000701084803F048FC064803F037FC00285F
:10661000EED000F0ADFD9DF80F0001F063FA05B07B
:106620005DF804FBF4B4030000B583B098B103280F
:106630000ED100230DF107008DF8073001F02CFA80
:106640000D480378012B0FD09DF8070001F04AFA9E
:1066500003B05DF804FB084B1B78012BF8D100F068
:1066600087FD00F091FDF3E70449013000F03EFDA5
:1066700000F06CFDE8E700BF5C3D0020D56502003E
:1066800010B5154C227882B012BB14498DF8072042
:106690000346002808BF0B460DF107001B88A4F82D
:1066A000013001F0F9F906F07DFF40B101239DF8BA
:1066B0000700237001F016FA002002B010BD08494F
:1066C000601C00F013FD0028F7D100F03FFDEDE75E
:1066D000852002B010BD00BF5C3D0020A4860300F1
:1066E000D565020000B583B000230DF107008DF8D9
:1066F000073001F0D1F906F055FF60B19DF80700B1
:1067000001F0F0F9064803F065FC064B00221A7010
:1067100003B05DF804FB00F02BFD00F035FDEDE764
:10672000F4B403005C3D002000293ED02DE9F04F79
:10673000DFF878A083B005468B4642F207095F4632
:10674000402F28BF40275FFA87F800260CE09DF80D
:10675000070001F0C7F941462846FFF739FF4845D1
:106760000446F2D0022C17D10DF107008DF8076016
:1067700001F092F906F016FF0028E8D13A462946C2
:10678000504603F0F9FB044600F0E0FC9DF80700DA
:1067900001F0A8F9022CE7D0002CD6D1BBEB070BF7
:1067A0003D44CCD103B0BDE8F08F7047F4B4030092
:1067B000044A137923B9012110609180184670476B
:1067C00085207047603D0020084B1A68D20704D42A
:1067D000C021012283F800131A604FF08041044A5F
:1067E0000123C1F818351370704700BF00E100E0C5
:1067F0000C4E002010B41349134B144A00200860BB
:1068000083B0096801914FF080410220019CC1F8DA
:106810000403D86840F08071D960146844F0010323
:106820001360516853685B1AB3F50A5FFAD30649DF
:10683000074B14600122C8601A6003B05DF8044B76
:10684000704700BF04010040F0ED00E0001000E0E0
:1068500008000040044B01221A604FF08042D2F839
:106860001834DB03FBD470470C00004010B5154B07
:106870001A6882B062B10021134A19601B6850790E
:1068800000934FF080410123009CC1F80833A8B168
:106890000E4B1A6882B100221A601B6801934FF0F8
:1068A00080420221084B0198C2F808131B6801209E
:1068B00002B0BDE81040184702B010BD1168537116
:1068C0008847E5E700010040603D002004010040EA
:1068D000F0B5204C94F8585083B0002D36D14FF0CD
:1068E000FF334FF0FF364FF0FF372946042204F103
:1068F0005400C4E90033C4E90233C4E90433C4E9F1
:106900000633C4E90833C4E90A332365C4E90C67D4
:10691000C4E90E67C4E91067C4E9126710F09AFF72
:106920000D4A0E4B0E491D60C02082F80603402020
:1069300010601B68019301984FF000430122284624
:1069400084F85820C1F8043303B0F0BD082003B028
:10695000F0BD00BF683D002000E100E07C61004028
:1069600000600040034B93F85800003018BF01202E
:10697000704700BF683D0020F0B5694B1C1894F9C2
:106980003050002D63DA8E78C6F340069646002E0E
:1069900057D01D68013500F0B6800124082553F852
:1069A0002470013756D004F1010C53F82C700137D4
:1069B0004FD0A71CAF4242D253F82720013200F03B
:1069C000A08004F1030CAC4539D253F82C70013788
:1069D0003FD004F1040CAC4531D253F82C70013790
:1069E00037D004F1050CAC4529D253F82C7001378F
:1069F0002FD004F1060CAC4521D253F82C7001378E
:106A000027D004F1070CAC4519D253F82C7001378C
:106A10001FD004F1080CAC4511D253F82C7001378B
:106A200017D004F1090CAC4509D253F82C7001378A
:106A30000FD00A34AC4202D2DC6A01345FD00420A9
:106A4000F0BD1D6A013564D009240C25A7E7082094
:106A5000F0BD64461F1865B243F824E087F8305053
:106A600016B91C4484F848008A78540714D4D60711
:106A70003BD44C784FF0A04600F5E072A40046F8F5
:106A80002240284EC40800F0070C375D012202FAAC
:106A90000CF23A4332558A78097812F002021AD081
:106AA000AB0003F1804303F5C0430202D3F81005A5
:106AB00020F4473020F44070C3F810050904D3F8DF
:106AC000100501F4403102F4F8520A430243C3F8BE
:106AD00010250020F0BD083D2B44104693F85020AF
:106AE00042EA811183F85010F0BD820002F1A04209
:106AF000D2F8004724F00204C2F80047C1E70B2493
:106B0000A8E73C46A6E70025C3F800E084F830502B
:106B1000AAE7082684F830601A6235463446A0E7B2
:106B2000683D0020BC3D002070B42D4C251883B07A
:106B300095F93030072B1CDD234493F848309B092E
:106B4000032B40D0012B14BF4FF440314FF40031E0
:106B5000800000F1A040D0F8002722F44032C0F8B5
:106B60000027D0F800370B43C0F8003703B070BCE3
:106B70007047DAB2072AF9D8980000F1804000F592
:106B8000C04003F140029200D0F8106592B202F1C9
:106B9000804202F5C04246F00106C0F810650020B0
:106BA000106012680192019A0029DFD095F9302017
:106BB00054F82220002AD9D001220A4902FA03F30C
:106BC000C1F80433D2E74FF0A043D3F81035C340E7
:106BD00013F0010F0CBF4FF400314FF44031B7E711
:106BE000683D0020006000402DE9F04186B00023A0
:106BF000BD4A01931168012900F0C4811E46BB4BB8
:106C00001A68012A00F0B081B94B1A68012A00F015
:106C10009D81B84B1A68012A00F08A81B64B1A6828
:106C2000012A00F07781B54B1A68012A00F04E81E5
:106C3000B34B1A68012A00F03B81B24B1A68012A53
:106C400008D0B14B1A68012A00F0A881EEB906B04D
:106C5000BDE8F081AD4AD2F804231206F1D5002236
:106C60001A6019680491603319680498012946F084
:106C700080060AD11A601B6805934FF0A043059A5D
:106C8000D3F81035019346F00046A14F01250024AA
:106C9000A30003F180432E4203F5C0434FEA4505AC
:106CA0000BD0D3F8100557F82420D3F81015C0F3F3
:106CB0000420C1F3014102B190470134082CE7D10F
:106CC000002EC4DA00224FF0FF33CDE90223904CAE
:106CD000012502AE94F950104F1C37D0C9B221F0F3
:106CE000C00006ABC2089F1801F0070317F80CCCD0
:106CF00005FA03F31CEA030F28D004EB000C890902
:106D00009CF930C054F82C80B8F1000F00F09F813E
:106D1000032900F09F81820002F1A04217F8147C41
:106D2000D2F800C71F40CCF3014C0BD0BCF1020FCE
:106D30000CD1032900F0C5810027B8F1000F06D05F
:106D4000C04704E0BCF1030F00F0A981002794F9CB
:106D50005110481C31D0C9B221F0C00006AB4FEA37
:106D6000D00E03EB0E0C01F007031CF80C2C05FAF7
:106D700003F31A4221D02218890992F9302054F8DD
:106D80002220002A00F08181032900F081814FEA4E
:106D9000800E0EF1A0481CF814ECD8F800C71EEACB
:106DA000030FCCF3014C00F03A81BCF1020F04D187
:106DB000032900F0898102B1904794F952104A1CCE
:106DC00031D0C9B221F0C00006AB4FEAD00E03EBC0
:106DD0000E0C01F007031CF80C2C05FA03F31A4201
:106DE00021D02218890992F9302054F82220002A53
:106DF00000F04181032900F041814FEA800E0EF13D
:106E0000A0481CF814ECD8F800C71EEA030FCCF316
:106E1000014C00F0EC80BCF1020F04D1032900F01A
:106E2000568102B1904794F953104B1C31D0C9B22E
:106E300021F0C00006AB4FEAD00E03EB0E0C01F0C0
:106E400007031CF80C2C05FA03F31A4221D0221870
:106E5000890992F9302054F82220002A00F001819B
:106E6000032900F001814FEA800E0EF1A0481CF8C2
:106E700014ECD8F800C71EEA030FCCF3014C00F065
:106E80009B80BCF1020F04D1032900F0238102B1E1
:106E90009047002F3FF4DBAE4FF0A043019AD3F8A8
:106EA00010359A423FF4D3AE029A0193039211E750
:106EB000164AD2F8042351067FF5BFAE00221A60AD
:106EC0001B680493049B46F04006B6E60F4AD2F8CE
:106ED000042390067FF5ACAE00221A601B68049371
:106EE000049B46F02006A3E60061004004610040D8
:106EF000086100400C6100401061004014610040D6
:106F0000186100401C6100407C610040006000404E
:106F1000683D0020714AD2F80423D4067FF583AE81
:106F200000221A601B680493049B46F010067AE660
:106F30006A4AD2F8042315077FF570AE00221A6062
:106F40001B680493049B46F0080667E6634AD2F880
:106F5000042357077FF55DAE00221A601B68049377
:106F6000049B46F0040654E65C4AD2F804239207D8
:106F70007FF54AAE00221A601B680493049B46F01A
:106F8000020641E65549D1F8046316F001063FF4C4
:106F900036AE136013680493049B30E600221A6037
:106FA0001B6805934FF0A043059AD3F81035019361
:106FB000002E3FF487AE66E6BCF1030F7FF469AFA5
:106FC00003297FF464AF4FF4003CD8F8003723F472
:106FD0004033C8F80037D8F8003743EA0C03C8F844
:106FE0000037002A3FF458AF0137FFB250E7BCF139
:106FF000030F7FF418AF03297FF413AF4FF4003C65
:10700000D8F8003723F44033C8F80037D8F80037F1
:10701000013743EA0C03FFB2C8F8003701E7BCF1BF
:10702000030F7FF4CAAE03297FF4C5AE4FF4003CD2
:10703000D8F8003723F44033C8F80037D8F80037C1
:10704000013743EA0C03FFB2C8F80037B3E603295F
:107050007FF47CAE16F802C04CEA030C06F802C0BE
:1070600059E603297FF415AF16F80E8048EA0308A5
:1070700006F80E80F7E603297FF4D5AE16F80E80E9
:1070800048EA030806F80E80B7E603297FF495AEB8
:1070900016F80E8048EA030806F80E8077E6032902
:1070A0007FF44BAE4FF40037D2F8003723F440336F
:1070B000C2F80037D2F800373B43C2F80037012747
:1070C0003BE64FF44037EFE74FF4403CB0E74FF476
:1070D000403C95E74FF4403C77E700BF006000403C
:1070E000014B1B68184700BFC43D0020134A1378AA
:1070F0000BBB30B40378124CDB07216006D5114975
:10710000D1F8043543F00103C1F804350D4C0E49A4
:10711000D4F8003223F00103C4F8003243785B0155
:107120004FF400550124DBB281F80D330D6014706B
:10713000002030BC70478520704700BFD03D002044
:10714000CC3D002000D0004000E100E0064A074BA3
:107150000021116082B01268019201990122C3F8E6
:1071600004231A6002B0704700D1004000D00040F4
:107170000349044A0123C1F808331360704700BF74
:1071800000D0004004D0004030B40849084D094800
:10719000094A0123C1F808334FF4005400212B6041
:1071A000C0F88040117030BC704700BF00D0004074
:1071B00004D0004000E100E0D03D0020074B08492A
:1071C000084A0020186082B01B680193019BD1F827
:1071D00008051368C0B202B0184700BF00D10040D4
:1071E00000D00040CC3D002030B4B84B1B78062BBB
:1071F00020D0B74B1B68062B00F08180B54AD2F82F
:10720000883043F47003C2F88830BFF34F8FBFF368
:107210006F8F4FF01023D3F80022002AC0F286812E
:10722000D3F80432002BC0F28181AB4BAB4A1A6019
:1072300030BC7047AA4B1B681D07DAD1A94B1B68ED
:1072400003F0F002302A00F09B8003F0E003402BB3
:1072500000F09680A34B1B6803F0F003302B00F086
:10726000A080A04B1B6803F0F002302A77D003F017
:10727000E003402B73D09B4B1B6803F0F003302BD3
:1072800000F01481974B1B6803F0F002302A52D0B3
:1072900003F0E003402B4ED0924B1B6803F0F00349
:1072A000302B00F0F5808F4B1B6803F0F003302B80
:1072B00000F0D7808B4B1B6803F0F003502B7ED07F
:1072C000884B1B6803F0F002302A23D003F0E00360
:1072D000402B1FD0834B1B6803F0F002302A03D0F1
:1072E00003F0E003402B84D14FF08043D3F8002417
:1072F000D20744BF6FF00102C3F8002479E77A4B4C
:107300001B68062B7FF47AAF784A136843F48063D6
:10731000136073E7764B6D4A1B681278754903F06A
:107320004F03062A0B607FF464AF6D4B1B6819078F
:107330007FF45FAFCEE7654A11784FF080430022BB
:107340000629C3F80C21C3F81021C3F838257FF4AF
:1073500050AF634B1B681B077FF44BAF9CE7664B3A
:107360005A4A1B6812786549C3F34233062A0B60F8
:107370007FF43FAF5A4B1B6819077FF43AAF7AE7A7
:107380005F4B524A1B6812785E49C3F30423062AF6
:107390000B607FF42EAF524B1B681C077FF429AFA4
:1073A00058E74A4B584A1B7858491160062B7FF41E
:1073B00020AF4B4B1B6818077FF41BAF51E74FF012
:1073C0008052534BD2F80414C3F82015D2F8081495
:1073D000C3F82415D2F80C14C3F82815D2F81014E9
:1073E000C3F82C15D2F81414C3F83015D2F81814B9
:1073F000C3F83415D2F81C14C3F84015D2F8201481
:10740000C3F84415D2F82414C3F84815D2F8281448
:10741000C3F84C15D2F82C14C3F85015D2F8301418
:10742000C3F85415D2F83414C3F86015D2F83814E0
:10743000C3F86415D2F83C14C3F86815D2F84014A8
:107440002248C3F86C15D2F844140278C3F87015BA
:10745000062A7FF4CEAE224B1B6818077FF4C9AE14
:107460002EE71A4B2B4C1B782B492C482C4A052510
:10747000256001250D6000243F21062B046011606A
:107480007FF4B7AE164B1B681C077FF4B2AE11E752
:107490000E4B244A1B780321062B11607FF4A9AE02
:1074A0000F4B1B681D077FF4A4AEFCE61E4A07497C
:1074B000D368097823F080730629D3607FF499AEEE
:1074C000074B1B681A077FF494AEDBE6E00F00F071
:1074D0003001001000ED00E0D03B00200090D00310
:1074E000E40F00F0E80F00F0340100103C170040FA
:1074F00058020010E40E0040440200103C05004019
:10750000240300104035014074C007400DF0ADBAAF
:1075100000C00040105600408856004018560040F9
:1075200014560040A0050040F0ED00E0184A012389
:10753000C2F80435D2F80034002BFBD04FF01023F2
:107540001521134AC3F80012D2F80034002BFBD0E7
:107550004FF0102315210E4AC3F80412D2F800345C
:10756000002BFBD000230A49C2F80435D1F80034BF
:10757000002BFBD0BFF34F8F0649074BCA6802F4BC
:10758000E0621343CB60BFF34F8F00BFFDE700BF46
:1075900000E0014000ED00E00400FA0500B585B010
:1075A00000230390194601AA44F20100CDE90133FA
:1075B00004F04CF905B05DF804FB00BF30B482B0B4
:1075C00001248DF80740144B9DF80750186044F2D1
:1075D0000104A04259609A6013D044F2020188422B
:1075E00006D1DA60DA6812889A61DA685268DA617C
:1075F00072B69DF80730002BFBD162B602B030BCEA
:1076000070471A611A6992685A611A6912689A6118
:107610001A695268DA61EBE7D43D0020D0E9022311
:10762000D1E90201994208BF90422CBF01200020FD
:10763000704700BF2DE9F04F87B0044600F062FBB1
:1076400040B1B24AD2E9003113F1807341F1000137
:10765000C2E900310021204600F070FB68B1AC4D5A
:107660002B6853B1AB4B2E681B7823B11EB1337F0F
:10767000002B40F00E8100232B602046012100F0FA
:107680005DFB002840F0E58005A9A34801F086FFD6
:1076900018B39F4EA14CA04D0378012B00F0C2807F
:1076A000002B00F0C780022B0DD12046002702F0EE
:1076B000D1FC28B10777204602F0CCFC0028F9D194
:1076C000944B01221A7005A9284601F097FF05A9DD
:1076D000284601F063FF0028DED1904F8C4D904E7C
:1076E0003DE0384602F0B6FCD0E902A3DFF81C9278
:1076F00003930446304600F031FBD9E90023DFF85C
:10770000248212EB000B43F1000CD8E900239C45C6
:1077100008BF93455846614603D21BF180704CF177
:107720000001BAEB00030093039B63EB0103019399
:10773000DDE90023012A73F100012ADBDFF8E8A16B
:10774000524565D8A2684FF416030021304600F078
:107750004DFA002862D00D281FD000232B60384638
:1077600002F07EFC00285AD02B68002BB9D02B6881
:10777000D0E90201D3E90223994208BF90424ED2D8
:107780002B681B7F002BACD02968384602F04EFCDA
:10779000A7E70021304600F0C5FA5E4B1B78002BAE
:1077A000DBD0237F002BD8D0304600F0D7FAD9E9C0
:1077B00000ABD8E900231AEB00084BF1000999450A
:1077C00008BF90454046494603D218F1807049F100
:1077D0000001D4E90223994208BF904254D323699F
:1077E000002B4FD0D4E90530984721690029B4D047
:1077F000237F002BB1D0D4E9022312EB010843F11F
:107800000009C4E902892146384602F00FFCA4E7CA
:10781000304600F0A3FA00EB0A0294E72C6007B0B0
:10782000BDE8F08F4168336899420FD0204602F0DE
:107830001BFC48E743681A7F002A7FF444AF01220B
:107840001A774168204602F0F1FB3CE700233360E1
:1078500039E73348334E00F081FA2C4BD3E9004529
:10786000D6E90023271845F10008984508BF97423C
:107870003846414603D217F1807048F10001C6E94D
:10788000000101E72377ADE72146384602F0CEFB41
:1078900063E7234800F062FA1C4B2249D3E9002336
:1078A000D1E9008912EB000A43F1000BCB4508BF78
:1078B000C2455046594603D21AF180704BF100017F
:1078C000D6E90223994208BF904219D3336903B91C
:1078D0003377D6E905309847316900293FF4CBAEBC
:1078E000337F002B3FF4C7AED6E90223571843F18C
:1078F0000008C6E902783146084802F097FBBAE66C
:107900003146064802F092FBB5E600BFF83D002084
:10791000783E0020003E00205C3E0020A886030048
:10792000D43B0020703E0020FFFF690030B583B0DB
:107930000624002508235822134914488DF80640D0
:10794000ADF8045001F0B2FD044610B1204603B07A
:1079500030BD0F4A0F4801A900F0DCF804460028AA
:10796000F4D101210B4800F0C3F9012319460A4A5A
:10797000084800F015F9074800F00EF9074B0122FE
:1079800020461A7003B030BD043E00205C3E00204B
:1079900035760200D43B0020FFFF7F00003E002030
:1079A0004AB1A1F101010368B1FA81F14909C3E9C2
:1079B0000412002070470720704700BF037F0BB1FF
:1079C000002070472DE9F048826182B004461D48CE
:1079D0000D4600F0C3F91C4B1C49D3E90023D1E943
:1079E000006712EB000B43F1000CBC4508BFB34528
:1079F00003D21BF1807B4CF1000C1BEB05002369CB
:107A00004CF10001C4E9020103B1256101A910484C
:107A100001F086FD50B100254460057001A90C48B5
:107A200001F0ACFD30B902B0BDE8F088042002B02E
:107A3000BDE8F088034800F095F9284602B0BDE89B
:107A4000F08800BFD43B0020F83D0020703E0020AD
:107A50005C3E002030B5002583B00446057701A9BF
:107A60000B4801F05DFD78B101234460037001A96A
:107A7000074801F083FD08B903B030BD054800F0A8
:107A800071F9284603B030BD042003B030BD00BFFB
:107A90005C3E0020D43B002070B4EFF3108472B63B
:107AA0000D4B9A68AAB90D490D4E01259D60D1F87C
:107AB000805035401D60C1F88060D1F884505D6011
:107AC0004FF0FF33C1F88430027004B962B670BC65
:107AD000704701230370F8E7104E002000E100E03A
:107AE000FC06FFBD094B9A687AB170B910B4EFF388
:107AF000108172B6064A1C6814605C685460986015
:107B000001B962B65DF8044B70477047104E002013
:107B100000E100E070B41C4C43791C4E04EBC3053B
:107B200046F823202D7965BB03680A88C3F8082529
:107B300090F904308A78002B1BDB03F1604303F5D6
:107B400061435201D2B283F8002390F90430104D02
:107B500003F01F0201215B0901FA02F245F823201C
:107B6000437904EBC30244F833001171002070BC68
:107B70007047084903F00F0352011944D2B20A7644
:107B8000E3E7082070BC70477C3E0020843E002064
:107B900000E100E0FCEC00E0036801221A6070479D
:107BA000F0B404684FF480358D40C4F8085306687B
:107BB00001F15004C6F84853A4000668A4B2002797
:107BC000375182B036590468019601F5A87122F048
:107BD0007F42019E44F821200268C2F8445313B149
:107BE0000368C3F8045302B0F0BC70472DE9F043BA
:107BF0000E464FF480370168B740C1F848730168FA
:107C0000C1F808730168044601EB8600D1F804C589
:107C1000D0F84015C0F840C506F15005AD00206809
:107C2000ADB24FF0000940F8059085B0A1EB0C0112
:107C30004059029021F07F41012922F07F48029AA9
:107C400045D02268D2F80455C2F84473A8EB050267
:107C500022F07F42012A06F5A87627D0226842F852
:107C600026802068D0F80455A8EB0501C3F1FF1366
:107C7000013903F57F4321F07F418B4212D341B19B
:107C8000C0F8447323680020C3F8047305B0BDE84E
:107C9000F08308F1010240F826202068D0F804356E
:107CA0009D42EDD00D2005B0BDE8F08320680F4B5C
:107CB00008F1010240F8262043F001034FF48060F0
:107CC00098472068D0F804359D42D9D0EAE7074AA2
:107CD000019342F001024FF4806090472268019BBB
:107CE00042F8059052590392039AAAE7C08603000E
:107CF00002680223C2F8443311B10268C2F80433A7
:107D0000704700BF0368D3F8040100B97047002230
:107D100082B0C3F80421D3F804310193019B012000
:107D200002B070474FF48033026803FA01F1C2F8E1
:107D300048130368C3F80813704700BF5031890027
:107D400089B20368585800B9704700225A5082B06F
:107D50005B580193019B012002B070470368D3F880
:107D60000405704790F9043005485A09403203F081
:107D70001F03012101FA03F340F82230704700BFCE
:107D800000E100E0024A034B10681B68184700BF7F
:107D90007C3E0020843E00202DE9F04102230B8030
:107DA0008468013430D000F58055083072B3334F09
:107DB0009E464FF6FF764FF0010C4388DC1C00EB2B
:107DC0008404A54252D38488B44249D00488002C4C
:107DD00046D08468B4F1FF3F42D0D7F80080A04578
:107DE00003D23C60B1F800E04388734403331FFAC8
:107DF00083FEA1F800E04488033400EB8400854250
:107E000002D904680134D8D1BDE8F0811B4C9E46EC
:107E10004FF6FF764388DA1C00EB8202954227D3A7
:107E20008288B2420BD002884AB18268571C06D0C1
:107E30002768974203D22260B1F800E04388734478
:107E400003331FFA83FEA1F800E04288033200EBFF
:107E500082008542D8D903680133DBD1BDE8F081C7
:107E600082F800C0B1F800E04388BEE70123137038
:107E70004FF480630B80BDE8F08100BFC03E00205E
:107E8000F0B443681BB1394AD468A34249D20023F5
:107E9000374F0B807A684FF0010C02F580544FF693
:107EA000FF76083294420ED8BCF1020FA1F800C050
:107EB00007F1140757D07A6802F5805408329442CB
:107EC0004FF0020CF0D913680133EDD0538803331F
:107ED00002EB83039C42E7D39588B5420DD0158809
:107EE0005DB19568B5F1FF3F07D00368AB4211D093
:107EF0005388033302EB8302D4E79C42D4D91A6837
:107F000001321A46D0D05D88033503EB85039C42CD
:107F1000E2D2C9E7174B42601B8903810120F0BC04
:107F2000704712699342B2D813F00305AFD1114ADA
:107F3000048912899442AAD104689A689442A6D10D
:107F40000B484268934203D902F58052934207D30B
:107F50008269934207D902F58052934203D20125E8
:107F60000D800120DBE70020D9E700BFB83C0020EE
:107F7000C83E0020AC3E00202DE9F04FA34E8BB050
:107F800005464FF6FF793468002C00F0BB8022785C
:107F9000531E052B00F23782DFE803F0583B3B1EEF
:107FA0001E03002D40F0B580DFF888C29CF80C203D
:107FB0009CF80030002A00F0D280013B8CF80C5075
:107FC000062B00F22082DFE813F02B040E035F0182
:107FD00039011E02FA020E02002D40F09A80237928
:107FE000012B00F05182002B00F0368205AF022BEE
:107FF0000595C7E902553D6101D048F20E65069529
:108000002378023B042B33D8DFE803F0644C702C58
:108010006000B4F814A0A17D002D40F006824FEA64
:108020008A087B4F08EB0A0307EB83031D895B6813
:1080300003EB8505062900F25484DFE811F0C50141
:10804000B401A1018E01690150013A01002D40F0F7
:10805000E1812379032B77D8DFE813F0CB00B80058
:10806000AD008E0004238DF81430E388ADF8203085
:10807000684C04F1100554F8043B384603B19847A6
:10808000A542F8D1644965480025356001F0B6FA8B
:108090000121634801F07EFB00287FF474AF0BB030
:1080A000BDE8F08F02238DF814302389ADF820301D
:1080B000A388ADF82230E3680793A37DA3F10603FC
:1080C000B3FA83F35B098DF82430D1E705238DF8EB
:1080D0001430CDE701238DF814302389ADF820301A
:1080E000A388ADF82230E3680793C1E703238DF836
:1080F0001430E388ADF820302389ADF82230E368EE
:108100000793B5E74449454801F048FA0446306012
:108110003DE705AF0023BB600593C7E903334FF488
:1081200006456CE700239A001A4407EB82030020FF
:1081300059680090082307F822003A4A3A4801F0AB
:1081400049FB0028ABD03468384A05AF00235360A0
:108150000593C7E902333B6148F20D654FE7072BF2
:1081600000F24983DFE813F0C0024703470300032E
:108170002E033F013F0141032D4D2A4A29682A4819
:10818000234F4FF0000884F804800823CDF80080C6
:1081900001F020FB274B2C685B88A98803EB830345
:1081A00007EB830207F8238053682B600223546097
:1081B0001181AB80C5E71E4A1B481168002323715B
:1081C00002249480012201F037FBBAE7104F3B787C
:1081D000022BA7D03B7D022B00F07C83134A05AF16
:1081E00001231370002353600593C7E902333B61F9
:1081F00005E70F4B104A19680B4801232371002330
:108200000093082301F0E6FA9BE700BFC43E00207C
:10821000C83E0020943E0020BC3E00207C3F002051
:108220008C3F0020CC860300B83C0020A43E0020F8
:10823000903F0020AC3E0020D4860300BCF8023002
:10824000B74F03EB830307EB8307FB68002B40F07A
:108250003D8204228CF800207968B248012201F0A6
:10826000EBFA0546002D3FF41AAF346805AF41F62E
:108270001D5200239542BB600593C7E9033308BF35
:108280001D463FF4BCAE0DE3DCF80420A64853883D
:1082900084880168A34803339BB29B0001EB8401EF
:1082A0000024009403248CF8004001F093FA054662
:1082B000D8E7E288204641F61D5508EB0A0107EB96
:1082C0008101D31C0A8913440B81E2880446D044FF
:1082D00007EB88077B89033B9B1A7B81C6E7934B9F
:1082E000934A1D8851688F48924A00234FF0060C2C
:1082F00084F816C00093042301F06CFA18BB05EB58
:10830000850507EB850701233B740BB0BDE8F08FB3
:10831000874BA26985491A604FF0000B1846C3F8D5
:1083200004B0FFF7ADFD002800F0BF820223A37563
:1083300004232946CDF800B0E2187A4801F04AFA41
:1083400000283FF4ACAEA37D3068E288022B00F237
:10835000B982044648F20D65B9E7E388226971489D
:108360004FF0010C05F10C01002584F816C09B00AC
:10837000009501F02FFA0028E5D10BB0BDE8F08F91
:1083800023696848002B14BF032301230022A3752F
:1083900005F108010092042304F10C0201F01AFA1D
:1083A0000028D0D17BE6032A0CBF05230623002238
:1083B000A375291D0092042304F10802594801F015
:1083C00009FA0028BFD16AE602230022A37504231C
:1083D00000922946E218534801F0FCF90028B2D176
:1083E0000BB0BDE8F08F504B534A19684D4800233D
:1083F0000093CCF8043007238CF80030082301F0F8
:10840000E9F905462EE705AF0023BB600593C7E9F0
:108410000333F2E505AF494A002353600593C7E9EA
:1084200002333B614FF40645E9E50229E28869D849
:108430003B4F4FEA8A0808EB0A0107EB810105AFC1
:108440004B89033B9B1A00224B81BA600592C7E916
:1084500003224FF40645D2E502232371CDE90655E8
:1084600005AFE368059338460DF11201FFF708FDEB
:10847000002840F0D88148F209650023C7E900339D
:10848000C7E902333B61BAE52C4B1B78002B00F0A7
:10849000FD81DFF8ACE0BEF80480B8F1010F10D820
:1084A0001F4F08EB880207EB82021378B3B108F183
:1084B000010399B201299846AEF8043002F1140282
:1084C000F3D905AF082200211D480FF0C3F900239E
:1084D000BB600593C7E90333346890E55368DEF861
:1084E000001003F5805003F1080C002900F0CC8146
:1084F0004B88033301EB8301884223D80023CEF855
:108500000030D4E74FEA8A08054F08EB0A0107EB71
:108510008101D31C0A8913440B81E2888BE700BFD9
:10852000C83E0020B83C0020903F00209C3F002027
:10853000883E0020C8860300D4860300A43E0020A5
:10854000A03F00200B680133D8D04B88033301EBE8
:1085500083039842D2D30392B1F804A0CA451ED037
:10856000B1F800B0BBF1000F19D08A68013216D003
:10857000E388039ACEF800105345B6D10023009348
:10858000B54AB648042301F025F9002840F09D8142
:1085900008EB880807EB880701233B747FE59842C6
:1085A0000BD919680131194607D0B3F802A00AF1B6
:1085B000030A03EB8A039842CED2039A9EE7BCF8E3
:1085C0000220A74F9300134407EB830706200023E4
:1085D0007968A44A00938CF8000008239F4801F0B2
:1085E000F9F805463EE6BCF802E09D4FDCF80420B1
:1085F0004FEA8E0404EB0E0307EB8303596801F581
:108600008050002A40F0C88001F10802904240F2F8
:10861000CA801368013300F0C6805388033302EB2D
:1086200083039842C0F0BF8095884D4500F01E81BD
:108630001588002D00F01A819568013500F016812B
:10864000CCF80420884C5388A588216883480333DC
:108650009BB29B0001EB850122E6012005468400C8
:10866000231807EB8303DCF804205968ACF80250A8
:1086700001F5805E002A00F031815388033302EB5C
:10868000830272451CD21368013319D05388033317
:1086900002EB83039E4513D395884D4504D015887E
:1086A00015B195680135CBD19E4509D91A680132BB
:1086B0001A4605D05D88033503EB85039E45EBD252
:1086C000231807EB8307FB68002B72D0664B6348C7
:1086D000196802229A8005228CF8002000230122CA
:1086E00001F0AAF80546BDE55D4FBCF808103A7DDB
:1086F0003B78B2FA82F252090131B3FA83F35B0993
:108700008CF80B20ACF80810002201218CF80A30FC
:10871000ACF802208CF80C208CF800104BB1504FB4
:10872000F86800228CF80A2018B93A7C002A40F038
:10873000D3809CF80B304BB1494F3B6A00228CF838
:108740000B201BB997F82430002B86D105AF0023EE
:10875000BB608CF80030ACF80230CCF804300593E4
:10876000C7E9033334684AE4BCF802E03E4D3C4FAD
:10877000DCF80420AB8850884FEA8E0404EB0E012D
:1087800007EB81010333496803444FF0020801F508
:108790008050AB808CF800805388033302EB830257
:1087A00090423FF636AF744407EB8407FB68002B1A
:1087B0008CD104208CF800000122284801F03CF8FC
:1087C00005464FE5BCF80220254F2748930099182D
:1087D00007EB810104684D68B0F804E04C600224A6
:1087E0000560A1F808E08480EDE601238CF80030F4
:1087F0009CF80A3092E7013B062B3FF604AE01A23B
:1088000052F823F021880200E785020089820200E5
:108810003D82020007840200BF850200E783020058
:108820009CF80A307AE706990B4A8B88E3800B881C
:1088300023810A4800950423BDF8124000F0CAFFC6
:1088400000283BD1064B04EB840403EB8404012392
:1088500023740BB0BDE8F08FC8860300B83C00203D
:10886000C83E0020CC860300903F002083429AD26D
:108870001A6801321A4696D05D88033503EB8503EA
:1088800083427FF6D1AE8EE7614635E605AF2946D5
:10889000082216480EF0DEFF0595C7E902553D6136
:1088A00048F201653468FFF7AABB05AF0590C7E938
:1088B0000200386148F20965FFF7A1BB346848F24D
:1088C0000D65DAE548F20D65F7E4346848F20D65A8
:1088D00005AFD2E5012326E40546C0E601F1080212
:1088E000CFE6E288204648F20E65E6E4A03F00208D
:1088F0004068FFF741BB00BF2DE9F04782B0002A76
:1089000064D0B2F800A0B2F802900E46054601A964
:108910004848984600F004FE1C22044600210EF050
:1089200099FF002C3ED0002784F80080A4F814A002
:10893000A7757368236101213F4800F01FFFE060C5
:10894000338823817388A380B8F1030FA4F80690BD
:1089500018D0678101A9374800F010FE3DB100230F
:108960006B60E168354A29601289AB722A81012166
:10897000334800F0F7FE044670B10024204602B0F0
:10898000BDE8F0870423A3752B68A36101A9678163
:10899000284800F0F3FDE2E7FFF7EEFA204602B0C8
:1089A000BDE8F087274B0AEB8A0A03EB8A0AC9F570
:1089B0007F49BAF80A3048F2076409F1FD09994481
:1089C0002046AAF80A9002B0BDE8F087B1F80890F6
:1089D00009F1030292B240F2FE34A2421AD8194CB5
:1089E00027783FB96689258935441544ADB2B5F578
:1089F000806F12D9257D3DB9E68BA58B3544154492
:108A0000ADB2B5F5806F10D948F20664204602B0C9
:108A1000BDE8F08748F20864B0E7BA46BD003D44BF
:108A200004EB8504324462816FE74FF0010A574638
:108A3000F4E700BF7C3F0020C03E0020AC3E002099
:108A40008C3F0020C83E002038B5094B1A68042A24
:108A50000AD01D68074C02460121184644F825201B
:108A600000F08CFE002038BD48F20B6038BD00BF1E
:108A7000983F0020943E00202DE9F04F994D89B099
:108A80002A780023CDE90333CDE90533079372B18A
:108A9000954C04F1100554F8043B03A803B1984722
:108AA000A542F8D10024204609B0BDE8F08F281D6A
:108AB00002F0FF0900F07AFE0028F3D140F6F873C7
:108AC0001B685C1C46D04FF0805211695269DFF878
:108AD00044828649C8F810304046A3F5405300222E
:108AE000C8F80C3000F06EFE04460028DBD11C23D1
:108AF0008C227F497F48DFF820A200F0D7FC264671
:108B00004FF0030B2746D8F80C3016EB030CF25845
:108B100075D0794B9A4228D1DCF8043077498B42E2
:108B200000F0928001318B4269D1B9F1000F40F021
:108B3000A280734B7349C3F800C0604600220193C2
:108B4000FFF72AF9019B9B88022B0CBF0423082303
:108B50001C431BE06C4B4FF080521B68116952693B
:108B6000581C08BF02FB01F3B1E701324CD007EB00
:108B700087030AEB830203210BF1FF3B01370AF85D
:108B800023101FFA8BFBBFB2C2F804C006F5805653
:108B9000B6F5405FB7D1BBF1010F40F2A080E4B25F
:108BA000022C00F09C80062C0ED14F4C0122002399
:108BB0002A7004F110066B6054F8043B03A803B15B
:108BC0009847A642F8D16DE7002C00F0888002A9F2
:108BD000484800F0A5FC1C22054600210EF03AFE94
:108BE000002D79D00123013C2B700A2C5CD8DFE8E2
:108BF00004F06D5B6D5B705B705B6A596A00531CBF
:108C000002D03D4B9A42B2D10CF104030CF58051D5
:108C10001A68013203F10403A9D18B42F8D1384B11
:108C20001A68002A37D007EB87030AEB8301022278
:108C30003648C1F804C00A810AF82320791C47800D
:108C40008FB244F00104A1E707EB870399000022EB
:108C50000AF823200AEB010301F110020831524403
:108C60005144C3F804C060460137FFF795F844F05B
:108C70000204BFB28AE7254A214B578007EB870ED3
:108C80000AEB8E02022118680AF82E100137506094
:108C90001181BFB24EE70222C3F800C09A804FF0A4
:108CA0000109CEE702232B7102A9124800F066FCED
:108CB0000121174800F056FD044600287FF4F2AE6B
:108CC000FFF75AF9EFE603232B71EDE700232B7131
:108CD000EAE701232B71E7E748F20764E3E648F28D
:108CE0000A64E0E6A43E0020943E0020E8860300EB
:108CF000F03E00207C3F0020DEC0ADDEFE011EF114
:108D0000903F0020943F002014100010AC3E002043
:108D10008C3F0020B83C0020C83E002010B309B3AF
:108D200070B582B00C460DF106010546FFF7A8F8B4
:108D300018B948F2096002B070BDBDF806000B4BCF
:108D40006E6800EB800003EB800001210C3000F026
:108D500015FD26606B6801220C3300206360AA7247
:108D600002B070BD48F20460704700BFC83E0020EA
:108D700010B310B582B00DF106010446FFF780F87C
:108D8000B0B1BDF806300E4A03EB830302EB830358
:108D9000DA684AB1A27A3AB1DA680021013A0846A3
:108DA000DA60A17202B010BD48F2056002B010BDD9
:108DB00048F2096002B010BD48F20460704700BF7D
:108DC000C83E00202DE9F047514B1B7882B073B3A9
:108DD000002944D00A884FF6FF739A4221D04B886D
:108DE000FBB14D6815F0030533D1B1F8089009F1D6
:108DF00003039BB240F2FE32934233D8454A1478C3
:108E00003CB95689148934441C44A4B2B4F5806F2B
:108E10002BD9147D8CB148F20665284602B0BDE816
:108E2000F08748F20365284602B0BDE8F08748F2B3
:108E30000165284602B0BDE8F087D68B948B344498
:108E40001C44A4B2B4F5806FE5D84FF00108C446C5
:108E50000DE048F20265284602B0BDE8F08748F20E
:108E60000465DAE748F20865D7E7A846AC464FEA5A
:108E70008C07674402EB870733440C46824601A9FE
:108E800025487B8100F04CFB1C22064600210EF099
:108E9000E1FC002E30D002230027A6F814803370A6
:108EA000B7756368336101211C4800F067FCF0600E
:108EB000238833816388B38001A97781A6F806905F
:108EC000154800F05BFBBAF1000F0AD0CAF8047035
:108ED000F268134BCAF800201B898AF80A70AAF8B6
:108EE000083001210F4800F03DFC0446002894D1D1
:108EF000FFF742F8254690E77B89C9F57F4909F1DC
:108F0000FD099944A7F80A9048F2076585E700BF74
:108F1000A43E0020C83E00207C3F0020C03E002030
:108F2000AC3E00208C3F0020A0B1114A1278CAB19B
:108F300081B110B40C884FF6FF7294420DD04A886C
:108F40005AB14A6812F003020FD103235DF8044BB3
:108F5000FFF7D2BC48F20460704748F203605DF846
:108F6000044B704748F20160704748F20260F6E730
:108F7000A43E002070B51D4B1B7882B00BB34FF69A
:108F8000FF73984227D001A90446194800F0C8FA97
:108F90001C22054600210EF05DFCBDB10523012613
:108FA000EC8001A92B702E71114800F0E7FA3146D0
:108FB000104800F0D7FB044690B10024204602B0D0
:108FC00070BD48F20164204602B070BD48F20764EB
:108FD000204602B070BD48F20364204602B070BD66
:108FE000FEF7CAFF204602B070BD00BFA43E0020BD
:108FF0007C3F00208C3F002010B5194B1B7882B0BD
:10900000F3B101A9174800F08BFA1C220446002195
:109010000EF020FCF4B10623237001A9114800F0E2
:10902000ADFA114B1A780AB101221A7301210F48C7
:1090300000F098FB044640B10024204602B010BD69
:1090400048F20164204602B010BDFEF795FF2046AD
:1090500002B010BD48F20764204602B010BD00BF48
:10906000A43E00207C3F0020AC3E00208C3F00202E
:109070002DE9F0473A4C2478002C69D0002A6BD0B7
:10908000002B69D0B3F804C0BCF1010F16D8354EDF
:109090000CEB8C048A4606EB84064FF6FF7E4FF0FD
:1090A000000834786CB10CF1010C1FFA8CF4022C1E
:1090B0009C8006F114064FF0010CF2D148F20960D1
:1090C00032E01C68756805F58057002C3DD0658836
:1090D000033504EB8504BC4202D3C3F80080E2E709
:1090E00025680135F9D06588033504EB8505BD4257
:1090F000F3D8B4F80490F14518D0B4F80090B9F161
:10910000000F13D0A168013110D01C60A5888542E2
:10911000D8D125885545D5D1A16811601968124B61
:1091200051601B8913810020BDE8F087AF42D4D97C
:109130002C6801342C46D0D0B5F8029009F103090F
:1091400005EB8905AF42D4D2C7E705F10804C2E7B1
:1091500048F20160BDE8F08748F20460BDE8F0879E
:10916000A43E0020C83E0020AC3E0020374B1B78B8
:10917000002B64D0002965D0002A63D02DE9F0438C
:109180009788012F14D8324D07EB8703814605EBF2
:1091900083054FF6FF7C4FF0000E2B785BB1013753
:1091A000BBB2022B938005F114054FF00107F4D1F7
:1091B00048F209602FE013686C6804F58056002BB4
:1091C0003AD05C88033403EB8403B34202D3C2F881
:1091D00000E0E4E71C680134F9D05C88033403EB59
:1091E0008404B442F3D8B3F80480E04515D0B3F852
:1091F0000080B8F1000F10D0986801300DD01360D6
:109200001C884C45D8D19B680B601268114B4A6092
:109210001B890B810020BDE8F083A642D7D92368C3
:1092200001332346D3D0B4F8028008F1030804EBDD
:109230008804A642D7D2CAE704F10803C5E748F27A
:109240000160704748F20460704700BFA43E0020F0
:10925000C83E0020AC3E0020374B1B78002B64D06A
:10926000002965D0002A63D02DE9F0439788012FAB
:1092700014D8324D07EB8703814605EB83054FF683
:10928000FF7C4FF0000E2B785BB10137BBB2022B95
:10929000938005F114054FF00107F4D148F20960FD
:1092A0002FE013686C6804F58056002B3AD05C8878
:1092B000033403EB8403B34202D3C2F800E0E4E7D3
:1092C0001C680134F9D05C88033403EB8404B44295
:1092D000F3D8B3F80480E04515D0B3F80080B8F1B6
:1092E000000F10D0986801300DD013609C884C4559
:1092F000D8D19B680B601268114B4A601B890B81A7
:109300000020BDE8F083A642D7D923680133234665
:10931000D3D0B4F8028008F1030804EB8804A64215
:10932000D7D2CAE704F10803C5E748F201607047E5
:1093300048F20460704700BFA43E0020C83E0020F1
:10934000AC3E002020B119B103680B6000207047CB
:1093500048F20460704700BF2DE9F84F504B1B786E
:10936000002B00F095800446002800F09580122222
:1093700000210EF06FFADFF82CE160882189658901
:10938000DFF8248103237246238000264FF6FF7CFA
:109390004FF0010A814613895089576803449BB2F4
:1093A000002F43D03868404540D1786800F16E60A6
:1093B00000F5FF300230012838D8B00030440EEB01
:1093C00080001D44C768A089B944A4F80290578959
:1093D0006581C3F580639BB29842394438BFA3814D
:1093E00021815768BB68013307F1080B07F58050EE
:1093F00017D07F8903370BEB8707B84245D35B460D
:109400009F88674516D01F88A7B19F68013711D084
:10941000A7880137A7805F88033703EB870398424B
:109420001AD814327EB30020BDE8F88F20880138A6
:109430002080C2E7B4F806B0E7890BF1010BA4F86D
:1094400006B0B3F802B003375F44E7815F880337A3
:1094500003EB87039842E4D91F680137E1D05F88A6
:10946000033703EB8707B842CAD2C31AC3F38F038B
:10947000E788E08984F810A001370344E780E3819E
:109480001432002ECFD1012685E740F2FE33EFE7FC
:1094900048F20160BDE8F88F48F20460BDE8F88F3B
:1094A000A43E0020C83E0020DEC0ADDE99B110B45D
:1094B000B2FBF3F403FB1424A4B244B9C0E90014D2
:1094C00084608281C38120465DF8044B7047092087
:1094D0005DF8044B70470E20704700BF82B050E823
:1094E000022FC188B2EB324F4FF0000317BF92B288
:1094F00041EA014142EA014104E04268B2EB324FE5
:1095000008BF012340E80212002AE8D18DF8073095
:109510009DF80730002B0CBF1120002002B07047CF
:1095200030B482B050E8013F9DB2C489254484899B
:10953000A54228BF2D1B0489A54202BFBFF32F8F70
:10954000002207E0C5EA030540E80154002CE9D1F8
:109550004FF001028DF803200193019B9DF8032039
:109560000B602AB10B880068184402B030BC704709
:1095700002F0FF03184602B030BC70470A884B88DF
:109580009A4201D00020704750E8012FC2EA0242FF
:1095900040E80123002BF7D10120704730B482B09E
:1095A00050E8023F1FFAA3F5C488A54202BFBFF3EB
:1095B0002F8F00220DE0C48925448489A54228BF4D
:1095C0002D1BC3EA054540E80254002CE8D14FF0BA
:1095D00001028DF803200193019B9DF803200B608D
:1095E0002AB14B880068184402B030BC704702F0C2
:1095F000FF03184602B030BC704700BF0A884B8892
:109600009A4201D00020704750E8022FC2EA22425D
:1096100040E80223002BF7D10120704701F01F0220
:109620004B09012100EB8300914000F083B800BF9B
:1096300010B5012301F01F04490900EB810003FA72
:1096400004F100F06BF8E04000F0010010BD00BF35
:1096500001F01F0201234909934000EB8100D94327
:1096600000F074B84B0901F01F0150F82300C84006
:1096700000F00100704700BF2DE9F04F01F1FF3A03
:1096800083B04FEA5A130E46044601934FF0000987
:109690004FF0010854F8292004EB8907D24392FACD
:1096A000A2F2B2FA82F2202A24D04FEA491505EB41
:1096B000020A56450CD81DE03B68DB4393FAA3F33E
:1096C000B3FA83F3202B05EB030A13D0564511D9C7
:1096D0000AF01F0B4FEA5A1008FA0BF104EB800056
:1096E00000F01CF820FA0BF0C307E5D4504603B095
:1096F000BDE8F08F019A4A4509F1010301D099466E
:10970000C8E7B246F2E700BF50E8002F0B4640E83A
:10971000003C9CF0000FF7D11046704750E8002F36
:1097200042EA010340E8003C9CF0000FF6D11046ED
:10973000704700BF50E8003F43EA010240E8002CB8
:109740009CF0000FF6D11046704700BF50E8003F74
:1097500003EA010240E8002C9CF0000FF6D110460D
:10976000704700BF50E8002F02EB010340E8003CC7
:109770009CF0000FF6D11046704700BF50E8003F44
:1097800003EB010240E8002C9CF0000FF6D11046DC
:10979000704700BF50E8003FA3EB010240E8002CF7
:1097A0009CF0000FF6D11046704700BF012350E82F
:1097B00000CF4CEA030240E8002191F0000FF6D1FF
:1097C0006046704720B119B101600B681146184717
:1097D0000E20704750B32DE9F0414AB3D0F800E0B5
:1097E000BEF1000F26D01D46EBB14768D7F80480C4
:1097F000B3FBF8F708FB1737AFB942EA0104A40737
:109800000ED1C468A1420BD301F1FF3C0469654449
:10981000A54205D8DEF80C40A446BDE8F0416047FB
:109820001020BDE8F0810920BDE8F0810E207047CE
:109830000E20F6E70820F4E700B3F0B5D0F800C03A
:10984000BCF1000F1CD0BAB14768D7F800E00EF1A8
:10985000FF370F420ED1C768B9420BD34D1E0469C2
:109860000EFB0255A54205D8DCF81040A446BDE821
:10987000F04060471020F0BD0920F0BD0E20704779
:109880000820F0BD29DF704728DF70470846704781
:1098900000207047024B187A003018BF0120704733
:1098A00044400020034B187A0122B0FA80F05A7429
:1098B000400970474440002008B510461A460DF094
:1098C000BBFF002008BD00BF08B5142200210448DA
:1098D0000DF0C0FF0348FFF701FE002008BD00BFE8
:1098E000444000203440002010B50A4C0A4B43602D
:1098F0002046FFF75BFF08B1002010BD03F052FEC9
:109900001C2320748C2205490548FFF7CFFD002059
:1099100010BD00BF44400020DC860300A83F0020AB
:109920003440002030B55D4D2B7A87B0002B39D004
:109930005B4B1C6802232B722379002B3DD0012B3B
:1099400024D022689368C3B1002368460093C0E91D
:109950000233032103610191A36805932379002B4E
:1099600057D0012B07D102238DF80030E3681B0389
:1099700002936369049393689847002349494A48CE
:109980002B726B60FFF73AFE07B030BDD4E90303DA
:109990001844FFF779FF20B31128D2D101232B728D
:1099A00007B030BD3F494048FFF7F8FD3C4B044647
:1099B00018600028BED16860E6E7D4E90520121AD5
:1099C000B2F5805F28BF4FF48052D4E903139208A8
:1099D000012A38BF012201441844FFF753FF002831
:1099E000DAD12B7C002BCFD12B7A002BCCD0022BC1
:1099F0000AD1E8602379DBB1012B05D1D4E9043227
:109A00000133934223611FD06B7C73B9FFF78AFF48
:109A1000BAE701238DF8003023690293E3680393CA
:109A20006369049393689847A7E703F0ABFDABE73E
:109A3000D4E90523D11AB1F5805F94BF5B1803F513
:109A400080539A42A361DFD100232B722268916870
:109A5000A9B168460093C0E90133C0E90333A368A4
:109A60000593237983B1012B07D102238DF80030B0
:109A7000E3681B0302936369049393689847094959
:109A80000948FFF7BBFDBFE701238DF800302369CC
:109A90000293E368039363690493EEE74440002074
:109AA0005C400020584000203440002000F0FD03BE
:109AB000012B00D07047A0F10100044BB0FA80F0F8
:109AC0004009002218745A74FFF72CBF444000204C
:109AD0002DE9F04784B082468946184803A990468C
:109AE0001F46FFF71DFD20B3044600211C220D4632
:109AF000134E0DF0AFFE0C9BC4F800A0A360C4E9A8
:109B00000389676103A925710C48FFF737FD301DF4
:109B1000FFF74CFE18B1284604B0BDE8F087737C0F
:109B2000002BF9D10190FFF7FDFE019804B0BDE8CC
:109B3000F087042004B0BDE8F08700BF3440002067
:109B4000444000202DE9F04385B081460D4617487A
:109B500003A917469846FFF7E3FC18B304461C22F6
:109B600000210DF077FE124EC4F8009001232D0B5A
:109B7000C4E90285676103A923710C48FFF7FEFC65
:109B8000301DFFF713FE18B1002005B0BDE8F083CB
:109B9000737C002BF9D10190FFF7C4FE019805B04A
:109BA000BDE8F083042005B0BDE8F0833440002018
:109BB00044400020831E012B3FD810B5334C237A3C
:109BC00086B0002B37D0022B31D103283AD0304B4E
:109BD00000221B68E2601A79002A40D0012A26D1AF
:109BE000D3E9042101328A421A6120D10020207277
:109BF00019688A68BAB10022CDE903220292009264
:109C00009A68019005921A79002A35D0012A07D165
:109C1000DA685B6904931303022202938DF8002033
:109C20008B68684698471B491B48FFF7E7FC637C35
:109C300023B9FFF777FE06B010BD704703F0A2FC12
:109C400006B010BDE3680133082B01D8E360EEE7EE
:109C50000F4B00221B68E26022720D20C8E7D3E997
:109C60000512881AB0F5805F94BF121802F5805271
:109C700091429A61DBD1B9E7012218698DF8002081
:109C8000DA685B690493CDE90202C9E74440002029
:109C90005C400020584000203440002033DF7047F3
:109CA00041DF70470D490E4A08B500230B70136061
:109CB000BFF35F8F0B490C4800F0A2F90B4A0C4828
:109CC0000121FDF76DFE00B108BD02464FF40041D1
:109CD0000848BDE80840FDF771BE00BF9040002075
:109CE000944000200C87030060400020FD9D02008E
:109CF000088703007040002000B583B000230DF1F9
:109D000007008DF80730FDF7C7FEF1EE103A23F09B
:109D10009F03E1EE103ABFF35F8F0B4B4022C3F875
:109D200084219DF80700FDF7DDFE03F03BFC28B918
:109D300020BF40BF20BF03B05DF804FBFFF7B0FFBA
:109D400003B05DF804FB00BF00E100E02DE9F04145
:109D5000244E044601213046FFF7D6FCBFF35F8F47
:109D6000D8B9042C37D0204B1A789AB91F4F01224A
:109D70003C701A701E4D6B688BB1A84605E04046DA
:109D800000F048F96B683C784BB11B682046984757
:109D90000028F4D1BFF35F8F3060BDE8F081023C52
:109DA000012C0BD903F0FEFBC0B94FF08043012218
:109DB000C3F80025BFF34F8F20BFFDE7BFF34F8FE0
:109DC0000C490D4BCA6802F4E0621343CB60BFF349
:109DD0004F8F00BFFDE7054F3C78CBE7FFF75EFFF5
:109DE000E3E700BF9440002090400020684000203E
:109DF0006040002000ED00E00400FA05034B1B78F2
:109E000003B970470420FFF7A1BF00BF90400020B6
:109E10002DE9F04103681F681D685B689D4284BF9F
:109E200083680133164688465D1BC2684168AE42AE
:109E3000044607FB02110DD806FB02F240460DF066
:109E4000FBFCA26823683E44964288BF00261E6041
:109E5000BDE8F08105FB02F73A4640460DF0ECFC08
:109E6000E2686168751B08EB070002FB05F20DF064
:109E7000E3FC23681D60BDE8F08100BF03688268D1
:109E800018685B68934234BF01330023C01AB0FAEC
:109E900080F04009704700BFF0B5044683B000254C
:109EA0000DF107000E468DF80750FDF7F5FD23680C
:109EB000A26819685868904238BF451CA94213D05F
:109EC0005F685D68AA420CD800225A60E268606848
:109ED000531E072B42D8DFE803F03B3741334141A3
:109EE000411801355D60F1E7217C00293CD15F68B4
:109EF000586882422FD859602268A16813688B4243
:109F000034BF013300231360E0E7D6E9002300EB00
:109F1000C700C0E900232268136851688B4282BFE2
:109F2000A06801300918CB1A91689DF80700994282
:109F300038BF9360FDF7D6FD0024204603B0F0BD86
:109F4000336840F82730E6E7338820F81730E2E737
:109F50003378C355DFE701305860CDE7314607FB62
:109F600002000DF069FCD6E79DF80700FDF7BAFD89
:109F70000424204603B0F0BD70B5144682B012B977
:109F8000204602B070BD054600230DF107008DF894
:109F900007300E46FDF780FD2A681368506883423B
:109FA0000AD8C31A9C420DD905249DF80700FDF775
:109FB00099FD204602B070BDAA6801320244D31A4E
:109FC0009C42F1D8224631462846FFF721FF002463
:109FD000EBE700BF30B5054683B000240DF1070064
:109FE0008DF80740FDF758FD21460C2228680DF03A
:109FF00031FC9DF80700FDF775FD03B030BD00BFD3
:10A0000001600B6843604A68934204BF00234360C9
:10A01000704700BF436843B1026891680B444360D6
:10A020005268934204BF00234360704770B5446890
:10A03000064620680D4618B908E02468206828B153
:10A04000B368294698470028F7D120682860256022
:10A0500070BD00BF4368186808B102681A60704795
:10A0600043681868704700BF4068036873B199423D
:10A0700003D107E0814204D0034618680028F9D1D3
:10A08000704718460B6803600120704718467047F8
:10A0900059B3B0B5144600AF1AB31D460023C2E948
:10A0A0000031F5B1C5E90031134B0A7953F822307C
:10A0B000F3B148B12A462146984718B90F4A104BC8
:10A0C00022602B60BD46B0BD0E4931F81220002A37
:10A0D000F0D007326946D208A1EBC2029546684625
:10A0E000E8E748F21350BD46B0BD48F21050704743
:10A0F00048F20350E6E700BF208703007652464D42
:10A100007052464D1887030008B3D1B110B5002432
:10A11000C1E9004084798AB19C420CD100790D4B91
:10A1200053F8203083B10C4620461146984708B9B1
:10A13000094B236010BD48F2115010BD48F2105079
:10A1400010BD48F21350704748F2035010BD48F25A
:10A15000105070472C8703007052464DB8B130B490
:10A16000114B04689C420ED14368B1B122B19C7975
:10A170001568AC420ED814601A790C4B53F8223093
:10A1800073B130BC184748F2405030BC704748F2B9
:10A190001050704748F21450F7E748F21350F4E7B4
:10A1A00048F20350F1E700BF7052464D3887030074
:10A1B0002DE9F047A0B390F80580A1B3BAB3984554
:10A1C00026D8A1EB020A0AF1FF3108EB0209184672
:10A1D000CE46A1EB080303EB0E070AEB0E06551E55
:10A1E000714617F801CF16F8014D05F8014F8C1E86
:10A1F00001F801CC0139A41AAEEB010CA445F0D949
:10A20000A0EB08008045C6444A4602D8C144E2E7B4
:10A210001846002848F2115318BF1846BDE8F087C9
:10A2200098460029CAD148F21050BDE8F08748F29C
:10A230001350F3E7F8B50B4D0B4E0C4FAD1B01233C
:10A24000ED083B700AD0002401E0A54206D056F884
:10A250003430984701340028F7D0F8BD02233B7012
:10A260000020F8BDA0B5030098B503009840002079
:10A27000064B1A78022A06D01878A0F10100B0FA2D
:10A2800080F0400970470120704700BF98400020CF
:10A290002DE9F04F85B09E469DF838A073B1177830
:10A2A000C7B903F1FF39BE469144944602E01CF859
:10A2B000017F8FB9CC450EF1080EF8D1002800F0CF
:10A2C000968048F2145B002B40F0AE80584605B0F3
:10A2D000BDE8F08F4FF0000EFC0940F0A780BC00F5
:10A2E00014F4407F0EF101091FD1FC0014F4E06F5B
:10A2F0000EF1020919D13C0114F4706F0EF103093B
:10A3000013D17C0114F4F85F0EF104090DD1BC01E6
:10A3100014F47C5F0EF1050907D1FF0117F4FE4F1D
:10A320000EF1060901D10EF1070900285FD00029BE
:10A3300077D0002A75D015780C78AC4269D15F1EB1
:10A34000174494460E4605E01CF8015F16F8014FCD
:10A35000A5425ED1BC45F7D11E461546FF2309F044
:10A36000070213414FEAD9075BB206EB00090393DA
:10A37000C319884604460192029309F1FF392E4819
:10A380005346324621460068FCF76CF883460028A5
:10A390009CD101463A4620460DF05CFA019B23B160
:10A3A000029B03991A780A401A70217898F80000E5
:10A3B000814222D12246C44605E012F801EF1CF882
:10A3C000010F86451AD14A45F7D1287881421AD122
:10A3D00006F1FF3EAE442A46A44605E012F8010FFE
:10A3E0001CF8011F88420ED19645F7D16EE748F25E
:10A3F000135B584605B0BDE8F08F8E467045BED25F
:10A4000028788142E4D08142B9D2584605B0BDE8EF
:10A41000F08FA542A0D848F2175B584605B0BDE8BA
:10A42000F08F48F2105B51E7F14680E7F1460028D3
:10A430007FF47DAFDBE700BFE841002010B582B0BC
:10A4400001240094FFF724FF02B010BD70B5164B35
:10A450006A469A4211D30D460446FFF709FFF8B148
:10A46000124E336823B1124A124B12689A4215D029
:10A4700004B92DB148F2175070BD48F2195070BDA3
:10A480000D480E493060FBF7B7FF0028F4D1316862
:10A49000074B0B4C074A0C601A6070BD002070BD62
:10A4A0004FF4054070BD00BF00E00020E8410020EF
:10A4B000E04100206572E54B9C400020E441002013
:10A4C0006169614D094B0A4A1968914205D10949F0
:10A4D000094A08680168914202D048F20250704768
:10A4E000002202601A60FBF7B5BF00BFE041002008
:10A4F0006572E54BE84100206169614D30B4124C52
:10A500006B46A34210D30D4602B1C9B10F49104B9F
:10A510000968994204D158B148F2175030BC7047CD
:10A5200048F2025030BC704748F2195030BC7047B6
:10A53000084B0949186813462A4630BCFBF7A8BFE8
:10A5400048F21050EAE700BF00E00020E0410020A0
:10A550006572E54BE8410020E441002048B329B38F
:10A56000154A164B12689A4202D048F202507047C0
:10A5700070B5134E044601230A460D463068214645
:10A58000FBF770FF48F27153984200D070BD002273
:10A5900011461046FFF7B2FF0028F7D12A462146A0
:10A5A00030680123BDE87040FBF75CBF48F21450EF
:10A5B000704748F213507047E04100206572E54B48
:10A5C000E8410020F0B50479824B4FEAC40E03EB5A
:10A5D0000E0589B02D79002D40F0E38043F834203A
:10A5E0000D78FF2D00F0C48025F0800201262D0695
:10A5F000049206FA02F600F1E7804FF0A045C5F894
:10A600000C654FF0A04502F5E072032645F8226084
:10A610004D78FF2D00F0B38025F0800201262F0633
:10A62000059206FA02F600F1CA804FF0A045C5F87F
:10A630000C654FF0A04502F5E072032645F8226054
:10A640008D78FF2D00F0A28025F0800201262D06D6
:10A65000069206FA02F600F1AD804FF0A045C5F86B
:10A660000C654FF0A04502F5E072032645F8226024
:10A67000CD78FF2D00F0918025F0800215F0800F3D
:10A680004FF001064FF0A04506FA02F6079214BFFC
:10A69000C5F80865C5F80C6502F5E0724FF0A045F5
:10A6A000032645F82260DDE904760268069DC2F8BB
:10A6B0006075C2F86465C2F86855079DC2F86C55AC
:10A6C00002680125C2F8005502688E790D894F791C
:10A6D000C2F80C75C2F80465C2F8085502684D89C5
:10A6E000C2F8105505680022C5F800220568C5F8B3
:10A6F00000230568C5F81C21D5F81C61056804967F
:10A70000049EC5F81021D5F8106105680396039ED4
:10A71000C5F81421D5F8146105680296029EC5F8A3
:10A72000042153F83420D5F804410194019CCAB1A6
:10A7300004680A79210B4CB25201002CD2B233DBEF
:10A7400004F1604404F5614484F800230268224C5B
:10A75000120B51B2490902F01F02012000FA02F265
:10A7600044F821207344012200201A7109B0F0BD81
:10A770004D784FF0FF32FF2D04927FF44DAF8D786E
:10A780004FF0FF32FF2D05927FF45EAFCD784FF092
:10A79000FF32FF2D06927FF46FAF4FF0FF3207922A
:10A7A00081E7082009B0F0BD0C4C01F00F010C440A
:10A7B0002276CBE74FF0A045C5F8086551E74FF08A
:10A7C000A045C5F8086534E74FF0A045C5F8086511
:10A7D00017E700BFEC41002000E100E0FCEC00E0E6
:10A7E000F0B404680E680579C4F820658E88C4F852
:10A7F00024658E68C4F82865CE68C4F82C650468A2
:10A800000E68C4F840658E88C4F844658E68C4F844
:10A810004865C968C4F84C15016802F0010404EBEE
:10A820005202C1F81425DE0782B0D9B202683DD4C5
:10A8300013F002063CD1002CC2F8006214BF0C26B3
:10A840000826234C04EBC50254F83540517102250B
:10A850001571D4B101F00402002A01F0080C03BF05
:10A860002F46A2222224B2220FBF82253224922513
:10A870001227BCF1000F04BF2A463C46056811F0C0
:10A88000100F18BF2246C5F8002301680022C1F846
:10A890000421D1F8041101911B0601990ED403681B
:10A8A00001211046995102B0F0BC70471026C2E752
:10A8B0004CB10824C2F800420C26C2E700683044BC
:10A8C00002B0F0BC70470424C2F800420826B8E782
:10A8D000EC41002000B52C4BD3F8102185B052B1CB
:10A8E00000212A4AC3F81011D3F8101153790391AB
:10A8F0000399590741D4244BD3F8142152B10021B4
:10A90000224AC3F81411D3F81411537902911B078A
:10A9100002992CD41C4BD3F81C215AB100211B4A9C
:10A92000C3F81C115079D3F81C31019310F01000BA
:10A93000019B17D0144BD3F8042182B10021134A94
:10A94000C3F80411D3F80411136800910121009891
:10A95000117123B1032005B05DF804EB184705B071
:10A960005DF804FB1368002BE4D09847E2E7136816
:10A97000002BCFD002209847CCE71368002BBAD029
:10A9800001209847B7E700BF00C00140EC4100201C
:10A9900000B52C4BD3F8102185B052B100212A4AC2
:10A9A000C3F81011D3F81011537B03910399590781
:10A9B00041D4244BD3F8142152B10021224AC3F8C8
:10A9C0001411D3F81411537B02911B0702992CD454
:10A9D0001C4BD3F81C215AB100211B4AC3F81C118F
:10A9E000507BD3F81C31019310F01000019B17D05D
:10A9F000144BD3F8042182B10021134AC3F8041187
:10AA0000D3F804119368009101210098117323B1C8
:10AA1000032005B05DF804EB184705B05DF804FBB2
:10AA20009368002BE4D09847E2E79368002BCFD0DF
:10AA300002209847CCE79368002BBAD001209847B2
:10AA4000B7E700BF00100240EC41002000B52C4BDE
:10AA5000D3F8102185B052B100212A4AC3F8101151
:10AA6000D3F81011537D03910399590741D4244B16
:10AA7000D3F8142152B10021224AC3F81411D3F89B
:10AA80001411537D02911B0702992CD41C4BD3F84F
:10AA90001C215AB100211B4AC3F81C11507DD3F868
:10AAA0001C31019310F01000019B17D0144BD3F808
:10AAB000042182B10021134AC3F80411D3F8041110
:10AAC0001369009101210098117523B1032005B08D
:10AAD0005DF804EB184705B05DF804FB1369002B23
:10AAE000E4D09847E2E71369002BCFD002209847C3
:10AAF000CCE71369002BBAD001209847B7E700BF15
:10AB000000200240EC4100202DE9F041634B1A681F
:10AB100088B002BB624F97F82E30002B29D1614BD1
:10AB20001A685AB100221A601B68039302218DF83B
:10AB300014103B6803993A7405A898475A4B1C684F
:10AB4000002C30D000221A601B680593059B3A74D4
:10AB500008B0BDE8F0810022514F1A60196897F8DB
:10AB60002E3000910099002B4ED097F82F30002BFB
:10AB700063D14E4B1A68002AD1D00020186097F894
:10AB80002D2019687B8B019191B28B42019C63D877
:10AB900073D0424B464A002119601B68029301237F
:10ABA00002991360BBE77E69002ED1D04FF00048B8
:10ABB0000125B6FA86F101F146039B0003F18042BC
:10ABC00002F5E042A3F58C73D2F800E083F00400B4
:10ABD00028FA01F1C0F3800CDB0805A826EA01067B
:10ABE000BEF1000F0BD01460126804928DF818307B
:10ABF0008DF814508DF819C03B68049A9847002EC0
:10AC0000D7D108B0BDE8F081FA68786839898DF845
:10AC100014300690ADF81C10002A2BD02548398B33
:10AC20007A600122FB607983398102603B6805A864
:10AC30009847002387F82F306DE7FB6878683989DB
:10AC40008DF814200690ADF81C109BB1398B7B60F9
:10AC5000FA6079833981E9E73889164C5B1A9BB22F
:10AC600079687B83C01A01EB4001C4F82C16C4F844
:10AC700030268EE700233B74D8E7FB684BB10D49C3
:10AC80007883012087F82F00C1F82C36C1F83026D0
:10AC90007FE701227B8387F82F207AE70471004049
:10ACA0000442002010710040147100400071004007
:10ACB0000470004000700040234B93F82C20002AC1
:10ACC0003FD170B4214C05781960C4F8F05545782F
:10ACD0001F49C4F8F4556FF000451A74C678C4F8DB
:10ACE000085385B00A60096803911A49039D0A60F8
:10ACF0000968194D029102992A60817883F82E60C3
:10AD00002D6816480195490183F82D205A6183F872
:10AD10002F20C9B28022F5B2019E80F8071302608D
:10AD200002210122C4F8041383F82C200DB1C4F8C9
:10AD30000423064B01220020C3F8002505B070BC97
:10AD400070470820704700BF044200200070004098
:10AD500004710040007100401471004000E100E007
:10AD60009A489B4B9B4A9C4970B46FF00045C0F8D1
:10AD7000085380240120C3F8804042F21073106011
:10AD800001E0013B02D00A68002AFAD0934B8F4CB5
:10AD9000187F93F82D2059690025C4F800551D74BB
:10ADA000002840F0F9809C7F002C40F0D78093F879
:10ADB0002040002C40F0B48093F82240002C40F05A
:10ADC000918093F82440002C6FD193F82640002CFA
:10ADD0004ED193F828404CB993F82A402CBB002858
:10ADE0003ED1002283F82C2070BC70471D7C05F0FA
:10ADF000FF04002DF0D17A4D74481C8593F82A6029
:10AE0000C5F81445C5F81045764CC0F87C454FF49C
:10AE10000024C0F80843013A4FF48024D2B221F450
:10AE20004021C0F80843DEB101201D7C05F0FF047D
:10AE3000002DD4D16C4D65485C85C5F81445C5F826
:10AE40001045684CC0F88C45013A4FF400154FF49A
:10AE50008014C0F80853D2B221F44031C0F808433E
:10AE600083F82D200022596183F82C2070BC704794
:10AE70001D7C05F0FF04002DABD15C4D5348DC84F4
:10AE8000C5F81445C5F81045564CC0F86C45013A54
:10AE90004FF400354FF48034C0F80853D2B2C0F8F4
:10AEA000084321F44011012093E71D7C05F0FF04C5
:10AEB000002D8AD14E4D45489C84C5F81445C5F8EF
:10AEC0001045484CC0F85C45013A4FF400454FF43A
:10AED0008044C0F80853D2B2C0F8084321F44001BE
:10AEE000012072E71D7C05F0FF04002D7FF469AF9F
:10AEF000404D36485C84C5F81445C5F81045394CBA
:10AF0000C0F84C45013A4FF400554FF48054C0F856
:10AF10000853D2B2C0F8084321F04071012050E735
:10AF20001D7C05F0FF04002D7FF446AF324D27480D
:10AF30001C84C5F81445C5F810452A4CC0F83C459A
:10AF4000013A4FF400654FF48064C0F80853D2B260
:10AF5000C0F8084321F0406101202DE71D7C05F079
:10AF6000FF04002D7FF423AF244D1848DC83C5F87F
:10AF70001445C5F810451B4CC0F82C45013A4FF458
:10AF800000754FF48074C0F80853D2B2C0F808437B
:10AF900021F0405101200AE71E7C06F0FF009EB917
:10AFA000C4F81405013AC4F810050E4E98838025A4
:10AFB0004020C4F81C65D2B2C4F8085321F04041C7
:10AFC000C4F808030120EEE62846ECE600700040D5
:10AFD00000E100E0087000401471004004420020CD
:10AFE0006070004000F8FF07707000405070004033
:10AFF00040700040307000402070004010700040F1
:10B00000334A137C002B60D1F0B40C79012C4ED95B
:10B0100000F10C0502EB45031B7923B992F82D30A2
:10B02000013382F82D304B788E7891F800C04F793B
:10B030001B01360206F4E06603F030033343CE789A
:10B040000CF0030C360306F4805643EA0C0333433A
:10B050008E793F0507F48017360602EB450206F0AD
:10B06000807624043B431B4D04F4E0243343234304
:10B0700005EB0016CC79147100010C7A547100F1C3
:10B080008040C6F8183500F5E040CB790A7AC0F860
:10B090001425C0F810350B79012B02D90020F0BC23
:10B0A00070470123C5F800350020F0BC704703F05D
:10B0B000FF05084BC3F8005500F10C0502EB4503F2
:10B0C0000C791B79002BAED1A8E71120704700BF87
:10B0D0000442002000700040044B054A93F82E0003
:10B0E000044B002814BF1046184670470442002045
:10B0F0000070004004700040F0B42D4A2D4B122423
:10B10000C2F808431D7C022D82B04BD01C7C012C60
:10B1100024D093F82E405860022701250026C2F85B
:10B1200004731D74DE6019816CB9234BC2F82C06C0
:10B13000C2F830161C601B680193019B1560204605
:10B1400002B0F0BC704793F82D40C2F82C06304690
:10B150005983C2F8304602B0F0BC7047DC6834B1A5
:10B1600002231120C2F8043302B0F0BC704793F8F8
:10B170002E20D86019836AB90F4A1368002BFCD0BF
:10B180000023136012680A4B0092009AC3F82C0641
:10B19000C3F83016064B02220020C3F8042302B085
:10B1A000F0BC70471120C2F8044302B0F0BC7047F5
:10B1B0000070004004420020007100400C4A137CE3
:10B1C000A3B930B403F0FF000A4B0B4C0B49022526
:10B1D000157482B018601B680193019D1022012331
:10B1E000C4F804230B6002B030BC704711207047D4
:10B1F0000442002010710040007000400C700040BC
:10B20000024B187C003018BF012070470442002018
:10B210002DE9F04F85B00026194DDFF868900190B8
:10B22000B3464FF0010805E09DF80F00FCF75AFC0B
:10B23000A5431ED0F7B208FA07F40DF10F008DF800
:10B240000FB0FCF729FC2C4206F10106ECD0D9F82E
:10B25000003014EA030AE7D11C43019B9DF80F005C
:10B260001F70C9F80040FCF73DFC504605B0BDE832
:10B27000F08F4FF0040A504605B0BDE8F08F00BFD4
:10B28000FFFF01003442002030B501248440C4F3A4
:10B29000100383B013B9072003B030BD0A4B00255B
:10B2A000C3F808450DF107008DF80750FCF7F4FBD3
:10B2B000064A9DF80700136823EA04041460FCF7AB
:10B2C00011FC284603B030BD00F00140344200209C
:10B2D000D9B1D2B10123834010B4C3F3100484B1B7
:10B2E0000D4C2468234212D0C00000F1804303F5C6
:10B2F000F8330020C3F81015C3F814255DF8044B8B
:10B30000704707205DF8044B70470E2070470820F7
:10B310005DF8044B704700BF344200200123834096
:10B32000580C400440B91BB1054A1268134205D0BD
:10B33000044AC2F804357047072070470820704758
:10B340003442002000F0014001238340580C4004A7
:10B3500040B91BB1054A1268134205D0044AC2F82D
:10B360000835704707207047082070473442002096
:10B3700000F00140F0B50779374D7E00F419A400C4
:10B3800005EB040C83B09CF80830002B61D12A51E6
:10B390004A68CCF80420427982B11A469C469B0048
:10B3A000046803F5A073013244F803C0E3584479FC
:10B3B0000193D3B29C42DDF804E0F0D80268CB7868
:10B3C000120B54B25B01002CDBB23CDB04F1604495
:10B3D00004F5614484F800330368DFF884C01B0B74
:10B3E0005CB20122640903F01F0302FA03F34CF874
:10B3F0002430D0F800C04B78DCF8044503F0030398
:10B4000024F003042343CCF80435D0F800C08B7833
:10B41000DCF8084503F0030324F003042343CCF8CD
:10B42000083500680B78D0F810153E4421F00F0164
:10B4300003F00F0305EB86050B43C0F81035002021
:10B440002A7203B0F0BD054C02F00F0214442376BB
:10B45000C2E7082003B0F0BD38420020FCEC00E059
:10B4600000E100E0036814491B0B5AB2520930B4E2
:10B4700020320124114D03F01F0304FA03F345F8B1
:10B48000223003680022D3F80052C3F80022036878
:10B490004FF0FF35C3F8085303681C61037903EBD1
:10B4A000430301EB83031C72037903EB430301EBBA
:10B4B00083010A7230BC70473842002000E100E08E
:10B4C0000368054A01211960037903EB430302EB8A
:10B4D000830302221A727047384200200368054A2B
:10B4E00001211961037903EB430302EB8303197212
:10B4F000704700BF38420020F0B4076840F20115E1
:10B50000D7F800428D4024EA0504C7F800420568D8
:10B5100082B0D5F800429DF8186023434FF4803480
:10B52000C5F800328C409EB18B0003F5A07305680E
:10B530000026EE50ED5803680195019DC3F80443C1
:10B54000036801F5A87143F8212002B0F0BC7047F0
:10B550000368C3F80843F3E72DE9F041114CDFF825
:10B560004C80114E82B000254FF48037236807FAD3
:10B5700005F101357BB1D8F80423A4F50040114250
:10B580004FF0000380B206D0236023680193D6E910
:10B590000031019A9847042D04F10404E6D102B069
:10B5A000BDE8F0814081004038420020008000402A
:10B5B0002DE9F041114CDFF84C80114E82B000258E
:10B5C0004FF48037236807FA05F101357BB1D8F8CD
:10B5D000042304F5E04011424FF0000380B206D08E
:10B5E000236023680193D6E90331019A9847042D1B
:10B5F00004F10404E6D102B0BDE8F08140910040BE
:10B6000038420020009000402DE9F041114CDFF855
:10B610004C80114E82B000254FF48037236807FA22
:10B6200005F101357BB1D8F8042304F5C04011427F
:10B630004FF0000380B206D0236023680193D6E95F
:10B640000631019A9847042D04F10404E6D102B0B2
:10B65000BDE8F08140A100403842002000A0004039
:10B660002DE9F041114CDFF84C80114E82B00025DD
:10B670004FF48037236807FA05F101357BB1D8F81C
:10B68000042304F5C04011424FF0000380B206D0FD
:10B69000236023680193D6E90931019A9847062D62
:10B6A00004F10404E6D102B0BDE8F08140A10140FC
:10B6B0003842002000A001402DE9F041114CDFF894
:10B6C0004C80114E82B000254FF48037236807FA72
:10B6D00005F101357BB1D8F8042304F5A0401142EF
:10B6E0004FF0000380B206D0236023680193D6E9AF
:10B6F0000C31019A9847062D04F10404E6D102B0FA
:10B70000BDE8F08140B101403842002000B0014066
:10B710002DE9F041274F284EDFF8A08084B00024A7
:10B720004FF48035D7F804332B4211D056F824203B
:10B730000023E0B262B1C7F84853C7F8085346F88F
:10B74000243056F824300393D8F80030039A9847F1
:10B750000134042C4FEA4505E4D1164BD3F80423F9
:10B76000D10702D5D3F80021C2B9124BD3F8042374
:10B77000920710D5D3F804216AB10022C3F804213E
:10B78000D3F804210D4B0192019A1B68052004B0E7
:10B79000BDE8F041184704B0BDE8F0810022C3F8CD
:10B7A0000021064AD3F80031029320461368029A1A
:10B7B0009847DAE7004002404041024074420020CE
:10B7C00010B54FF0804384B0D3F80443610704D52B
:10B7D000D3F8082103F5847302BBA20602D5144BEB
:10B7E0001A6892B963060BD5124B1A6842B100224F
:10B7F0001A60114A1B68019301201368019A984747
:10B8000004B0BDE81040FBF731B8002018600A4AC8
:10B810001B6802931368029A9847E3E700221A60B4
:10B82000064A1B6803931368039A9847D5E700BF3D
:10B8300014010040180100407C42002078420020A2
:10B840003FDF7047704700BF704700BFFBF7B6BED1
:10B85000044B9A68F1EE103A136C23F09F031364C3
:10B86000704700BF30EF00E008B5FEF71BFA00B9E3
:10B8700008BDBDE80840FBF791BE00BF38B508F031
:10B880003BFE88BB00F090FE1A48FAF791FF70BBB0
:10B89000FAF7B0FF00F034F8FFF7E6FF0120FFF7FA
:10B8A000CFFF01F02BFD144801F064FD012000F0F2
:10B8B000BBFE00F0B1FB00F0A7FE104B4022E021E0
:10B8C00083F826131D46C3F8842114465A60F1EE0E
:10B8D000103A23F09F03E1EE103AF1EE103AC5F86A
:10B8E0008441FEF709FAF2E7FBF758FECAE7FBF7D7
:10B8F00055FECDE745B8020049B8020000E100E07E
:10B9000000B5144B93E8070085B001AB83E807004E
:10B91000194600221048FEF755FE78B90F4A104824
:10B920000121FCF73DF888B900224FF400410D4891
:10B93000FCF744F828B905B05DF804FBFBF72EFED0
:10B94000ECE7FBF72BFE05B05DF804FBFBF726FEEA
:10B95000EAE700BF44870300E03B0020A9BA0200E9
:10B96000508703008842002010B54A4B4A4A197894
:10B970001170044649481C70FCF76CF840B9072C5C
:10B9800000F28580DFE804F01F737B2C3B4A6507DB
:10B99000FBF704FEF3E7424B0022C3E90022C3E9B0
:10B9A0000422C3E906224FF0FA11C3E902114FF451
:10B9B00000313C4B1A78002A41D13848FBF7FEFF92
:10B9C000002842D110BD364B0022C3E90022C3E952
:10B9D0000222C3E90422C3E906224FF42031E8E73A
:10B9E0002F4B00224FF40041D960C3E900229A6036
:10B9F000C3E90422C3E906224FF4F011D9E7284B2A
:10BA00000022C3E900224FF47A019960DA60C3E9A9
:10BA10000422C3E906224FF42021CAE7204B214922
:10BA20000022C3E90022C3E90322C3E905224FF43F
:10BA30007A04042008709C60DA614FF48031194A5E
:10BA40001648FBF7BBFF0028BCD0BDE81040FBF751
:10BA5000A5BD134B0022FA219960C3E90022C3E976
:10BA60000322C3E90522DA614FF40031A1E70C4B50
:10BA70000022FA21D960C3E900229A60A9E7084BA5
:10BA80000022FA21D960C3E900229A60BFE74FF48F
:10BA900000418EE7DC3B0020E83B0020884200208C
:10BAA000FC3B00208042002020B1074A13783BB1C4
:10BAB000013B13700123022204490548FEF790BEA2
:10BAC000044B1878FFF750BF80420020EC3B002069
:10BAD000E03B0020E83B002076DF70477ADF7047CC
